:020000040800F2
:10000000F8470020A97E0008C5050008C7050008BC
:10001000CF050008D3050008D70500080000000040
:10002000000000000000000000000000DB050008E8
:10003000DD05000800000000DF050008E1050008FC
:10004000C37E0008C37E0008C37E0008C37E00088C
:10005000C37E0008C37E0008C37E0008C37E00087C
:10006000E544000813450008C37E0008C37E00086D
:10007000C37E0008C37E0008C37E0008C37E00085C
:10008000C37E0008C37E0008C37E0008C37E00084C
:10009000C37E0008C37E0008C37E0008C37E00083C
:1000A000C37E00084D3E0008C37E0008C37E0008E2
:1000B000C37E000889460008DD460008C37E0008AC
:1000C000C37E0008C37E0008C37E0008C37E00080C
:1000D000C37E00084D570008C37E0008C37E000899
:1000E000C37E0008C37E0008C37E0008C37E0008EC
:1000F000C37E0008C37E0008C37E0008C37E0008DC
:10010000C37E0008C37E0008C37E0008C37E0008CB
:10011000C37E0008C37E0008C37E0008C37E0008BB
:10012000C37E0008C37E0008C37E0008C37E0008AB
:10013000C37E0008C37E0008C37E0008C37E00089B
:10014000C37E0008C37E0008C37E0008C37E00088B
:10015000C37E0008C37E0008C37E0008C37E00087B
:10016000C37E0008C37E0008C37E0008C37E00086B
:10017000C37E0008C37E0008C37E0008C37E00085B
:10018000C37E0008C37E000800F002F800F06FF89C
:100190000AA090E8000C82448344AAF10107DA45E2
:1001A00001D100F064F8AFF2090EBAE80F0013F0C5
:1001B000010F18BFFB1A43F001031847700B010031
:1001C000900B01000A444FF0000C10F8013B13F0B3
:1001D000070408BF10F8014B1D1108BF10F8015BA0
:1001E000641E05D010F8016B641E01F8016BF9D193
:1001F00013F0080F1EBF10F8014BAD1C0C1B09D1EA
:100200006D1E58BF01F801CBFAD505E014F8016B5B
:1002100001F8016B6D1EF9D59142D6D370470000ED
:100220000023002400250026103A28BF78C1FBD8FF
:10023000520728BF30C148BF0B60704766290DF0D8
:10024000D085002070471FB50DF0C1FD0BF054FAAA
:100250000400002000210CF0F7FE401C606000202C
:1002600000210CF0DBFEE0601FBD10B510BD0BF0EF
:100270006FFB1146FFF7E7FF00F005F90BF0E8FD13
:1002800003B4FFF7F2FF03BC05F01CFA704700004F
:1002900010B52DED028B002445E0601C00EE100A25
:1002A000B8EEC00ADFEDA40A20EE200ADFEDA30AB3
:1002B00080EE201AF0EE418AB0EE680A0AF096FD50
:1002C0009FED9F1ADFED9E0A40EE010AB0EE608AB4
:1002D000B0EE480A02F0D3F99A4921F81400601CE4
:1002E00000EE100AB8EEC00ADFED930A20EE200AF5
:1002F000DFED920A80EE201AF0EE418AB0EE680A35
:100300000AF008FD9FED8E1ADFED8D0A40EE010A1E
:10031000B0EE608AB0EE480A02F0B1F98A4921F8DD
:100320001400601C84B2B4F5966FB6DBBDEC028B92
:1003300010BD0EB54FF6FF7001F05AF90020834949
:100340000880088082A01E236E22142100900A20BB
:1003500007F015FA7F4908607DA01E236E22372121
:1003600000900A2007F00BFA7B49086078A01E2352
:100370006E225A2100900A2007F001FA774908609E
:1003800077A02823DC22AF2100900A2007F0F7F99C
:100390007449086074A010210B463C22CDE900107E
:1003A0000221052002F09CF871A010210B460822C2
:1003B000CDE900101A217D2002F092F86DA01021E5
:1003C0000B460822CDE900103D217D2002F088F87F
:1003D000002069A2CDE9002023235A220A2102909D
:1003E0008C2007F084F8674908600120002166A28C
:1003F0002323CDE9002102905A2237218C2007F0D7
:1004000076F8644908604FF47840504908800EBD82
:1004100010B561484168002088475F4890F8200087
:1004200000F0800008B35C4880895C4909888842F4
:1004300028DA5948C08A59494988884222DA5848F6
:10044000007850B95448C38A82890121002006F0FF
:10045000EBFC01205249087014E04F48C38A82899E
:100460000321002006F0E0FC0CE04D48007848B184
:100470004948C38A82890221002006F0D5FC002069
:100480004749087010BDA82005F09AF84FF4A06005
:1004900007F02AFD03F0E4FB03F0B4FC00F0AAF936
:1004A00004F09DFE01203F4908709FED3F0A3F4840
:1004B00080ED000A9FED3E0A3E4880ED000A01F003
:1004C000C9F804F05DF834490868804703F0BEFEBF
:1004D000FFF7DEFE4FF478401C490880FFF729FF44
:1004E00001203549088042F210703449088041F2F9
:1004F000680004F06DF841F2680004F097F803F02A
:1005000073FC03F079FC04F06DFF13E0FFF780FF4C
:100510002B48007870B10020294908700D48006808
:1005200005F0FFF90C48006805F0FBF90B4800687E
:1005300005F0F7F9EAE70000DA0FC9400000964439
:1005400000005244A8020020080C0020DC0000201B
:1005500030000000580000205C00002060000020F7
:100560003530000068000020496E7075743A000054
:1005700056000000410000004F70656E204C6F6F08
:100580007000000040000020436C6F7365204C6FCA
:100590006F70000044000020E0000020681500207B
:1005A000C40000209200002000000000A8000020ED
:1005B0000080BB45AC000020B4000020B600002045
:1005C00089000020704710B5FFF760FE10BD00BF26
:1005D000FEE700BFFEE700BFFEE7704770477047C9
:1005E000704700000CB5002001900090764800682C
:1005F00040F480307449086000BF7348006800F41C
:10060000003000900198401C0190009818B90198A2
:10061000B0F5A04FF1D16C48006800F4003010B183
:100620000120009001E0002000900098012846D1B0
:1006300065484030006840F08050634940310860B0
:100640006248006840F44040604908605E480830F5
:1006500000685D49083108600846006840F40040C1
:1006600008600846006840F4A05008605848091F18
:100670000860081F006840F08070091F086000BF14
:100680005148006800F000700028F9D040F2057071
:10069000504908604C480830006820F003004A497F
:1006A000083108600846006840F00200086000BF9A
:1006B00045480830006800F00C000828F8D10CBD4F
:1006C00010B54548006840F47000434908603E4852
:1006D000006840F001003C49086000203A490831B8
:1006E0000860394800683D490840374908603C487F
:1006F000091D0860081F006820F48020091F086099
:10070000002031490C310860FFF76CFF4FF00060AA
:1007100031498039086010BD70B5002000220223E5
:1007200000240221284D08352D6805F00C0020B169
:10073000042806D0082834D107E02A4D2A4E356017
:1007400033E02A4D284E35602FE01F4D2D1D2D68BA
:10075000C5F380541C4D2D1D2D6805F03F0154B18B
:10076000224DB5FBF1F5184E361D3668C6F38816D6
:1007700005FB06F209E01B4DB5FBF1F5124E361DE7
:100780003668C6F3881605FB06F20F4D2D1D2D6841
:10079000C5F301456D1C6B00B2FBF3F5124E3560DD
:1007A00003E0104D104E356000BF00BF064D083508
:1007B0002D68C5F303150E4E705D0B4D2D68C540B9
:1007C000094E356070BD00000038024000700040E6
:1007D00008544007003C024088ED00E0FFFFF6FEB1
:1007E000103000240024F400C800002000127A0019
:1007F000CC0000201CB50121202008F0EDF94FF4B9
:10080000C060009001208DF8040000208DF80600E3
:1008100003208DF8050001208DF807006946254862
:1008200007F058FC4FF4C061224807F0CFFC0120CC
:1008300000908DF8040000208DF8060003208DF84C
:10084000050002208DF8070069461B4807F042FCAE
:100850000121194807F0BCFC0420009001208DF80C
:10086000040000208DF8060003208DF8050001200B
:100870008DF807006946104807F02CFC04210E484B
:1008800007F0A4FC1020009001208DF80400002047
:100890008DF8060003208DF8050002208DF8070072
:1008A0006946054807F016FC1021044807F08EFC45
:1008B0001CBD000000140240000002400010024075
:1008C0000346DB108910D210D80240EA41101043D1
:1008D00080B2704701B5BDF800000090BDF800007F
:1008E000F849088008BD01B5BDF800000090BDF8CA
:1008F0000000F449891C088008BD08B5F148801C37
:1009000000880090BDF8000008BDEE4A10804FF04E
:10091000D842A2F88010704710B504462046FFF771
:10092000D9FF052004F066FEFFF7E7FF10BDE6489B
:100930000089E44908807047E249891C08807047B3
:1009400030B5014601F01F04C1F34513CA0AE502A0
:1009500005EB43151544A8B230BD00BF0100A0F15E
:100960000102D0B2FAD1704730B504460D46D648E0
:10097000808849F24131884205D0D348808845F2C9
:100980001031884214D1D0494889FFF7A3FF2012C3
:10099000FFF7A9FFE0B2FFF7A6FFCB498889FFF771
:1009A00099FF2812FFF79FFFE8B2FFF79CFFABE02B
:1009B000C548808846F6040188421DD1C248807926
:1009C000012804D1C0480088401E001B84B2BE49E3
:1009D0004889FFF77FFF2012FFF785FFE0B2FFF79E
:1009E00082FFB9498889FFF775FF2812FFF77BFF5F
:1009F000E8B2FFF778FF87E0B348808841F66311DB
:100A0000884247D1B0488079A8B9AF480088401ED5
:100A1000001B84B2AC494889FFF75CFF0020FFF758
:100A200062FF0020FFF75FFF2012FFF75CFFE0B2DC
:100A3000FFF759FF16E0A4494889FFF74BFF201242
:100A4000FFF751FFE0B2FFF74EFF9F490988491EAB
:100A5000C1F30F20FFF747FF9B490978491EC8B231
:100A6000FFF741FF98498889FFF734FF2812FFF705
:100A70003AFFE8B2FFF737FF93494988491EC1F3AF
:100A80000F20FFF730FF90498978491EC8B2FFF761
:100A90002AFF39E08C48808845F21051884220D1E5
:100AA00089494889FFF716FF2012FFF71CFF864986
:100AB0004989491C88B2FFF70DFFE0B2FFF713FF29
:100AC00081498889FFF706FF2812FFF70CFF7E494E
:100AD0008989491C88B2FFF7FDFEE8B2FFF703FFE2
:100AE00012E079488079012804D177480088401EB7
:100AF000001B84B2744948892146FFF706FF7249FA
:100B000088892946FFF701FF30BD2DE9F0410546F0
:100B10000E4600240027A0466B480088A84203DD4B
:100B200069484088B04202DC0020BDE8F0813146CF
:100B30002846FFF719FF6448808849F2413188420E
:100B400011D06148808846F6040188420BD05E4887
:100B5000808845F21031884205D05B48808841F694
:100B60006311884203D12E20FFF7B4FE0DE05648F2
:100B7000808845F21051884204D14FF43850FFF775
:100B8000A9FE02E02220FFF7A5FE4F48808849F227
:100B90002031884202D10220FFF7DFFEFFF7ADFED1
:100BA00004464948808841F66311884201D12046B5
:100BB000BBE70220FFF7D1FEFFF79FFE0446424845
:100BC000808849F2413188420BD03F48808845F205
:100BD0001031884205D03C48808845F21051884247
:100BE0000AD10220FFF7B9FEFFF787FE8046E7B281
:100BF0004FF6FF7000EA07273348808849F2253115
:100C0000884216D03048808844F23551884210D04E
:100C10002D488088091F88420BD02B4880884BF2D2
:100C20000551884205D0284880884CF205518842F9
:100C300001D1204679E72448808849F24131884231
:100C40000BD02148808845F21031884205D01E48DB
:100C5000808845F21051884207D1E012C002B912D3
:100C600040EA411040EAE8205FE72046FFF768FECF
:100C70005BE700B51448808849F24131884211D0C1
:100C80001148808846F6040188420BD00E488088BF
:100C900045F21031884205D00B48808841F6631137
:100CA000884203D12920FFF715FE14E0064880880A
:100CB00045F21051884209D14FF42450FFF70AFE43
:100CC00009E000007E00006C6815002040F27311FE
:100CD0000720FFF71AFE00BD00B5FD48808849F2E5
:100CE0004131884211D0FA48808846F60401884292
:100CF0000BD0F748808845F21031884205D0F4487F
:100D0000808841F66311884203D12820FFF7E2FD75
:100D10000EE0EF48808845F21051884204D14FF42C
:100D20002050FFF7D7FD03E000210720FFF7EDFD7E
:100D300000BDF0B5054600240027E548807901286C
:100D40000BD1E348808846F60401884205D0E0488C
:100D5000808841F66311884208D1DD488079F0B976
:100D6000DB48808841F66311884218D1082D15D2DE
:100D7000DFE805F00406080A0C0E101206250DE047
:100D800007250BE0042509E0052507E0012505E01E
:100D9000002503E0032501E0022500BF00BFCC4889
:100DA000808849F24131884217D0C948808846F688
:100DB0000401884211D0C648808845F2103188422B
:100DC0000BD0C348808845F21051884205D0C048F6
:100DD000808841F6631188427ED1082D1CD2DFE85D
:100DE00005F00406090C0F12151800BF14E044F0BA
:100DF000800411E044F040040EE044F0C0040BE035
:100E000044F0200408E044F0600405E044F0A0044D
:100E100002E044F0E00400BF00BFAD48808845F226
:100E20001051884202D14FF4585700E03627A848A5
:100E3000808845F2103188420DD0A548808845F25F
:100E40001051884207D0A248808841F66311884239
:100E500001D044F008049E48808846F60401884288
:100E600001D144F0020421463846FFF74EFD984870
:100E7000808841F6631188421DD004F0200068B1DB
:100E80009348008892494988884214DA9048068835
:100E900040888F490880084646800CE08C480088CE
:100EA0008B494988884206DD8948068840888849F8
:100EB0000880084646808648808845F2105188425E
:100EC00054D183494889FFF705FD0020FFF70BFD4A
:100ED0007F494989491C00E077E088B2FFF7FAFCB6
:100EE0000020FFF700FD7A494989891C88B2FFF785
:100EF000F1FC77490988491EC1F30F20FFF7F3FC85
:100F000073494989C91C88B2FFF7E4FC7049097824
:100F1000491EC8B2FFF7E7FC6D498889FFF7DAFC84
:100F20000020FFF7E0FC6A498989491C88B2FFF775
:100F3000D1FC0020FFF7D7FC65498989891C88B25C
:100F4000FFF7C8FC62494988491EC1F30F20FFF72B
:100F5000CAFC5F498989C91C88B2FFF7BBFC5C49A0
:100F60008978491EC8B2FFF7BEFC55E05849488948
:100F7000FFF7B0FC0020FFF7B6FC0020FFF7B3FC42
:100F800053490988491EC1F30F20FFF7ACFC5049B3
:100F90000978491EC8B2FFF7A6FC4D498889FFF7BA
:100FA00099FC0020FFF79FFC0020FFF79CFC4849BC
:100FB0004988491EC1F30F20FFF795FC4449897801
:100FC000491EC8B2FFF78FFC26E0082D1CD2DFE8CF
:100FD00005F004070A0D0F12151844F0300413E051
:100FE00044F0100410E044F020040DE000BF0BE0DA
:100FF00044F0380408E044F0280405E044F0180404
:1010000002E044F0080400BF00BF032744F480540A
:1010100021463846FFF779FCF0BD30B504460D4651
:1010200029462046FFF7A0FCFFF781FC29480088ED
:101030002949088030BD70B504460D46164624483F
:10104000808849F24131884205D02148808845F2A4
:101050001031884214D11E494889FFF73BFC201209
:10106000FFF741FCE0B2FFF73EFC19498889FFF722
:1010700031FC2812FFF737FCE8B2FFF734FC93E0AD
:101080001348808845F21051884227D11049488979
:10109000FFF720FC2012FFF726FC0D494989491C67
:1010A00088B2FFF717FCE0B2FFF71DFC08498889FA
:1010B000FFF710FC2812FFF716FC05498989491C27
:1010C00088B2FFF707FCE8B2FFF70DFC6CE0000008
:1010D00068150020DC0000208000006CFE4880883D
:1010E00041F66311884228D1FB48807920B9FA483B
:1010F0000088401E001B84B2F7494889FFF7EAFBCD
:101100002012FFF7F0FBE0B2FFF7EDFB2012FFF734
:10111000EAFBE0B2FFF7E7FBEF498889FFF7DAFB6C
:101120002812FFF7E0FBE8B2FFF7DDFB2812FFF71C
:10113000DAFBE8B2FFF7D7FB36E0E748808846F6EF
:10114000040188421DD1E4488079012804D1E24895
:101150000088401E001B84B2DF494889FFF7BAFBB4
:101160002012FFF7C0FBE0B2FFF7BDFBDA49888928
:10117000FFF7B0FB2812FFF7B6FBE8B2FFF7B3FBAF
:1011800012E0D5488079012804D1D3480088401E58
:10119000001B84B2D04948892146FFF7B6FBCE49EF
:1011A00088892946FFF7B1FBCB480089CB490880E5
:1011B0004FF0D840A0F8806070BD70B52DED048B65
:1011C0000446BE20FFF786FB0520FFF78CFB204678
:1011D0000CF046FA41EC190B9FEDC10B53EC102BB0
:1011E0000CF08EFA41EC180B0CF0F6F985B228469B
:1011F000FFF779FB0120FFF776FBFF20FFF773FB7A
:101200000020FFF770FB0020FFF76DFBBDEC048BA7
:1012100070BD10B50446002C66D1AF498871F0202E
:1012200008804FF4A07048800846808849F2413118
:1012300088420BD0A848808846F60401884205D031
:10124000A548808845F2103188421AD12C20A24945
:1012500008812A2048812B2088810846808846F60C
:101260000401884205D09C48808845F210318842AC
:1012700006D14FF4A070984908804FF4F070488070
:10128000A1E09548808845F21051884210D14FF472
:101290003050914908814FF4285048814FF42C5028
:1012A00088814FF4F07008804FF4487048808AE0DD
:1012B0008948808841F6631188420DD12C208649E7
:1012C00008812B2048812A2088814FF4F070088003
:1012D0004FF44870488076E022207F490881202022
:1012E0004881212088816EE001207B4988714FF47C
:1012F000A0700880F02048800846808849F241317B
:10130000884205D07448808845F21031884207D160
:101310002C20714908812A2048812B2088813FE0B8
:101320006D48808846F60401884207D12C206A491E
:1013300008812B2048812A20888131E066488088F6
:1013400045F21051884210D14FF430506249088163
:101350004FF4285048814FF42C5088814FF4487046
:1013600008804FF4F07048801AE05B48808841F6AE
:10137000631188420DD12C20574908812A204881C9
:101380002B2088814FF4487008804FF4F07048801B
:1013900006E02220504908812120488120208881B0
:1013A0004D48808846F60401884205D04A48808826
:1013B00045F21031884206D14FF4F070464908805A
:1013C0004FF4A07048800020FFF7B3FC10BD2DE95A
:1013D000F04F86B004460D469046994604EB08004F
:1013E000401E86B205EB0900401E87B23A4880884D
:1013F00049F24131884215D03748808845F2103192
:1014000088420FD03448808846F60401884209D0CB
:1014100031488079012826D12F48808841F6631110
:10142000884220D12C494889FFF754FA2012FFF74F
:101430005AFAE0B2FFF757FA3012FFF754FAF0B257
:10144000FFF751FA24498889FFF744FA2812FFF779
:101450004AFAE8B2FFF747FA3812FFF744FAF8B24F
:10146000FFF741FAC1E01C48808841F663118842C9
:101470003DD119480088A0EB0800001B84B205EBA1
:101480000900401E1FFA80F913494889FFF722FA24
:101490002012FFF728FAE0B2FFF725FA04EB080163
:1014A000491EC1F30F20FFF71EFA04EB0801491E85
:1014B000C8B2FFF718FA08498889FFF70BFA281213
:1014C000FFF711FAE8B2FFF70EFA4FEA2920FFF70B
:1014D0000AFA09F0FF0007E0681500207E00006CA2
:1014E0006666666666660440FFF7FDF97DE0FE48C5
:1014F000808845F21051884244D1FB494889FFF762
:10150000E9F92012FFF7EFF9F7494989491C88B238
:10151000FFF7E0F9E0B2FFF7E6F9F3494989891CE2
:1015200088B2FFF7D7F93012FFF7DDF9EE494989A4
:10153000C91C88B2FFF7CEF9F0B2FFF7D4F9EA4937
:101540008889FFF7C7F92812FFF7CDF9E64989899D
:10155000491C88B2FFF7BEF9E8B2FFF7C4F9E249C7
:101560008989891C88B2FFF7B5F93812FFF7BBF9F2
:10157000DD498989C91C88B2FFF7ACF9F8B2FFF7D9
:10158000B2F932E0D848807901280ED1AA46BB468C
:10159000D5480088801B401E80B20190D248008848
:1015A000001B401E80B2009003E0A246B3460195A6
:1015B0000097502005905120049052200390532012
:1015C000029051460598FFF7A0F959460498FFF795
:1015D0009CF901990398FFF798F900990298FFF791
:1015E00094F929462046FFF7BFF906B0BDE8F08F11
:1015F00070B504460026BC48058840884543BA4873
:10160000808846F60401884216D1B74880790128BF
:1016100012D10020B44988712A2048812B2088816A
:1016200000210846FFF7A0F90120AF4988712B205F
:1016300048812A20888103E000210846FFF794F9B9
:10164000FFF775F9002602E0A8480480761CAE4238
:10165000FAD370BD00B5A1B00020209001217A20FE
:1016600007F0BAFA0121084607F0EEFA4FF40040FD
:101670001E9001208DF87C0000208DF87E00022055
:101680008DF87D0001208DF87F001EA9984806F096
:1016900021FD4CF233701E9002208DF87C0000205A
:1016A0008DF87E0003208DF87D0001208DF87F00ED
:1016B0001EA9904806F00EFD4FF680701E90022085
:1016C0008DF87C0000208DF87E0003208DF87D00D1
:1016D00001208DF87F001EA9874806F0FBFC4FF41F
:1016E00080501E9002208DF87C0000208DF87E0036
:1016F00003208DF87D0001208DF87F001EA97F4812
:1017000006F0E8FC4FF480501E9002208DF87C001B
:1017100000208DF87E0003208DF87D0001208DF8DB
:101720007F001EA9764806F0D5FC0C2200217148E6
:1017300006F05BFD0C2201216E4806F056FD0C22DE
:1017400004216C4806F051FD0C220521694806F081
:101750004CFD0C220821674806F047FD0C220921A8
:10176000644806F042FD0C220A21624806F03DFD65
:101770000C220E215F4806F038FD0C220F215D4837
:1017800006F033FD0C2207215B4806F02EFD0C22EB
:101790000821594806F029FD0C220921564806F077
:1017A00024FD0C220A21544806F01FFD0C220B21B7
:1017B000514806F01AFD0C2211464F4806F015FD5F
:1017C0000C220D214C4806F010FD0C220E214A4837
:1017D00006F00BFD0C220F21474806F006FD0C22F7
:1017E0001146464806F001FD0C221146444806F019
:1017F000FCFC0F200890002009903C200A9000205B
:101800000B900C900D900E900920019000200290FA
:101810000820039000200490059006900790062071
:101820000F90002010901190102012900020139023
:1018300015901490169017904FF480501890002037
:1018400019904FF480401A9000201B9008A81C901B
:1018500001A81D900FA806F01CFD0121062006F02E
:10186000A3FD322003F00EFF01210020FFF74DF809
:10187000322003F007FF0020FFF74EF81A49888056
:1018800008468088FF280ADB084680884FF6FF71EB
:10189000884204D014488088B0F5134F7ED1D320FD
:1018A000FFF718F8FFF729F8FFF727F8FFF725F8F3
:1018B0000D498880084680884FF6FF7101EA0020B4
:1018C00009498880FFF719F80749898808430649BC
:1018D00088800846808849F2413188427CD0BF2008
:1018E000FEF7F8FF0EE00000681500208000006C95
:1018F00000040240000C02400010024000140240AC
:1019000000180240FEF7F9FFFEF7F7FFFEF7F5FFBC
:10191000FEF7F3FFF8498880084680884FF6FF718C
:1019200001EA0020F4498880FEF7E7FFF249898840
:101930000843F14988800846808846F604018842B9
:101940004AD0D420FEF7C6FFFEF7D7FFFEF7D5FF3B
:10195000FEF7D3FFE8498880084680884FF6FF717C
:1019600001EA0020E4498880FEF7C7FFE249898840
:101970000843E14988800846808845F21031884252
:101980002AD04FF45A40FEF7A5FFFEF7B6FF4FF4FA
:101990005B40FEF79FFFFEF7B0FF00E01CE0D6497A
:1019A0008880084680884FF6FF7101EA0020D249FE
:1019B00088804FF45C40FEF78DFFFEF79EFFCE4916
:1019C00089880843CC49888008468088B0F5004F54
:1019D00002D145F210508880C748808849F24131D1
:1019E00088427CD1CF20FEF775FF0020FEF77BFFF9
:1019F000C120FEF778FF3020FEF775FFED20FEF7DF
:101A000069FF6420FEF76FFF0320FEF76CFF1220D2
:101A1000FEF769FF8120FEF766FFE820FEF75AFF18
:101A20008520FEF760FF1020FEF75DFF7A20FEF7AD
:101A30005AFFCB20FEF74EFF3920FEF754FF2C2033
:101A4000FEF751FF0020FEF74EFF3420FEF74BFF5C
:101A50000220FEF748FFF720FEF73CFF2020FEF7AC
:101A600042FFEA20FEF736FF0020FEF73CFF002091
:101A7000FEF739FFC020FEF72DFF1B20FEF733FFD6
:101A8000C120FEF727FF0120FEF72DFFC520FEF73E
:101A900021FF3020FEF727FF3020FEF724FFC7206C
:101AA000FEF718FFB720FEF71EFF3620FEF712FFE5
:101AB0004820FEF718FF3A20FEF70CFF5520FEF7EE
:101AC00012FFB120FEF706FF0020FEF70CFF1A20E0
:101AD000FEF709FFB620FEF7FDFE0A2000E097E0C2
:101AE000FEF701FFA220FEF7FEFEF220FEF7F2FE57
:101AF0000020FEF7F8FE2620FEF7ECFE0120FEF7A0
:101B0000F2FEE020FEF7E6FE0F20FEF7ECFE2A20B4
:101B1000FEF7E9FE2820FEF7E6FE0820FEF7E3FECA
:101B20000E20FEF7E0FE0820FEF7DDFE5420FEF753
:101B3000DAFEA920FEF7D7FE4320FEF7D4FE0A20E6
:101B4000FEF7D1FE0F20FEF7CEFE0020FEF7CBFE03
:101B50000020FEF7C8FE0020FEF7C5FE0020FEF7BD
:101B6000C2FEE120FEF7B6FE0020FEF7BCFE152007
:101B7000FEF7B9FE1720FEF7B6FE0720FEF7B3FE0C
:101B80001120FEF7B0FE0620FEF7ADFE2B20FEF77B
:101B9000AAFE5620FEF7A7FE3C20FEF7A4FE052075
:101BA000FEF7A1FE1020FEF79EFE0F20FEF79BFE23
:101BB0003F20FEF798FE3F20FEF795FE0F20FEF730
:101BC00092FE2B20FEF786FE0020FEF78CFE002002
:101BD000FEF789FE0120FEF786FE3F20FEF783FE1A
:101BE0002A20FEF777FE0020FEF77DFE0020FEF79C
:101BF0007AFE0020FEF777FEEF20FEF774FE11203C
:101C0000FEF768FE782003F03DFD2920FEF762FE16
:101C10000020FFF7FEFA0120384908604FF6FF70F8
:101C2000FFF7E6FC21B000BD2DE9F04781460C46E8
:101C300016461F46DDF820A0254613E029464846F3
:101C4000FEF792FEFEF773FE4FF0000806E05046E6
:101C5000FEF749FE08F101001FFA80F8B045F6DBF7
:101C6000681C85B2E019401EA842E7DABDE8F0879B
:101C70002DE9F04782460F4615469846DDF820903C
:101C800000241EE0381981B25046FEF76DFEFEF7C3
:101C90004EFE002611E004FB05604000093019F8F3
:101CA000001004FB05604000083019F8000041EA0C
:101CB000002013490880701C86B2AE42EBDB601C2A
:101CC00084B24445DEDBBDE8F0872DE9FF4F84B0E8
:101CD00081468A460020039002900698A0EB0905F1
:101CE0000798A0EB0A06CDF80490CDF800A0002DCF
:101CF00008DD01270CE0000068150020BC8240428E
:101D00008000006C0DB9002702E04FF0FF376D42F4
:101D1000002E02DD4FF0010806E016B94FF0000872
:101D200002E04FF0FF387642B54201DD2C4600E07C
:101D300034464FF0000B21E0009A91B2019A90B224
:101D4000FFF76BF9039828440390029830440290FF
:101D50000398A04205DD0398001B039001983844C6
:101D600001900298A04205DD0298001B02900098A5
:101D7000404400900BF101001FFA80FB601C83457A
:101D8000DADD08B0BDE8F08FF0B504460D46164622
:101D90001F462B46324629462046FFF796FF3B4614
:101DA000224629462046FFF790FF3B4632463946F9
:101DB0002046FFF78AFF3B46324629463046FFF76A
:101DC00084FFF0BD2DE9F04306460F4690460024FF
:101DD00045460320A0EB48093CE07A1B91B232193A
:101DE00090B2FFF71AF93A1B91B2721990B2FFF74D
:101DF00014F93A1991B2721990B2FFF70EF97A19E3
:101E000091B2321990B2FFF708F97A1991B2321BE8
:101E100090B2FFF702F93A1991B2721B90B2FFF734
:101E2000FCF87A1B91B2321B90B2FFF7F6F83A1B1E
:101E300091B2721B90B2FFF7F0F8641CB9F1000F79
:101E400003DAA000801D814404E0601B80000A309A
:101E500081446D1EAC42C0DDBDE8F0832DE9F04F3A
:101E600080460D4691469A46DDE9096BFC4800889C
:101E7000404503DBFA484088A84202DA0020BDE86A
:101E8000F08F08EB0900401EF5490988884206DCFE
:101E900005EB0A00401EF2494988884201DD002016
:101EA000EDE7002424E0281981B24046FEF75CFDEE
:101EB000FEF73DFD002717E00B982044F17800FB6A
:101EC0000170584440000930315C0B982044F2788E
:101ED00000FB0270584440000830305C41EA0020AA
:101EE000E0490880781C87B24F45E5DB601C84B26E
:101EF0005445D8DB0120C2E72DE9F84F80460D4656
:101F000016461F46DDF82890D5480088404503DB7B
:101F1000D3484088A84202DA0020BDE8F88F08EBD9
:101F20000600401ECE490988884205DCE819401E9B
:101F3000CB494988884201DD0020EEE7002436E0E5
:101F4000281981B24046FEF70FFDFEF7F0FC0E980F
:101F5000604390FBF7F10C98084499F8031048434C
:101F600000904FF0000A1EE00D980AFB00F090FB75
:101F7000F6FB009800EB0B010B9808444000093079
:101F800019F80010009800EB0B020B981044400069
:101F9000083019F8000041EA0020B24908800AF12F
:101FA00001001FFA80FAB245DEDB601C84B2BC423D
:101FB000C6DB0120B1E72DE9FF4F88B015461E466C
:101FC000DDE9169A159C4FF0000BDCE0002007902D
:101FD000D1E019980BFB00F090FBF6F01FFA80F8A7
:101FE00018990798484390FBF5F087B2189907981D
:101FF000484390FBF5F105FB1100281A80B20690CA
:1020000019980BFB00F090FBF6F106FB1100301A5B
:1020100080B205900AEB0800E17800FB01704844AB
:1020200040000930215C0AEB0800E27800FB0270F6
:10203000484440000830205C41EA002104910AEB4A
:102040000800E17800FB01704844401C4000093062
:10205000215C0AEB0800E27800FB02704844401C57
:1020600040000830205C41EA002003900AEB0800A1
:10207000401CE17800FB0170484440000930215CBD
:102080000AEB0800401CE27800FB02704844400064
:102090000830205C41EA002002900AEB0800401C56
:1020A000E17800FB01704844401C40000930215C8D
:1020B0000AEB0800401CE27800FB02704844401C18
:1020C00040000830205C41EA00200190DDE9051065
:1020D0004843DDE903218A1A0299521A01991144F1
:1020E0004143059805FB00F2039802FB0012069895
:1020F00006FB00F1029801FB002205FB06F10698A1
:1021000006FB1011059805FB1011019801FB00203A
:1021100080B2009005FB06F000EBD0714A100099E8
:102120000A4405FB06F192FBF1F189B20091099A8C
:102130005A4491B2DDE907321A4490B2FEF7E5FC49
:102140001A99C1F1FF0148431A9A009901FB020054
:10215000FF2190FBF1F080B20090099A5A4491B2AD
:10216000DDE907321A4490B2009AFEF764FF07983F
:10217000401C80B207900798A842FFF62AAF0BF1E7
:1021800001001FFA80FBB345FFF620AF01200CB021
:10219000BDE8F08F2DE9FC4F81460D4616461F46DF
:1021A000DDF82C802E480088484503DB2C48408809
:1021B000A84202DA0020BDE8FC8F09EB0600401EB1
:1021C00027490988884205DCE819401E24494988C6
:1021D000884201DD0020EEE700243DE0281981B2AD
:1021E0004846FEF7C1FBFEF7A2FB002001902EE05F
:1021F0000F98604390FBF7FB0E990198484390FBC2
:10220000F6FA0D98584498F8031000FB01A10C98B9
:1022100008444000093018F800100D98584498F808
:10222000032000FB02A20C9810444000083018F86C
:10223000000041EA0020009010990098884202D0E6
:102240000849009808800198401C80B201900198CC
:10225000B042CDDB601C84B2BC42BFDB0120AAE7E8
:10226000681500208000006C2DE9F84F80460E466E
:1022700017461C46B3462046E31704EB5373DB10A6
:1022800021464FEAE47C04EB5C7C4FEAEC0CA4EBC7
:10229000CC0CBCF1000F02D04FF0010C01E04FF06C
:1022A000000C6344224604EBD27C4FEA6C0C03FB27
:1022B0000CF3DBB20093A7F12000C7B2002556E073
:1022C0000C2C07D107EB4700FE4901EB800010F80A
:1022D000059013E0102C05D1FB4800EB071010F817
:1022E00005900BE0182C07D107EBC700F74901EB6D
:1022F000800010F8059001E0BDE8F88F4FF0000A6B
:102300002FE009F0800030B1F148028831464046A4
:10231000FEF791FE07E00A9828B9EE480288314698
:102320004046FEF788FE4FEA49604FEA1069701C8C
:1023300086B2E9484088B04200DCDDE7A6EB0B003E
:10234000A0420AD15E4608F101001FFA80F8E24877
:102350000088404500DCCFE706E00AF1010000F00C
:10236000FF0ABAF1080FCCDB00BF681CC5B20098A9
:102370008542A5DB00BFBFE710B50246012000E0A3
:1023800050430B00A1F10104E1B2F9D110BD2DE9D8
:10239000FF4F81B0074691461E460E9D4FF0000A42
:1023A000002439E0301B401EC1B20A20FFF7E4FFD1
:1023B000B9FBF0F00A21B0FBF1F201FB1208BAF10F
:1023C000000F16D1701EA04213DDB8F1000F0ED120
:1023D0000020AB4605EBDB71491001FB0471009056
:1023E00088B22B4620220299FFF73EFF12E04FF001
:1023F000010A0020AB4605EBDB71491001FB0471BB
:10240000009088B208F13001CAB22B460299FFF75A
:102410002BFF00BF601CC4B2B442C3DB05B0BDE8F3
:10242000F08F2DE9FF4F82B0064692461F46DDE948
:102430000F480020019000254DE0781B401EC1B2DE
:102440000A20FFF799FFBAFBF0F00A21B0FBF1F286
:1024500001FB1209019850BB781EA84227DDB9F193
:10246000000F22D108F0800078B108F00100A346E7
:1024700004EBDB71491001FB0561009088B2234633
:1024800030220399FFF7F0FE0EE008F00100A346AA
:1024900004EBDB71491001FB0561009088B2234613
:1024A00020220399FFF7E0FE13E00120019008F0DD
:1024B0000100A34604EBDB71491001FB05610090AC
:1024C00088B209F13001CAB223460399FFF7CCFE66
:1024D00000BF681CC5B2BD42AFDB06B0BDE8F08FDF
:1024E0002DE9F84704460D4690469946DDE909670F
:1024F00004F0FF0A08EB04001FFA80F809EB05005E
:102500001FFA80F916E0444502DB5446A81985B24B
:102510004D4500DB14E0012000903A78334629460F
:102520002046FFF7A1FE304606EBD07104EB6101B7
:102530008CB27F1C38787E2802DC38782028E2DADA
:1025400000BFBDE8F8872DE9F04F8BB081460C46FF
:102550009246282261A101A808F0B6FD0026BAF132
:102560000A0F0AD1B9F1000F07DAC9F100072D22CD
:102570003046711C8EB2225400E04F4600BFB7FBBC
:10258000FAF00AFB107001A90A5C3046711C8EB289
:102590002254B7FBFAF7002FF1D10020A055207884
:1025A0002D2802D14FF0010801E04FF00008454608
:1025B0000DE014F805B0701E4044401B205C6055CF
:1025C000701E4044401B04F800B0681C85B2701EA9
:1025D00000EBD071B5EB610FEBDD20460BB0BDE831
:1025E000F08F10B504460A2246492046FFF7ABFF9C
:1025F000444810BD10B52DED048BB0EE408A18EEA6
:10260000100A0BF073FB41EC190B53EC192B3EA194
:102610003F4808F065FC3E4808F02BFD401EC4B260
:1026200012E03B48005D302803D1002038490855AE
:1026300008E03748005D2E2803D1002034490855B2
:1026400004E003E0601EC4B2002CEADC00BF3048A6
:10265000BDEC048B10BD10B52DED028B0446204659
:102660000AF0AAFAB0EE408AF0EE608A51EC180B3C
:102670000AF000FD00EE100ABDEC028B10BD10B593
:102680002DED0A8BB0EE408A18EE100A0BF02EFBEF
:1026900041EC1C0BB0EE4C0AF0EE6C0A0AF0B4FAF6
:1026A000B0EE40AAF0EE60AA18EE100A0BF01EFB86
:1026B00041EC1B0B53EC1A2B0BF02EFA41EC190BCF
:1026C00028E00000E2DE000856E3000846E90008C2
:1026D000DC000020DE00002068150020303132339D
:1026E0003435363738394142434445464748494AEC
:1026F0004B4C4D4E4F505152535455565758595AB2
:102700000000000076150020252E33660000000032
:102710008A1500209FED490B53EC102B0BF0EEF8BF
:1027200007D2BCEEC80A10EE100A80B2BDEC0A8BCC
:1027300010BDB6EE000A38EE000ABCEEC00A10EE7C
:10274000100A80B2F2E72DE9F04F2DED028B83B035
:1027500005468946B0EE408AB0EE480AFFF74AFFC8
:102760000646304608F085FCC0B20290A846CDF877
:10277000049000203349088000245AE008F10F003B
:102780001FFA80F8DDF80490454600274DE0305DE3
:1027900030280CDB305D392809DC305D3038C0EB87
:1027A0000010294901EB800010F807B00DE0305D02
:1027B0002E2803D1254810F807B006E0305D2D28FB
:1027C00003D12248783010F807B04FF0000A26E015
:1027D0000BF0010018B149462846FEF71EFC4FEAEF
:1027E0006B0B681C85B21A484088A84204DC03B011
:1027F000BDEC028BBDE8F08FA5EB08000F280AD1D5
:10280000454609F101001FFA80F911480088A842E5
:1028100000DCECE706E00AF1010000F0FF0ABAF183
:10282000080FD5DB00BF781CC7B23C2FAFDB601CA4
:10283000C4B202988442A1DB00BFD8E700000000C8
:102840000000E03FDC000020A2F60008FAF80008D3
:1028500068150020002100BF14E000F080021AB1CA
:102860000122FA4B1A6002E00022F84B1A6042067D
:10287000100E0022F64B1A600122F64BC3F880229C
:102880004A1CD1B20829E8DB704770B5064600251E
:1028900000240020EE490860EF49C1F8AC02EF497E
:1028A00008603046FFF7D6FF062002F0A3FE0020A6
:1028B000E849C1F88002012002F09CFE0120E449B1
:1028C00008600020E349C1F8800200BF12E04FF623
:1028D000FF7000EA44040020DD4908600120DD4962
:1028E000C1F88002DA487838006808B1601C84B208
:1028F000681CC5B2102DEADB24110120D7490860FD
:10290000204670BD2DE9FE4380460027002406E0E6
:102910004046FFF7BAFF2DF81400601C84B2052C66
:10292000F6DB002416E0601C85B20FE03DF81400D1
:102930003DF81510884207DD3DF814603DF815009C
:102940002DF814002DF81560681C85B2052DEDDBFF
:10295000601C84B2042CE6DB0027012405E03DF86E
:102960001400384487B2601C84B2042CF7DB0320C7
:1029700097FBF0F086B23046BDE8FE832DE9F041CA
:1029800004460D46B6480078FFF7BCFF0646B5483A
:102990000078FFF7B7FF074626802F800120BDE8AB
:1029A000F0817FB504460D4602A903A8FFF7E6FFB4
:1029B000064616B9002004B070BD694601A8FFF7AD
:1029C000DDFF06460EB90020F5E7BDF80400BDF8AE
:1029D0000C10884206DCBDF80C10BDF80400323043
:1029E00081420CDBBDF80C00BDF80410884236DCD7
:1029F000BDF80410BDF80C00323081422FDABDF86A
:102A00000000BDF80810884206DCBDF80810BDF8CB
:102A10000000323081420CDBBDF80800BDF8001028
:102A200088421CDCBDF80010BDF80800323081423D
:102A300015DABDF80C10BDF80420881800EBD07131
:102A4000C1F34F012180BDF80810BDF8002088189F
:102A500000EBD071C1F34F0129800120ABE70020CA
:102A6000A9E770B504460D4616467F48068004F176
:102A70000D018AB2193988B22B462946FFF725F98C
:102A800005F10D0083B2193881B222462046FFF7C6
:102A90001CF96A1C91B2621C90B2FEF7BEFA6A1C65
:102AA00091B2621E90B2FEF7B8FA6A1E91B2621C31
:102AB00090B2FEF7B2FA6A1E91B2621E90B2FEF7B1
:102AC000ACFA062229462046FFF77CF970BD70B5A6
:102AD00004460D4616466448068029462046FEF701
:102AE0009CFA611C88B22946FEF797FA681C81B2ED
:102AF0002046FEF792FA6A1C91B2621C90B2FEF771
:102B00008CFA70BD10B52DED088B044650487C380A
:102B10000068002873D12CB15449A1F10A00FFF7D5
:102B200040FF59E05149A1F10A00FFF73AFFE8B32D
:102B30004E491639B1F938000AF07BFD41EC190B0A
:102B40004A49163988890AF08BFD41EC1B0B47482E
:102B5000163890ED0A1BB0EE410AF0EE610A53EC14
:102B6000102B51EC1B0B0AF0CBFD41EC1A0B53EC74
:102B7000192B0AF0B1FA41EC180B0AF02DFD3B4974
:102B800016398881B1F93A000AF053FD41EC190B6E
:102B900036491639C88A0AF063FD41EC1B0B3348ED
:102BA000163890ED0C1BB0EE410A00E014E0F0EE98
:102BB000610A53EC102B51EC1B0B0AF0A1FD41EC08
:102BC0001A0B53EC192B0AF087FA41EC180B0AF098
:102BD00003FD26491639C8822448163890F820008B
:102BE00000F0800040BBC0202049163981F8200049
:102BF000084681898182C18AC1831DE0FFE71B48A5
:102C0000163890F8200000F0800050B117481638B0
:102C100090F8200020F080001449163981F8200037
:102C20000AE00021114816388182C1834FF6FF70F7
:102C30000E4916398881C8820C48163890F8200051
:102C400000F08000BDEC088B10BD0000AC82424259
:102C5000808240420080404200804242B4024142B1
:102C60002001002021010020DC000020F6000020CF
:102C700010B52DED028BFE4890ED0A1BB0EE410A17
:102C8000F0EE610A9FEDFB1B53EC112B51EC100B86
:102C90000AF036FD41EC180B0AF06EFC04460422E3
:102CA0002146282001F03AF9F14890ED0C1BB0EED6
:102CB000410AF0EE610A9FEDEF1B53EC112B51EC32
:102CC000100B0AF01DFD41EC180B0AF055FC0446F0
:102CD000042221462C2001F021F9E548B0F93810F2
:102CE0000222302001F01AF9E148B0F93A1002222C
:102CF000322001F013F9DE4890F83C10342001F046
:102D0000E5F80A242146352001F0E0F8BDEC028BFD
:102D100010BD70B5352001F0ADF804460A2C50D135
:102D20000421282001F00FF9044600EE104AB8EE05
:102D3000C00ADFEDD20A80EE201A11EE105A2846A2
:102D40000AF0D4FFCA4AC2E90A0104212C2001F08A
:102D5000FAF8044600EE104AB8EEC00ADFEDC70AE2
:102D600080EE201A11EE105A28460AF0BFFFC04A22
:102D7000C2E90C010221302001F0E5F800B2BC49A3
:102D800008870221322001F0DEF800B2B8494887F6
:102D9000342001F06FF8B64981F83C00084690F8FD
:102DA0003C0030B19020B6490870D020B549087079
:102DB00005E0D020B24908709020B2490870012087
:102DC00070BD0020FCE72DE9FC5F04460D46174668
:102DD0001E46DDE90EABDDE90C894FF47840AA49C7
:102DE0000880AAA01021CDE90010A94843880288D4
:102DF000A0212820FFF774FBA6A01021CDE9001028
:102E0000A34843880288A0217820FFF769FBA2A08D
:102E10001021CDE900109E4843880288B421282063
:102E2000FFF75EFB9DA01021CDE900109848438874
:102E30000288B4217820FFF753FB99A01021CDE937
:102E40000010934843880288C8212820FFF748FBD8
:102E500094A01021CDE900108D4843880288C82134
:102E60007820FFF73DFB90A01021CDE900108848A5
:102E700043880288DC212820FFF732FB8BA0102139
:102E8000CDE90010824843880288DC217820FFF7D2
:102E900027FB87A01021CDE900107D4843880288D8
:102EA000F0212820FFF71CFB84A01021CDE90010A1
:102EB0007748438802884FF482712820FFF710FB7F
:102EC000102004232246A02100904020FFF75FFA43
:102ED000102004232A46A02100909020FFF757FAE3
:102EE000102004233A46B42100904020FFF74FFA07
:102EF000102004233246B42100909020FFF747FAB7
:102F0000102004234246C82100904020FFF73FFADA
:102F1000102004234A46C82100909020FFF737FA7A
:102F2000102004235246DC2100904020FFF72FFAA6
:102F3000102004235A46DC2100909020FFF727FA46
:102F4000102003230090F0216820109AFFF71FFA49
:102F50001020032300904FF482716820119AFFF72C
:102F600016FABDE8FC9F10B52DED0A8B84B040F237
:102F7000AF10ADF800004FF4C470ADF8020040F699
:102F80004460ADF804004FF4CF71ADF8061040F284
:102F90000720ADF8080040F6C951ADF80A1040F618
:102FA0000A60ADF80C0040F6EC51ADF80E10BDF81B
:102FB0000400BDF80010401A00EE100AF8EEC00A36
:102FC00033480088283800EE100AB8EEC00A80EEB8
:102FD000201A11EE104A20460AF088FE244AC2E95F
:102FE0000A01BDF80410BDF8002088180AF021FB82
:102FF00041EC1C0B1E4890ED0A1BB0EE410AF0EEAE
:10300000610A53EC102B51EC1C0B0AF079FB41ECDC
:103010001A0B1F4908880AF023FB41EC1B0B53ECE9
:103020001A2B0AF079FD41EC190B9FED270B53EC9D
:10303000102B0AF00DF941EC180B0AF09DFA00B2C2
:103040000B490887BDF80A00BDF80210401A00EECF
:10305000100AF8EEC00A0E484088283800EE100A20
:10306000B8EEC00A80EE201A11EE104A20462FE07A
:10307000E00000200000000084D7974120BCBE4C37
:103080002001002021010020DC00002078313A00DE
:103090006815002079313A0078323A0079323A00E6
:1030A00078333A0079333A0078343A0079343A0088
:1030B000786661632069733A000000007966616395
:1030C0002069733A0000000000000000000000408A
:1030D0000AF00CFEFD4AC2E90C01BDF80A10BDF869
:1030E000022088180AF0A5FA41EC1C0BF74890ED75
:1030F0000C1BB0EE410AF0EE610A53EC102B51ECC0
:103100001C0B0AF0FDFA41EC1A0BF14948880AF051
:10311000A7FA41EC1B0B53EC1A2B0AF0FDFC41EC17
:10312000190B1FED170B53EC102B0AF091F841EC23
:10313000180B0AF021FA00B2E449488704B0BDEC4C
:103140000A8B10BD00B597B0002012900C90129021
:103150001F20E04908804FF6FF70DF490880FEF726
:1031600047FA4FF47840DB4908804FF6FF70FEF7CE
:103170003FFA0021D7480180D84801681020642315
:10318000A022CDE9000128210846FFF7A9F94FF454
:10319000784214210846FFF764FC0020CB4981F8EF
:1031A00020009FEDCF0B084680ED0A0B36E2C748A2
:1031B00040680B9001200B998847C44890F8200084
:1031C00000F0C00040286FD100200C90BF4890F85C
:1031D000200020F04000BD4981F820000846818988
:1031E00013AA129822F82010B848C18A129802EB4C
:1031F000800041801298401CC0B2129012980128A1
:1032000006D0022815D0032829D0042810D141E087
:103210004FF6FF7214210846FFF723FCAC480088E4
:10322000143880B24FF4784214210B90FFF719FC48
:10323000F0E3A7480088143880B24FF6FF721421DB
:103240000B90FFF70EFCA2484088143880B24FF470
:10325000784201460B901420FFF703FCDAE39C4808
:103260004088143880B24FF6FF7201460B9014204C
:10327000FFF7F7FB96484088143880B20B909448CB
:103280000088143880B24FF478420A900B99FFF707
:10329000E8FBBFE3BDF84C00BDF85010401A0B909E
:1032A000002802DB0B9802E0FEE30B9840420F90EF
:1032B000BDF84E1013A8C088081A0B90002801DB37
:1032C0000B9801E00B9840420E900F9840430F90EE
:1032D0000E9840430E90DDE90E10084407900AF066
:1032E000BFF9CDE908019DED080B09F081FD8DEDD9
:1032F0000A0B9DED0A0B51EC100B0AF06DF980B230
:103300001190BDF85410BDF85800081A0B90002811
:1033100001DB0B9801E00B9840420F9013A8418904
:10332000C089081A0B90002801DB0B9801E00B986C
:1033300040420E900F9840430F900E9840430E90DD
:10334000DDE90E10084407900AF08AF9CDE908017A
:103350009DED080B09F04CFD8DED0A0B9DED0A0B60
:1033600051EC100B0AF038F980B210909DED110A63
:10337000F8EE400A9DED100AB8EE400A80EE801A81
:103380008DED0D1A9DED0D0ADFED570AB4EEE00A42
:10339000F1EE10FA0CD39DED0D0ADFED540AB4EEF8
:1033A000E00AF1EE10FA03DC119808B11098E8BBBE
:1033B0000020129046484088143880B20B90444850
:1033C0000088143880B24FF6FF720A900B99FFF70D
:1033D00048FB4FF4784214210846FFF742FB9DED6D
:1033E0000D0ADFED430A20EE200ABCEEC00A10EE03
:1033F000100A80B29DED0D0ADFED3D0A20EE200A95
:10340000BCEEC00A10EE101A89B213AAD289BDF818
:103410005830CDE90232CDE9041013A84089BDF837
:103420005410CDE9001013A8C08800E00EE00B9006
:10343000BDF850000A90BDF84E000990BDF84C0050
:10344000089009A90EC9FFF7BEFC74E3BDF84C0053
:10345000BDF85410401A0B90002801DB0B9801E0D6
:103460000B9840420F90BDF84E1013A84089081ADF
:103470000B90002801DB0B9801E00B9840420E9066
:103480000F9840430F900E9840430E90DDE90E10C8
:10349000084407900AF0E4F8CDE908019DED080B17
:1034A00009F0A6FC8DED0A0B9DED0A0B51EC100BFB
:1034B0000AF092F880B21190BDF85000BDF8581093
:1034C000401A0B90002815DB0B9815E0E000002057
:1034D00068150020DC000020DE0000202401002010
:1034E00000000000000000003333733F6666863F33
:1034F0000000C8420B9840420F9013A8C188C089B1
:10350000081A0B90002801DB0B9801E00B98404251
:103510000E900F9840430F900E9840430E90DDE9B7
:103520000E10084407900AF09BF8CDE908019DEDC4
:10353000080B09F05DFC8DED0A0B9DED0A0B51ECBB
:10354000100B0AF049F880B210909DED110AF8EEC8
:10355000400A9DED100AB8EE400A80EE801A8DED0B
:103560000D1A9DED0D0A5FED200AB4EEE00AF1EEB2
:1035700010FA08D39DED0D0A5FED240AB4EEE00ABF
:10358000F1EE10FA4BDD00201290FE48408814380E
:1035900080B20B90FB480088143880B24FF6FF725F
:1035A0000A900B99FFF75DFA4FF478421421084610
:1035B000FFF757FA9DED0D0A5FED330A20EE200A62
:1035C000BCEEC00A10EE100A82B29DED0D0A5FED4E
:1035D000380A20EE200ABCEEC00A10EE100A80B2B3
:1035E00013A9C989BDF85830CDE90231CDE90402EB
:1035F00013A84089BDF85410CDE9001013A8C08865
:103600000B90BDF850000A90BDF84E000990BDF82F
:103610004C00089009A90EC9FFF7D5FB8BE2BDF855
:103620005010BDF85400081A0B90002801DB0B98CD
:1036300001E00B9840420F9013A8C1884089081AF6
:103640000B90002801DB0B9801E00B9840420E9094
:103650000F9840430F900E9840430E90DDE90E10F6
:103660000844079009F0FCFFCDE908019DED080B27
:1036700009F0BEFB8DED0A0B9DED0A0B51EC100B12
:1036800009F0AAFF80B21190BDF84C00BDF85810A7
:10369000401A0B90002801DB0B9801E00B98404288
:1036A0000F90BDF84E1013A8C089081A0B9000287F
:1036B00001DB0B9801E00B9840420E900F984043BD
:1036C0000F900E9840430E90DDE90E1008440790CD
:1036D00009F0C6FFCDE908019DED080B09F088FB54
:1036E0008DED0A0B9DED0A0B51EC100B09F074FFE8
:1036F00080B210909DED110AF8EE400A9DED100A7F
:10370000B8EE400A80EE801A8DED0D1A9DED0D0A7F
:103710005FED8B0AB4EEE00AF1EE10FA08D39DEDEE
:103720000D0A5FED8E0AB4EEE00AF1EE10FA4BDD01
:103730000020129093484088143880B20B90914832
:103740000088143880B24FF6FF720A900B99FFF789
:1037500088F94FF4784214210846FFF782F99DED6D
:103760000D0A5FED9D0A20EE200ABCEEC00A10EEA5
:10377000100A80B29DED0D0A5FEDA30A20EE200A2B
:10378000BCEEC00A10EE101A89B213AAD289BDF895
:103790005830CDE90232CDE9041013A84089BDF8B4
:1037A0005410CDE9001013A8C0880B90BDF850004C
:1037B0000A90BDF84E000990BDF84C00089009A988
:1037C0000EC9FFF700FBB6E1BDF85000BDF84C1084
:1037D000401A00EE100AF8EEC00A6A48008828383D
:1037E00000EE100AB8EEC01A81EE200A8DED0B0A29
:1037F0000B980AF07BFA644AC2E90A01BDF850004E
:10380000BDF84C100844019009F013FFCDE9020106
:103810005D4890ED0A0B8DED000B9DED000B53EC18
:10382000102B9DED020B51EC100B09F069FFCDE957
:10383000060154480088039009F012FFCDE9040105
:103840009DED060B53EC102B9DED040B51EC100B72
:103850000AF062F99FED4D0B53EC102BCDE90801F6
:103860009DED080B51EC100B09F0F2FCCDE90A01BB
:103870009DED0A0B51EC100B09F07EFE00B242499F
:10388000088713A84089BDF84E10401A00EE100AB0
:10389000F8EEC00A3B484088283800EE100AB8EE1F
:1038A000C01A81EE200A8DED0B0A0B980AF01EFA61
:1038B000354AC2E90C0113A84089BDF84E100844EE
:1038C000019009F0B6FECDE902012F4890ED0C0BF6
:1038D0008DED000B9DED000B53EC102B9DED020BBD
:1038E00051EC100B09F00CFFCDE90601254840888A
:1038F000039009F0B5FECDE904019DED060B53ECF4
:10390000102B9DED040B51EC100B0AF005F99FED07
:103910001F0B53EC102BCDE908019DED080B51EC6A
:10392000100B09F095FCCDE90A019DED0A0B51EC55
:10393000100B09F021FE00B213494887084690EDAC
:103940000A0B8DED080B9DED080B51EC100B09F0E7
:1039500013FE0A90002801DB0A9801E00A98404211
:1039600002281BDC084890ED0C0B8DED080B9DED3B
:10397000080B51EC100B09F0FFFD0B90002809DB40
:103980000B9809E068150020E0000020000000000E
:10399000000000400B984042022843DD00201290B6
:1039A0008B484088143880B20B90894800881438BE
:1039B00080B24FF6FF720A900B99FFF752F84FF45E
:1039C000784214210846FFF74CF882A01021CDE977
:1039D00000107F4840880B907D4800880A9002467E
:1039E0001A2128200B9BFEF77BFD7F4890F83C00B6
:1039F00008B9012000E000207B4981F83C0008461E
:103A000090F83C0038B1902078490870D02178486F
:103A1000017006E05BE0D020744908709021744882
:103A2000017088E01F20734908804FF6FF70FDF792
:103A3000DFFD71A01021CDE90010654840880B9092
:103A4000634800880A9002466E2123200B9BFEF7F4
:103A500047FD9DED0D0ADFED6E0A20EE200ABCEE5B
:103A6000C00A10EE100A81B29DED0D0ADFED680A62
:103A700020EE200ABCEEC00A10EE100A82B213A893
:103A8000C089BDF85830CDE90230CDE9042113A832
:103A90004089BDF85410CDE9001013A8C0880B90E0
:103AA000BDF850000A9000E012E0BDF84E00099009
:103AB000BDF84C00089009A90EC9FFF784F94FF42E
:103AC0007A7001F0DFFDFFF7D3F817B000BD00BF3B
:103AD0000A2001F0D7FD4F480068401C4D4908609E
:103AE0000846006832281AD300214A4801604A4833
:103AF000006808B9012000E00020474908604748F5
:103B0000D0F8A80208B9012000E000204249091DB0
:103B1000086043A007F0D8F948A007F0D5F90C9841
:103B2000401C80B20C900C98B0F57A7F02DDFFF754
:103B3000F0F802E000BFFFF73ABB00BF00BFC4E7E8
:103B40001CB50121262005F090F8012000908DF889
:103B5000040000208DF8060002208DF8050069465B
:103B60003C4804F0B7FA01213A4804F02FFB4FF427
:103B7000005000906946384804F0ACFA4FF4005108
:103B8000354804F023FB4FF4006000906946334849
:103B900004F0A0FA4FF40061304804F017FB06204F
:103BA000009000208DF8040001208DF80700694680
:103BB000284804F08FFA0C491631A1F10A00FEF7EB
:103BC000DDFE00F053F9FFF7CEF901201CBD000027
:103BD000681500205450204E65656420726561644C
:103BE0006A75737421000000E000002020010020AD
:103BF00021010020DC000020546F756368205363AE
:103C00007265656E2041646A757374204F4B2100A4
:103C10000000C84228010020A482424200804242A3
:103C20000D0A53544D3332BFAAB7A2B0E520B4AE4B
:103C3000BFDACAB5D1E90D0A000000006D637564F2
:103C400065762E74616F62616F2E636F6D200D0A51
:103C50000D0A000000040240000802400014024067
:103C60001CB50121132004F0B7FF0121084605F01F
:103C70000DF801220D217A4804F0B7FA012208213B
:103C8000784804F0B2FA01220E21754804F0ADFA2A
:103C900001220921734804F0A8FA01220F2170487B
:103CA00004F0A3FA01220A216E4804F09EFA0220D1
:103CB0008DF8040000208DF8060002208DF8070022
:103CC0008DF80500000300906946654804F002FA8B
:103CD0004FF4807000906946624804F0FBF94FF49D
:103CE0008040009069465E4804F0F4F94FF400709B
:103CF000009069465B4804F0EDF94FF400400090F5
:103D00006946574804F0E6F94FF480600090694630
:103D1000544804F0DFF91CBD10B58CB004460020F7
:103D2000ADF82400ADF82600601E0A900020ADF822
:103D30002C0009208DF82E0009A94B4805F0A9FD9B
:103D40006020ADF810000120ADF812000420ADF89D
:103D500014000220ADF81C000820ADF81E00002061
:103D6000ADF82000ADF8220004A93F4805F026FE7A
:103D700008213D4805F0AFFF04A93B4805F057FE78
:103D80000821394805F0B0FF04A9374805F09CFE2A
:103D90000821354805F0B5FF0121334805F0E4FD61
:103DA0004FF40060ADF800004010ADF80200801044
:103DB000ADF804000A20ADF806000020ADF80800B8
:103DC000ADF80A004FF48040ADF80C006946264873
:103DD00006F0C0F90121244806F0D5F90121224856
:103DE00005F0E0FD0CB010BD10B5FFF739FF4FF442
:103DF000D260FFF791FF10BD10B501211A4806F0FF
:103E0000C2F910BD10B50021174806F0BCF94FF4F7
:103E10008071144804F0DAF94FF40051104804F0AE
:103E2000D5F94FF400710F4804F0D0F94FF48041F8
:103E30000B4804F0CBF94FF480610A4804F0C6F94E
:103E40004FF40041064804F0C1F910BD10B501213E
:103E5000054806F0D6F90121034806F0E3F910BD44
:103E600000040240000002400000014010B500F0D4
:103E7000BBF810BD70B50446002600F0D8F8254602
:103E8000E11704EB11610912A02202EB4101C8B253
:103E900000F079F900F00CF9E11704EB1161091257
:103EA000A4EB0121C8B200F06EF900F001F900F0B6
:103EB000BEF8A12000F067F900F0FAF8002000F049
:103EC0008FF9064600F0D5F8304670BD70B504464F
:103ED0000E4600F0ACF82546E11704EB116109121B
:103EE000A02202EB4101C8B200F04DF900F0E0F869
:103EF000E11704EB11610912A4EB0121C8B200F033
:103F000042F900F0D5F8304600F03DF900F0D0F865
:103F100000F0AFF80A2001F0B5FB70BD2DE9F041CB
:103F200005460E461746002409E0E20026FA02F292
:103F3000D1B22A1990B2FFF7C9FF601CC4B2BC42CB
:103F4000F3DBBDE8F0812DE9F04107460C46002681
:103F5000002509E036023919491B491E88B2FFF7CE
:103F600089FF0644681CC5B2A542F3DB3046BDE8B4
:103F7000F08110B5FF20FFF77DFF0446552C01D1DD
:103F8000002010BD5521FF20FFF7A0FFFF20FFF705
:103F900071FF0446552C01D10020F2E70120F0E723
:103FA00070B506460C46154608E03046721C96B2BF
:103FB000FFF760FF04F8010B681E85B2002DF4D1F5
:103FC00070BD70B505460C46164606E021782846B9
:103FD000FFF77CFF681C85B2641C3000A6F101016C
:103FE0008EB2F3D170BD00001CB50121022004F097
:103FF000F3FD4FF44060009001208DF80400002094
:104000008DF806008DF8070002208DF8050069463E
:104010008B4804F05FF84FF44061894804F0D6F80B
:104020000120884908608849C1F8A4021CBD10B568
:104030008348006820F440208149086008460068F1
:1040400040F48020086001207E49091D08607E49F7
:10405000C1F8A002042001F0CDFA00207949091D21
:104060000860042001F0C6FA00207749C1F8A002D8
:1040700010BD10B57248006820F4402070490860F7
:104080000846006840F48020086000206D49086000
:104090006D49C1F8A402042001F0ACFA012069497D
:1040A00008606949C1F8A402042001F0A3FA10BD18
:1040B00010B500246248006820F440206049086080
:1040C00008460068086001205E49091D086001F08B
:1040D00091FA01205C49C1F8A00201F08BFA07E0D7
:1040E000601CC4B2FA2C03DDFFF7C3FF012010BD32
:1040F00054487C3800680028F2D15249086000BF5B
:10410000F5E710B500204F4908604D48006820F4DD
:1041100040204B4908600846006840F48020086051
:1041200000204949C1F8A402022001F063FA0120ED
:1041300044490860022001F05DFA00204249C1F8BC
:10414000A00210BD10B500203E4908603C48006840
:1041500020F440203A4908600846006840F4802076
:10416000086001203849C1F8A402022001F042FA97
:10417000012034490860022001F03CFA0020324955
:10418000C1F8A00210BD70B504462D48006820F4A7
:1041900040202B4908600846006840F480200860F1
:1041A000002028490860002517E0E0092549091D7D
:1041B00008606006040E022001F01CFA012022496A
:1041C000C1F8A002022001F015FA00201D49086084
:1041D000022001F00FFA681CC5B2082DE5DB70BDA6
:1041E00070B5054600241648006820F440201449A4
:1041F0000860084600680860002616E000201149A3
:104200000860022001F0F6F901200F49C1F8A00270
:104210006006040E0B487C38006808B1601CC4B20C
:10422000012001F0E7F9701CC6B2082EE6DB15B9D3
:10423000FFF788FF01E0FFF764FF204670BD000034
:1042400000040240A08240420080404200B59BB082
:104250000121084604F0C0FC0121880504F0BCFCE3
:104260000121080204F012FD00BF734806F067FA4E
:104270000028FAD10120199003208DF86800002051
:104280008DF86B0019A96D4803F024FF02201990E6
:1042900019A96A4803F01EFF0420199019A967485C
:1042A00003F018FF0820199019A9644803F012FFC1
:1042B0000121880504F090FC61480190614802905A
:1042C0000020039078200490002005904FF4806037
:1042D000069040000790800008904011099040022D
:1042E0000A9000200B9001200C9000200D900E9061
:1042F0006946514806F09CF90121080204F01BFDB3
:1043000000214FF4807004F016FD04F0E3FF00205C
:104310001590189017904FF48030169015A805F05E
:1043200013F800200F9001208DF840008DF8410017
:10433000002011901290139004208DF850000FA9C6
:104340003F484C3804F0D1FF01231A4600213C4875
:104350004C3805F050F801230222194638484C38F1
:1043600005F049F801230322022135484C3805F0B5
:1043700042F801230422032131484C3805F03BF870
:1043800000212F484C3805F0A1F801212C484C3869
:1043900005F0DCF801212A484C3805F0CCF8012161
:1043A00027484C3804F0E7FF25484C3805F07FF8E3
:1043B0000121214806F076F91BB000BD70B5044616
:1043C0000D46002301222946204605F014F8204618
:1043D00005F06DF800BF0221204605F089F900289C
:1043E000F9D0204605F09FF870BDF0B505460A46A5
:1043F000002300274FF6FF7600240DE0114800EB64
:10440000C40030F81510B14200DA0E46B94200DDA2
:104410000F460B44601CC4B29442EFDB032A06DB58
:10442000F0191B1A901EB3FBF0F080B2F0BDB3FB85
:10443000F2F080B2FAE7000010640240000002408F
:104440004C200140A41500201CB50121102004F0CF
:10445000C3FB0420009000208DF8040003208DF899
:10446000050002208DF807006946484803F032FE37
:10447000082000906946454803F02CFE1CBD0EB58F
:104480000121082004F0F1FB0121080404F0FEFBE7
:104490000121480404F0FAFB4FF6FF700190292037
:1044A000ADF800000020ADF80200ADF808008DF86E
:1044B0000A006946364805F0ECF96946354805F0CA
:1044C000E8F96946344805F0E4F90121304805F07F
:1044D00069FA01212F4805F065FA01212E4805F0FF
:1044E00061FA0EBD10B50021294805F01BFA2948D4
:1044F00005F01CFA00EE100AB8EE400A274880EDDD
:10450000000A0021234805F00DFA042005F0E5FF1C
:1045100010BD10B51E4805F009FA00EE100AB8EEFD
:10452000400A1F4880ED000A1E4890ED000ADFEDAA
:104530001E0A80EE801A1D4880ED001ADFED1C4A2D
:104540009FED1C4ADFED1C3A9FED1C3AF6EE002A67
:104550009FED1B2ADFED1B1A9FED1B1A1B4911480B
:104560000E4A92ED000AF1EE400A104A92ED000A5E
:10457000B1EE400A03F053FA082005F0AEFF10BD7B
:1045800010B5FFF761FFFFF77AFF10BD0010024082
:10459000000C00400040014000440140B8000020F1
:1045A0002C010020AC00002020BC3E4DBC000020AF
:1045B00000803B4500401C46000000000AD7A33C99
:1045C000002474490050C3C70060EAC63C020020C2
:1045D0001FB504460121022004F047FB601E029033
:1045E0000020ADF80400ADF80600ADF80C008DF821
:1045F0000E0001A9FD4805F04CF901221146FB48C7
:1046000005F0E8FD0121F94805F0CCF91D208DF8F1
:10461000000001208DF8010000208DF8020001202B
:104620008DF80300684603F064FC1FBD1FB5044607
:104630000121042004F019FB601E02900020ADF857
:104640000400ADF80600ADF80C008DF80E0001A9CD
:10465000E74805F01EF901221146E54805F0BAFDCC
:104660000121E34805F09EF91E208DF8000001208D
:104670008DF8010000208DF8020001208DF8030064
:10468000684603F036FC1FBD10B50121D74805F080
:10469000B8FD01281DD1D74890ED000ABCEEC00A34
:1046A00010EE101AD44805F0E2FAD44890ED000A52
:1046B000BCEEC00A10EE101ACF4805F0DAFAD04866
:1046C00090ED000ABCEEC00A10EE101ACA4805F0C0
:1046D000D2FA0121C54805F0A5FD10BD10B52DED9C
:1046E0000A8B0121C24805F08CFD01287ED1C54806
:1046F000007800287BD01E210320FFF776FEC249F8
:1047000008801E210220FFF770FEC0490880BE48C5
:10471000008800EE100AB8EE400ADFEDBD0A80EE18
:10472000201A9FEDBC0A21EE000ABB4880ED000A6A
:10473000BA4890ED000AB848D0ED000A30EE200AE1
:10474000B64880ED000A0846008800EE100AB8EE70
:10475000400ADFEDAF0A80EE201A9FEDAE0A21EE8F
:10476000000AAF4880ED000AAE4890ED000AAC4860
:10477000D0ED000A30EE200AAA4880ED000AAA48CF
:10478000007800287DD1A048008800EE100AB8EE1D
:10479000400A9FED9F1AC0EE010AA44890ED000A5E
:1047A0009FED9C1A10EE810A9FEDA11ADFEDA10A80
:1047B00040EE010AA048C0ED000A0846008800EE5D
:1047C000100AB8EE400A9FED921AC0EE010A9B480B
:1047D00090ED000A9FED8F1A10EE810A9FED941A5A
:1047E000DFED940A40EE010A954801E0FEE3FEE3A6
:1047F000C0ED000A904890ED000A9148D0ED000A03
:1048000030EE200AB1EE400A8E4880ED000A8A4858
:1048100090ED000A8C48008800EB40018B4800684E
:104820000C3000EB810080ED000A854890ED000A15
:104830008548008800EB4001844800680C3000EB9C
:10484000810080ED010A7F4890ED000A7E480088D3
:1048500000EB40017D4800680C3000EB810080EDEA
:10486000020A79480088401C77490880744890ED16
:10487000000A7148D0ED000AB0EE001A01EE200ADD
:1048800000E017E0DFED720A20EE200A714880EDAB
:10489000000A6C4890ED000A6948D0ED000AB0EEBD
:1048A000001A01EE200ADFED6A0A20EE200A6A48AB
:1048B00080ED000A604890ED000A68486849097870
:1048C00000EB810080ED000A65480078401C6449D7
:1048D0000870084600780A2801D100200870614855
:1048E0000078401C5F490870084600780A2801D10A
:1048F0000020087059485A49097800EB810090ED72
:10490000000ADFED590AB4EEE00AF1EE10FA6CDDB0
:1049100052485449097800EB810090ED000ADFED20
:10492000530AB4EEE00AF1EE10FA5ED25048006885
:1049300008B9012000E000204D49086000204249EC
:1049400008804C4890ED000A4B48D0ED000A80EEFC
:10495000201A11EE104A204609F0C8F941EC190B53
:10496000B0EE490AF0EE690A08F042FAB0EE408A69
:10497000F0EE608A51EC180B08F07CFB3F490860B0
:104980003F4890ED000A3C48D0ED000A80EE201A26
:1049900011EE104A204609F0A9F941EC190BB0EECE
:1049A000490AF0EE690A08F023FAB0EE408AF0EE08
:1049B000608A51EC180B08F05DFB32490860324800
:1049C00090ED000A2C48D0ED000A80EE201A11EE7E
:1049D000104A204609F08AF941EC190BB0EE490A59
:1049E000F0EE690A08F004FA50E0BAE00004004072
:1049F000000800409C00002000000140A0000020B2
:104A0000A400002092000020360100203401002084
:104A1000000080459643534090010020AC010020E7
:104A200098010020B401002028020020B0010020DD
:104A3000355EC541A301BC3D8C010020B8010020BA
:104A4000940100209C0100208801002084000020A7
:104A5000ABAAAABEA0010020A40100209416002049
:104A60008B0100208A01002017B7D13817B7D1B8C1
:104A7000A4824242F40100200C0200201002002017
:104A8000F801002014020020FC010020B0EE408A52
:104A9000F0EE608A51EC180B08F0ECFAFE49086061
:104AA000FE4890ED000AFE48D0ED000A80EE201A84
:104AB00011EE104A204609F019F941EC190BB0EE3D
:104AC000490AF0EE690A08F093F9B0EE408AF0EE78
:104AD000608A51EC180B08F0CDFAF2490860F248F0
:104AE00090ED000AEE48D0ED000A80EE201A11EE9B
:104AF000104A204609F0FAF841EC190BB0EE490AC9
:104B0000F0EE690A08F074F9B0EE408AF0EE608ABF
:104B100051EC180B08F0AEFAE44908609FEDE40A86
:104B2000E44880ED000A9FEDE20AE34880ED000AC8
:104B30009FEDDF0AE14880ED000A9FEDDD0AD748CE
:104B400080ED000A9FEDDA0AD74880ED000A9FED5C
:104B5000D80ADB4880ED000A9FEDD50AD04880EDE9
:104B6000000AD8480088401CD6490880D64890EDF5
:104B7000000A60EE000ACF4890ED000A1FED461AC9
:104B800000EE810A80ED000AD04890ED000A60EE48
:104B9000000AC94890ED000A1FED4D1A00EE810A87
:104BA00080ED000ACA4890ED000A60EE000AC34892
:104BB00090ED000A1FED541A00EE810A80ED000A04
:104BC000C44890ED000A60EE000AB44890ED000A77
:104BD0001FED5B1A00EE810A80ED000ABE4890EDE1
:104BE000000A60EE000AB04890ED000A1FED621A5C
:104BF00000EE810A80ED000AA94890ED000A5FED01
:104C0000660A30EE200A80ED000AAF4890ED000AF7
:104C1000AE48D0ED000AB14880ED000A9FEDB01A11
:104C200020EE011ADFEDAF1A01EEA01AAE4880EDBA
:104C3000001A00BFA94890ED008AAB48D0ED008A69
:104C4000AA4890ED000AFDF71AFDA94931F81000B5
:104C5000A0F5527000EE100AB8EEC00ADFEDA50A0A
:104C600080EE209AA14890ED000AFDF708FDA249C8
:104C700031F81000A0F5527000EE100AB8EEC00A2C
:104C8000DFED9C0AC0EE209A28EE290A08EE890A78
:104C90009A4880ED000AB1EE480A20EE090A08EEB3
:104CA000A90A974880ED000A00BF904890ED000ADD
:104CB000F1EE080A30EE200A80ED000A90ED000ABD
:104CC000B5EEC00AF1EE10FA06D290ED000ADFED63
:104CD0008D0A30EE200A13E0844890ED000ADFEDE3
:104CE000890AB4EEE00AF1EE10FA06DB90ED000A54
:104CF000DFED840A30EE600A02E07C4890ED000AA5
:104D00007A4880ED000A7D4890ED000A7E4880EDEB
:104D1000000A7B4890ED000A7C4880ED000A7C4840
:104D2000007890B3DFED624A9FED7A4ADFED603A9A
:104D30009FED793ADFED782A9FED782ADFED781A3A
:104D40009FED781A78497948DFED790A6B4A92ED40
:104D5000000A02F064FEFEEE004A9FED6E4ADFEDAF
:104D6000543A9FED6D3ADFED6C2A9FED6C2ADFED32
:104D70006C1A9FED6C1A6F496F48DFED4D0A604A5F
:104D800092ED000A02F04BFE0AE0FFE7B6EE000AE1
:104D9000664880ED000A9FED460A674880ED000AEC
:104DA000624890ED008A6448D0ED008A4F4890ED4B
:104DB000000AFDF764FC4E4931F81000A0F552706E
:104DC00000EE100AB8EEC09A484890ED000AFDF7D0
:104DD00056FC494931F81000A0F5527000EE100A57
:104DE000F8EEC09A28EE290A08EEC90A3B4880ED81
:104DF000000A28EE090A08EEA90A3B4880ED000ADD
:104E000000BF36480468384890ED008A4B4804607B
:104E10009FED4B0A28EE000A10EE101A084608F023
:104E200065FF41EC1A0B204608F060FF41EC1C0BBB
:104E30009FED440B53EC102B08F062FC41EC1B0B74
:104E400053EC1A2B08F048F941EC190B08F012F951
:104E50003E49086000BF394890ED000A0846D0ED91
:104E6000000A30EE200AB1EE400A394880ED000A0F
:104E7000324890ED000ADFED1F0A30EE200A80ED87
:104E8000000A084690ED000ADFED1A0A30EE200A0B
:104E900080ED000A2E485DE018020020000200208C
:104EA0000C0200201C02002004020020200200202E
:104EB00000000000F4010020F8010020FC010020A7
:104EC0000802002086010020A0010020A40100208B
:104ED000A80100208C01002094010020D0010020B6
:104EE0003ACD133F3ACD933FD4010020E00100209A
:104EF000A802002000005244080C0020D801002025
:104F0000DC01002000009644EC010020F0010020AC
:104F1000880000203333733F17B751380000C84270
:104F2000000048C20000484238020020E40100208E
:104F300067C49C413C020020E80100209C00002046
:104F4000D7B35D3F000000000000E0BFA0000020DC
:104F5000A400002090ED000A5FED1A0A30EE200A4E
:104F600080ED000A704890ED000ADFED700AB4EEA3
:104F7000E00AF1EE10FA03DD9FED6C0A80ED000A05
:104F8000694890ED000AB5EEC00AF1EE10FA03D2BE
:104F90001FED390A80ED000A654890ED000ADFED4B
:104FA000630AB4EEE00AF1EE10FA03DD9FED5F0A4A
:104FB00080ED000A5E4890ED000AB5EEC00AF1EE01
:104FC00010FA03D21FED460A80ED000A594890ED11
:104FD000000ADFED560AB4EEE00AF1EE10FA03DD46
:104FE0009FED520A80ED000A524801E094E00BE088
:104FF00090ED000AB5EEC00AF1EE10FA2CD21FEDCA
:10500000540A80ED000A27E04B480088401C4A49BA
:1050100008801FED590A494880ED000A1FED5C0A1F
:10502000474880ED000A1FED5E0A464880ED000A01
:105030001FED610A444880ED000A0846008842F2EC
:105040001071884208DD012040490870404802F094
:10505000E1FC01203F4908703F480088401C3E4960
:1050600008800846008840F69F71884254D100208D
:1050700039490880394890ED000AFDF7BBFA04462B
:10508000214637480068083005F0CFFF354890EDDD
:10509000000AFDF7AFFA044621463348006808309D
:1050A00005F0C3FF314890ED000AFDF7A3FA04466E
:1050B00021462F480068083005F0B7FF2D48D0ED95
:1050C000000A2D48008800EE100AB8EE400A80EE73
:1050D000801A1A4880ED001A2848D0ED000A2648A8
:1050E000008800EE100AB8EE400A80EE801A1448DC
:1050F00080ED001A1FED920A1E4880ED000A1FED98
:10510000940A1E4880ED000A0020124908701A49CE
:10511000088001201A49087001211A4805F082F818
:10512000BDEC0A8B10BD00009C0000200000D244A2
:10513000A0000020A400002038010020B0010020C1
:10514000B8010020500100205401002092000020EE
:10515000380200202802002064010020EC01002019
:1051600058000020F00100205C0000201002002008
:1051700060000020AC01002086010020B401002066
:10518000890000200008004000B585B00021BE481D
:1051900005F0C6FC0020ADF800004FF48270ADF8B9
:1051A00002000020ADF80400ADF80600ADF80800DC
:1051B0004FF40070ADF80A003820ADF80C00002064
:1051C000ADF80E000720ADF810006946AE4805F0B6
:1051D000ADFB0121AC4805F0A3FC05B000BD1CB53A
:1051E0000121402003F0F8FCC020009001208DF840
:1051F000040000208DF8060003208DF80500012032
:105200008DF807006946A14802F064FF4FF48070F2
:10521000009000208DF8040001208DF807006946F9
:105220009A4802F057FF00F058F9FFF7ADFF002051
:105230009749086001209749C1F89C021CBD2DE9DF
:10524000F04107460D46164600209149091D0860A9
:10525000384600F029F98046002405E0FF2000F0E0
:1052600023F92855601CC4B2B442F7DB01208849F9
:10527000091D08604046BDE8F0812DE9F041074670
:105280000C46154600208249091D0860384600F08A
:105290000BF98046002605E014F8010B00F004F934
:1052A000701CC6B2AE42F7DB01207949091D0860C7
:1052B0004046BDE8F0811CB577A103C9CDE90001E6
:1052C000102000F067F9052269463020FFF7D5FF6E
:1052D000052269461020FFF7B2FF002406E01DF802
:1052E0000400A52800D003E0601CC4B2052CF6DB46
:1052F00000BF052C01D001201CBD0020FCE770B5CB
:1053000005460C4600206249091D0860284600F049
:10531000CBF80646204600F0C7F801205D49C1F8E9
:105320009C02304670BD70B5044600205849091DE6
:105330000860204600F0B8F8FF2000F0B5F80546F8
:1053400001205449C1F89C02284670BD70B505463D
:10535000102000F01FF900204D4908602022294646
:10536000A020FFF78AFF01204A49C1F8980200BF38
:105370004748783800680028FAD10720FFF7D3FFA4
:10538000044621462720FFF7BAFF04F0100028B199
:10539000FF21E120FFF7B3FF102070BD04F02000D3
:1053A00008B12020F9E7FF20F7E770B50446102088
:1053B00000F0F0F80720FFF7B6FF05462946272042
:1053C000FFF79DFF05F0400050B1202221466120EB
:1053D000FFF735FFFF21E220FFF791FF002070BDAE
:1053E0000120FCE710B500202949086005222C495E
:1053F0002A20FFF742FF01212120FFF780FF012132
:105400002220FFF77CFF28212520FFF778FF2021AD
:105410003120FFF774FF0F212620FFF770FF0F21C7
:105420002020FFF76CFF01201A49C1F8980210BD37
:1054300010B500201649086005221A493020FFF7F0
:105440001CFF052216492A20FFF717FF0121212002
:10545000FFF755FF01212220FFF751FF1A212420D9
:10546000FFF74DFF28212520FFF749FF0F212620B8
:10547000FFF745FF0E212020FFF741FF01200549DE
:10548000C1F8980210BD0000003001400018024031
:105490009802434200004342A5A5A5A5A50000002F
:1054A000B3F90008AEF9000810B5044600BF0221A8
:1054B000414805F0FFFB0028F9D021463E4805F0A1
:1054C000B0FB00BF01213C4805F0F4FB0028F9D0F7
:1054D000394805F0A3FBC0B210BD00B587B001216B
:1054E000084603F079FB0121080303F0CFFB3820C5
:1054F000059002208DF8180000208DF81A00032076
:105500008DF8190001208DF81B0005A92B4802F029
:10551000E1FD05220321294802F067FE052204214E
:10552000264802F062FE05221146244802F05DFE84
:105530000121080303F0FFFB00214FF4805003F02A
:10554000FAFB0020ADF800004FF48270ADF80200C5
:105550000020ADF804000220ADF806000120ADF8EF
:1055600008004002ADF80A003820ADF80C00002019
:10557000ADF80E000720ADF8100069460E4805F0A2
:10558000D5F901210C4805F0CBFAFF20FFF78CFF7D
:1055900007B000BD10B50446074800884FF6C77134
:1055A00008400549088008460088204308800121FA
:1055B000014805F0B5FA10BD00300140000402407A
:1055C00010B504466FF0040002F0E0FCE11704EBB4
:1055D0005171C1F3C701394A11701046007800EBD0
:1055E0004001C1EBC0104FF6FF7101EAC000344921
:1055F000088010BD0146314A12784A434FF0E0233B
:105600005A6100229A611A46126942F001021A6137
:1056100000BF4FF0E022106900F001021AB100F45F
:105620008032002AF5D04FF0E022126922F0010208
:105630004FF0E0231A6100229A6170470146204A28
:1056400012884A434FF0E0235A6100229A611A46B9
:10565000126942F001021A6100BF4FF0E0221069A6
:1056600000F001021AB100F48032002AF5D04FF0A8
:10567000E022126922F001024FF0E0231A610022B9
:105680009A61704770B504464FF4077094FBF0F0D0
:10569000C6B24FF4077094FBF0F100FB114085B2E5
:1056A00005E04FF40770FFF7C9FF701EC6B2002E69
:1056B000F7D115B12846FFF7C1FF70BD2A020020BF
:1056C0002C020020014600BF704700BF3E4A1288EE
:1056D00002F04002002AF9D0C2B23B4B9A807047D8
:1056E00010B586B004460121084603F075FA012181
:1056F000102003F0CBFA02940020ADF80C00ADF8B6
:105700000E00ADF81000ADF814000C20ADF812003A
:1057100002A92D4803F01BFC01212B4803F09FFC3C
:10572000012240F22551284803F04FFD25208DF835
:10573000040003208DF805008DF8060001208DF887
:10574000070001A802F0D5FB06B010BD10B540F26D
:1057500025511D4803F074FD10B31B4803F0AEFC47
:10576000C4B21A48008800F40040C8B9174800883D
:1057700000F4804060B10A2C03D000201349088057
:1057800020E01248008840F400401049088019E0E9
:105790000D2C06D10D48008840F480400B4908804C
:1057A00010E00A480088C0F30D0009490C5407486E
:1057B0000088401C0549088008460088C72801DD8C
:1057C0000020088010BD00000010014034020020BD
:1057D000E416002010B52DED028BFE48006808305D
:1057E000FCF739FFB0EE408A9FEDFB0AB4EEC08AA9
:1057F000F1EE10FA0EDD9FEDF80AB0EE408AB0EE41
:10580000480AFCF7F7FE04462146F24800680830D3
:1058100005F00BFC9FEDF10AB4EEC08AF1EE10FA30
:105820000ED29FEDEE0AB0EE408AB0EE480AFCF7C9
:10583000E1FE04462146E7480068083005F0F5FB24
:10584000BDEC028B10BD10B52DED028BE448006855
:105850000830FCF700FFB0EE408AB5EEC08AF1EEEA
:1058600010FA0ED29FEDDF0AB0EE408AB0EE480A81
:10587000FCF7C0FE04462146D9480068083005F010
:10588000D4FB9FEDD90AB4EEC08AF1EE10FA0EDD1A
:105890009FEDD50AB0EE408AB0EE480AFCF7AAFEAA
:1058A00004462146CE480068083005F0BEFBBDEC3A
:1058B000028B10BD10B52DED028BCC48006808306E
:1058C000FCF7C9FEB0EE408AB5EEC08AF1EE10FAE0
:1058D0000ED29FEDC40AB0EE408AB0EE480AFCF743
:1058E00089FE04462146C1480068083005F09DFB4A
:1058F000B7EE000AB4EEC08AF1EE10FA0EDDB7EE94
:10590000000AB0EE408AB0EE480AFCF773FE044687
:105910002146B6480068083005F087FBBDEC028BD5
:1059200010BD01B598B000201790DEE1179800EB8C
:10593000800101EBC000AE4901EB80011898814263
:105940007ED1179800EB800101EBC000A84901EB64
:10595000800090F83100002872D0179800EB800189
:1059600001EBC000A24901EB800090F83200002852
:10597000F2D0179800EB800101EBC0009C4901EBCD
:105980008000808B1490179800EB800101EBC00021
:10599000974901EB8000C08B1390179800EB8001B2
:1059A00001EBC000924901EB8000008D1290179826
:1059B00000EB800101EBC0008D4901EB8000408DC0
:1059C0001190179800EB800101EBC000884901EBB2
:1059D0008000808C1090179800EB800101EBC000D4
:1059E000834901EB8000C08C0F90179800EB800179
:1059F00001EBC0017E4800EB8100008C0E901798EF
:105A000000EB800101EBC000794901EB8000408C84
:105A10000D90179800EB800101EBC000744901EB79
:105A20008000007E08901C210A220023089800EBC9
:105A300080004000CDE90232049101906D4800E001
:105A40004FE10090DDE91132DDE91310FCF754FA63
:105A50001C21089800EB80004000664ACDE9002038
:105A60000291DDE90F32DDE91310FCF7F7F91C2193
:105A7000089800EB80004000C01D5E4ACDE9002080
:105A800002911299149801441098081A80B2079054
:105A9000DDE90F321399FCF7E1F92721089800EBB3
:105AA00080004000534ACDE90020029111991398DB
:105AB00001440F98081A80B207900146DDE90F32C1
:105AC0001498FCF7CBF92721089800EB80004000E0
:105AD000C01D484ACDE90020029111991398014454
