:020000040800F2
:10000000C8320020918F0008390700083B0700081C
:100010003F070008430700084707000800000000EA
:100020000000000000000000000000004B07000876
:100030004D070008000000004F07000851070008A6
:10004000AB8F0008AB8F0008AB8F0008AB8F0008A8
:10005000AB8F0008AB8F0008AB8F0008AB8F000898
:10006000B9460008E7460008AB8F0008AB8F0008D0
:10007000AB8F0008AB8F0008AB8F0008AB8F000878
:10008000AB8F0008AB8F0008AB8F0008AB8F000868
:10009000AB8F0008AB8F0008AB8F0008AB8F000858
:1000A000AB8F0008CD3F0008AB8F0008AB8F000876
:1000B000AB8F00087B480008CF480008AB8F0008D2
:1000C000AB8F0008AB8F0008AB8F0008AB8F000828
:1000D000AB8F0008E55E0008AB8F0008AB8F00080F
:1000E000AB8F0008AB8F0008AB8F0008AB8F000808
:1000F000AB8F0008AB8F0008AB8F0008AB8F0008F8
:10010000AB8F0008AB8F0008AB8F0008AB8F0008E7
:10011000AB8F0008AB8F0008AB8F0008AB8F0008D7
:10012000AB8F0008AB8F0008AB8F0008AB8F0008C7
:10013000AB8F0008AB8F0008AB8F0008AB8F0008B7
:10014000AB8F0008AB8F0008AB8F0008AB8F0008A7
:10015000AB8F0008AB8F0008AB8F0008AB8F000897
:10016000AB8F0008AB8F0008AB8F0008AB8F000887
:10017000AB8F0008AB8F0008AB8F0008AB8F000877
:10018000AB8F0008AB8F000800F002F800F072F8A7
:100190000AA090E8000C82448344AAF10107DA45E2
:1001A00001D100F067F8AFF2090EBAE80F0013F0C2
:1001B000010F18BFFB1A43F001031847182D010067
:1001C000382D01000A444FF0000C10F8013B13F0E9
:1001D000070408BF10F8014B1D1108BF10F8015BA0
:1001E000641E05D010F8016B641E01F8016BF9D193
:1001F00013F0080F1EBF10F8014BAD1C0C1B09D1EA
:100200006D1E58BF01F801CBFAD505E014F8016B5B
:1002100001F8016B6D1EF9D59142D6D370470000ED
:100220000023002400250026103A28BF78C1FBD8FF
:10023000520728BF30C148BF0B60704766290FF0D6
:100240005C8673290CF0B582002070471FB50FF053
:100250004AFE0CF081FB0400002000210EF074FF28
:10026000401C6060002000210EF058FFE0601FBDC0
:1002700010B510BD0CF0E4FC1146FFF7E7FF00F0ED
:1002800070F90CF063FF03B4FFF7F2FF03BC05F055
:10029000E5FD000010B52DED028B002445E0601C4B
:1002A00000EE100AB8EEC00ADFEDF40A20EE200AD4
:1002B000DFEDF30A80EE201AF0EE418AB0EE680A14
:1002C0000BF008FE9FEDEF1ADFEDEE0A40EE010A9B
:1002D000B0EE608AB0EE480A02F089FAEA4921F8E5
:1002E0001400601C00EE100AB8EEC00ADFEDE30A4D
:1002F00020EE200ADFEDE20A80EE201AF0EE418ABD
:10030000B0EE680A0BF07AFD9FEDDE1ADFEDDD0A34
:1003100040EE010AB0EE608AB0EE480A02F067FAD9
:10032000DA4921F81400601C84B2B4F5966FB6DB8C
:10033000BDEC028B10BD3EB54FF6FF7001F010FA18
:100340000020D34908800880D2A01E236E221421E9
:1003500000900A2008F032FBCF490860CDA01E2390
:100360006E22372100900A2008F028FBCB49086054
:10037000C8A01E236E225A2100900A2008F01EFBFE
:10038000C7490860C9204FF47A711E23C822CDE9FD
:1003900000108221142008F069FAC24908604FF465
:1003A000FA71C048006808F0E1FABFA010210B46BE
:1003B0003C22CDE900100221052002F049F9BDA040
:1003C00010210B460822CDE900101A217D2002F0F1
:1003D0003FF9B8A010210B460822CDE900103D21BD
:1003E0007D2002F035F9B4A010210B460822CDE99A
:1003F000001060217D2002F02BF9B0A01021142301
:100400006422CDE90010A921262002F021F9ACA038
:10041000102114236422CDE90010C421262002F00B
:1004200017F90020A8A2CDE9002023235A220A218F
:1004300002908C2008F07EF9A64908600120002176
:10044000A5A22323CDE9002102905A2237218C2036
:1004500008F070F9A3490860002428E0002523E093
:1004600004EB84006430284480B2002204EB840151
:1004700029449D4B53F82110CDE900120290C4EBA2
:100480004412DF3291B22E2305FB03F2093290B2FF
:100490001923282208F04EF904EB8401934A02EB59
:1004A000810141F825006D1C052DD9DB641C032C4E
:1004B000D4DB01208E49087000208E4908708B49DA
:1004C000C868012106F08BFC88490869032106F001
:1004D00086FC01218348006806F081FC00208649E3
:1004E00008704FF478406A4908803EBD10B58348D3
:1004F000416800208847814890F8200000F0800083
:1005000008B37E4880897E490988884228DA7B487A
:10051000C08A7B494988884222DA7A48007850B9F3
:100520007648C38A82890121002006F022FE01203C
:100530007449087014E07148C38A8289032100203D
:1005400006F017FE0CE06F48007848B16B48C38A8C
:1005500082890221002006F00CFE00206949087003
:1005600010BD2DED028BA82005F0F6FB4FF4A06026
:1005700008F02EFD03F02CFC03F000FD00F0F2F972
:1005800001206149087005F0F6F901F01BF95B499B
:100590000868804703F01AFFFFF77CFE4FF47840AD
:1005A0003B490880FFF7C7FE05F051FA0120574983
:1005B000088042F210705649088041F2680004F049
:1005C00000F941F2680004F02AF903F0C5FC03F0D9
:1005D000D5FC05F0F9FA50E0FFF788FF4D480078A8
:1005E00070B100204B4908702B48006805F0A0FD51
:1005F0002A48006805F09CFD2948006805F098FD30
:1006000045480078002838D0002043490870434806
:1006100000680FF0F7FB41EC180B53EC182B40A1CE
:1006200041480BF0D1FC414800680FF0EBFB41EC76
:10063000180B53EC182B3AA13B4808300BF0C4FCC4
:100640003B4800680FF0DEFB41EC180B53EC182B15
:1006500033A1354810300BF0B7FC364800680FF076
:10066000D1FB41EC180B53EC182B2DA12E48183060
:100670000BF0AAFC2C4805F035FAADE7DA0FC940BB
:10068000000096440000524442030020A20C0020C7
:10069000D000002030000000580000205C00002046
:1006A000600000205400002043757272656E743A39
:1006B0000000000041000000560000004B3A00001E
:1006C00050726F3A000000004F70656E204C6F6FE3
:1006D0007000000040000020436C6F736564204C84
:1006E0006F6F70004400002000000020E402002032
:1006F0007B0000207C00002078000020D800002033
:1007000002160020B800002084000020A80000206D
:10071000AA0000207900002085000020140200209B
:1007200025372E3366000000200300201802002029
:100730001C02002020020020704700BFFEE700BF1F
:10074000FEE700BFFEE700BFFEE770477047704757
:10075000704700000CB500200190009076480068BA
:1007600040F480307449086000BF7348006800F4AA
:10077000003000900198401C0190009818B9019831
:10078000B0F5A04FF1D16C48006800F4003010B112
:100790000120009001E0002000900098012846D13F
:1007A00065484030006840F080506349403108603F
:1007B0006248006840F44040604908605E48083084
:1007C00000685D49083108600846006840F4004050
:1007D00008600846006840F4A05008605848091FA7
:1007E0000860081F006840F08070091F086000BFA3
:1007F0005148006800F000700028F9D040F2057000
:10080000504908604C480830006820F003004A490D
:10081000083108600846006840F00200086000BF28
:1008200045480830006800F00C000828F8D10CBDDD
:1008300010B54548006840F47000434908603E48E0
:10084000006840F001003C49086000203A49083146
:100850000860394800683D490840374908603C480D
:10086000091D0860081F006820F48020091F086027
:10087000002031490C310860FFF76CFF4FF0006039
:1008800031498039086010BD70B500200022022374
:1008900000240221284D08352D6805F00C0020B1F8
:1008A000042806D0082834D107E02A4D2A4E3560A6
:1008B00033E02A4D284E35602FE01F4D2D1D2D6849
:1008C000C5F380541C4D2D1D2D6805F03F0154B11A
:1008D000224DB5FBF1F5184E361D3668C6F3881665
:1008E00005FB06F209E01B4DB5FBF1F5124E361D76
:1008F0003668C6F3881605FB06F20F4D2D1D2D68D0
:10090000C5F301456D1C6B00B2FBF3F5124E35606B
:1009100003E0104D104E356000BF00BF064D083596
:100920002D68C5F303150E4E705D0B4D2D68C54047
:10093000094E356070BD0000003802400070004074
:1009400008544007003C024088ED00E0FFFFF6FE3F
:10095000103000240024F400BC00002000127A00B3
:10096000C00000201CB50121202009F0A9F94FF496
:10097000C060009001208DF8040000208DF8060072
:1009800003208DF8050001208DF8070069462548F1
:1009900008F014FC4FF4C061224808F08BFC0120E1
:1009A00000908DF8040000208DF8060003208DF8DB
:1009B000050002208DF8070069461B4808F0FEFB81
:1009C0000121194808F078FC0420009001208DF8DE
:1009D000040000208DF8060003208DF8050001209A
:1009E0008DF807006946104808F0E8FB04210E481E
:1009F00008F060FC0420009001208DF80400002025
:100A00008DF8060003208DF8050002208DF8070000
:100A10006946064808F0D2FB0421044808F04CFC63
:100A20001CBD000000140240000002400010024003
:100A30000346DB108910D210D80240EA411010435F
:100A400080B2704701B5BDF800000090BDF800000D
:100A5000F849088008BD01B5BDF800000090BDF858
:100A60000000F449891C088008BD08B5F148801CC5
:100A700000880090BDF8000008BDEE4A10804FF0DD
:100A8000D842A2F88010704710B504462046FFF700
:100A9000D9FF052005F07AF9FFF7E7FF10BDE6481A
:100AA0000089E44908807047E249891C0880704742
:100AB00030B5014601F01F04C1F34513CA0AE5022F
:100AC00005EB43151544A8B230BD00BF0100A0F1ED
:100AD0000102D0B2FAD1704730B504460D46D6486F
:100AE000808849F24131884205D0D348808845F258
:100AF0001031884214D1D0494889FFF7A3FF201252
:100B0000FFF7A9FFE0B2FFF7A6FFCB498889FFF7FF
:100B100099FF2812FFF79FFFE8B2FFF79CFFABE0B9
:100B2000C548808846F6040188421DD1C2488079B4
:100B3000012804D1C0480088401E001B84B2BE4971
:100B40004889FFF77FFF2012FFF785FFE0B2FFF72C
:100B500082FFB9498889FFF775FF2812FFF77BFFED
:100B6000E8B2FFF778FF87E0B348808841F6631169
:100B7000884247D1B0488079A8B9AF480088401E64
:100B8000001B84B2AC494889FFF75CFF0020FFF7E7
:100B900062FF0020FFF75FFF2012FFF75CFFE0B26B
:100BA000FFF759FF16E0A4494889FFF74BFF2012D1
:100BB000FFF751FFE0B2FFF74EFF9F490988491E3A
:100BC000C1F30F20FFF747FF9B490978491EC8B2C0
:100BD000FFF741FF98498889FFF734FF2812FFF794
:100BE0003AFFE8B2FFF737FF93494988491EC1F33E
:100BF0000F20FFF730FF90498978491EC8B2FFF7F0
:100C00002AFF39E08C48808845F21051884220D173
:100C100089494889FFF716FF2012FFF71CFF864914
:100C20004989491C88B2FFF70DFFE0B2FFF713FFB7
:100C300081498889FFF706FF2812FFF70CFF7E49DC
:100C40008989491C88B2FFF7FDFEE8B2FFF703FF70
:100C500012E079488079012804D177480088401E45
:100C6000001B84B2744948892146FFF706FF724988
:100C700088892946FFF701FF30BD2DE9F04105467F
:100C80000E4600240027A0466B480088A84203DDDA
:100C900069484088B04202DC0020BDE8F08131465E
:100CA0002846FFF719FF6448808849F2413188429D
:100CB00011D06148808846F6040188420BD05E4816
:100CC000808845F21031884205D05B48808841F623
:100CD0006311884203D12E20FFF7B4FE0DE0564881
:100CE000808845F21051884204D14FF43850FFF704
:100CF000A9FE02E02220FFF7A5FE4F48808849F2B6
:100D00002031884202D10220FFF7DFFEFFF7ADFE5F
:100D100004464948808841F66311884201D1204643
:100D2000BBE70220FFF7D1FEFFF79FFE04464248D3
:100D3000808849F2413188420BD03F48808845F293
:100D40001031884205D03C48808845F210518842D5
:100D50000AD10220FFF7B9FEFFF787FE8046E7B20F
:100D60004FF6FF7000EA07273348808849F22531A3
:100D7000884216D03048808844F23551884210D0DD
:100D80002D488088091F88420BD02B4880884BF261
:100D90000551884205D0284880884CF20551884288
:100DA00001D1204679E72448808849F241318842C0
:100DB0000BD02148808845F21031884205D01E486A
:100DC000808845F21051884207D1E012C002B91262
:100DD00040EA411040EAE8205FE72046FFF768FE5E
:100DE0005BE700B51448808849F24131884211D050
:100DF0001148808846F6040188420BD00E4880884E
:100E000045F21031884205D00B48808841F66311C5
:100E1000884203D12920FFF715FE14E00648808898
:100E200045F21051884209D14FF42450FFF70AFED1
:100E300009E000007E00006C0216002040F27311F1
:100E40000720FFF71AFE00BD00B5FD48808849F273
:100E50004131884211D0FA48808846F60401884220
:100E60000BD0F748808845F21031884205D0F4480D
:100E7000808841F66311884203D12820FFF7E2FD04
:100E80000EE0EF48808845F21051884204D14FF4BB
:100E90002050FFF7D7FD03E000210720FFF7EDFD0D
:100EA00000BDF0B5054600240027E54880790128FB
:100EB0000BD1E348808846F60401884205D0E0481B
:100EC000808841F66311884208D1DD488079F0B905
:100ED000DB48808841F66311884218D1082D15D26D
:100EE000DFE805F00406080A0C0E101206250DE0D6
:100EF00007250BE0042509E0052507E0012505E0AD
:100F0000002503E0032501E0022500BF00BFCC4817
:100F1000808849F24131884217D0C948808846F616
:100F20000401884211D0C648808845F210318842B9
:100F30000BD0C348808845F21051884205D0C04884
:100F4000808841F6631188427ED1082D1CD2DFE8EB
:100F500005F00406090C0F12151800BF14E044F048
:100F6000800411E044F040040EE044F0C0040BE0C3
:100F700044F0200408E044F0600405E044F0A004DC
:100F800002E044F0E00400BF00BFAD48808845F2B5
:100F90001051884202D14FF4585700E03627A84834
:100FA000808845F2103188420DD0A548808845F2EE
:100FB0001051884207D0A248808841F663118842C8
:100FC00001D044F008049E48808846F60401884217
:100FD00001D144F0020421463846FFF74EFD9848FF
:100FE000808841F6631188421DD004F0200068B16A
:100FF0009348008892494988884214DA90480688C4
:1010000040888F490880084646800CE08C4800885C
:101010008B494988884206DD894806884088884986
:101020000880084646808648808845F210518842EC
:1010300054D183494889FFF705FD0020FFF70BFDD8
:101040007F494989491C00E077E088B2FFF7FAFC44
:101050000020FFF700FD7A494989891C88B2FFF713
:10106000F1FC77490988491EC1F30F20FFF7F3FC13
:1010700073494989C91C88B2FFF7E4FC70490978B3
:10108000491EC8B2FFF7E7FC6D498889FFF7DAFC13
:101090000020FFF7E0FC6A498989491C88B2FFF704
:1010A000D1FC0020FFF7D7FC65498989891C88B2EB
:1010B000FFF7C8FC62494988491EC1F30F20FFF7BA
:1010C000CAFC5F498989C91C88B2FFF7BBFC5C492F
:1010D0008978491EC8B2FFF7BEFC55E058494889D7
:1010E000FFF7B0FC0020FFF7B6FC0020FFF7B3FCD1
:1010F00053490988491EC1F30F20FFF7ACFC504942
:101100000978491EC8B2FFF7A6FC4D498889FFF748
:1011100099FC0020FFF79FFC0020FFF79CFC48494A
:101120004988491EC1F30F20FFF795FC444989788F
:10113000491EC8B2FFF78FFC26E0082D1CD2DFE85D
:1011400005F004070A0D0F12151844F0300413E0DF
:1011500044F0100410E044F020040DE000BF0BE068
:1011600044F0380408E044F0280405E044F0180492
:1011700002E044F0080400BF00BF032744F4805499
:1011800021463846FFF779FCF0BD30B504460D46E0
:1011900029462046FFF7A0FCFFF781FC294800887C
:1011A0002949088030BD70B504460D4616462448CE
:1011B000808849F24131884205D02148808845F233
:1011C0001031884214D11E494889FFF73BFC201298
:1011D000FFF741FCE0B2FFF73EFC19498889FFF7B1
:1011E00031FC2812FFF737FCE8B2FFF734FC93E03C
:1011F0001348808845F21051884227D11049488908
:10120000FFF720FC2012FFF726FC0D494989491CF5
:1012100088B2FFF717FCE0B2FFF71DFC0849888988
:10122000FFF710FC2812FFF716FC05498989491CB5
:1012300088B2FFF707FCE8B2FFF70DFC6CE0000096
:1012400002160020D00000208000006CFE4880883C
:1012500041F66311884228D1FB48807920B9FA48C9
:101260000088401E001B84B2F7494889FFF7EAFB5B
:101270002012FFF7F0FBE0B2FFF7EDFB2012FFF7C3
:10128000EAFBE0B2FFF7E7FBEF498889FFF7DAFBFB
:101290002812FFF7E0FBE8B2FFF7DDFB2812FFF7AB
:1012A000DAFBE8B2FFF7D7FB36E0E748808846F67E
:1012B000040188421DD1E4488079012804D1E24824
:1012C0000088401E001B84B2DF494889FFF7BAFB43
:1012D0002012FFF7C0FBE0B2FFF7BDFBDA498889B7
:1012E000FFF7B0FB2812FFF7B6FBE8B2FFF7B3FB3E
:1012F00012E0D5488079012804D1D3480088401EE7
:10130000001B84B2D04948892146FFF7B6FBCE497D
:1013100088892946FFF7B1FBCB480089CB49088073
:101320004FF0D840A0F8806070BD70B52DED048BF3
:101330000446BE20FFF786FB0520FFF78CFB204606
:101340000EF01AFA41EC190B9FEDC10B53EC102B68
:101350000EF062FA41EC180B0EF0CAF985B228467D
:10136000FFF779FB0120FFF776FBFF20FFF773FB08
:101370000020FFF770FB0020FFF76DFBBDEC048B36
:1013800070BD10B50446002C66D1AF498871F020BD
:1013900008804FF4A07048800846808849F24131A7
:1013A00088420BD0A848808846F60401884205D0C0
:1013B000A548808845F2103188421AD12C20A249D4
:1013C00008812A2048812B2088810846808846F69B
:1013D0000401884205D09C48808845F2103188423B
:1013E00006D14FF4A070984908804FF4F0704880FF
:1013F000A1E09548808845F21051884210D14FF401
:101400003050914908814FF4285048814FF42C50B6
:1014100088814FF4F07008804FF4487048808AE06B
:101420008948808841F6631188420DD12C20864975
:1014300008812B2048812A2088814FF4F070088091
:101440004FF44870488076E022207F4908812020B0
:101450004881212088816EE001207B4988714FF40A
:10146000A0700880F02048800846808849F2413109
:10147000884205D07448808845F21031884207D1EF
:101480002C20714908812A2048812B2088813FE047
:101490006D48808846F60401884207D12C206A49AD
:1014A00008812B2048812A20888131E06648808885
:1014B00045F21051884210D14FF4305062490881F2
:1014C0004FF4285048814FF42C5088814FF44870D5
:1014D00008804FF4F07048801AE05B48808841F63D
:1014E000631188420DD12C20574908812A20488158
:1014F0002B2088814FF4487008804FF4F0704880AA
:1015000006E022205049088121204881202088813E
:101510004D48808846F60401884205D04A488088B4
:1015200045F21031884206D14FF4F07046490880E8
:101530004FF4A07048800020FFF7B3FC10BD2DE9E8
:10154000F04F86B004460D469046994604EB0800DD
:10155000401E86B205EB0900401E87B23A488088DB
:1015600049F24131884215D03748808845F2103120
:1015700088420FD03448808846F60401884209D05A
:1015800031488079012826D12F48808841F663119F
:10159000884220D12C494889FFF754FA2012FFF7DE
:1015A0005AFAE0B2FFF757FA3012FFF754FAF0B2E6
:1015B000FFF751FA24498889FFF744FA2812FFF708
:1015C0004AFAE8B2FFF747FA3812FFF744FAF8B2DE
:1015D000FFF741FAC1E01C48808841F66311884258
:1015E0003DD119480088A0EB0800001B84B205EB30
:1015F0000900401E1FFA80F913494889FFF722FAB3
:101600002012FFF728FAE0B2FFF725FA04EB0801F1
:10161000491EC1F30F20FFF71EFA04EB0801491E13
:10162000C8B2FFF718FA08498889FFF70BFA2812A1
:10163000FFF711FAE8B2FFF70EFA4FEA2920FFF799
:101640000AFA09F0FF0007E0021600207E00006C95
:101650006666666666660440FFF7FDF97DE0FE4853
:10166000808845F21051884244D1FB494889FFF7F0
:10167000E9F92012FFF7EFF9F7494989491C88B2C7
:10168000FFF7E0F9E0B2FFF7E6F9F3494989891C71
:1016900088B2FFF7D7F93012FFF7DDF9EE49498933
:1016A000C91C88B2FFF7CEF9F0B2FFF7D4F9EA49C6
:1016B0008889FFF7C7F92812FFF7CDF9E64989892C
:1016C000491C88B2FFF7BEF9E8B2FFF7C4F9E24956
:1016D0008989891C88B2FFF7B5F93812FFF7BBF981
:1016E000DD498989C91C88B2FFF7ACF9F8B2FFF768
:1016F000B2F932E0D848807901280ED1AA46BB461B
:10170000D5480088801B401E80B20190D2480088D6
:10171000001B401E80B2009003E0A246B346019534
:1017200000975020059051200490522003905320A0
:10173000029051460598FFF7A0F959460498FFF723
:101740009CF901990398FFF798F900990298FFF71F
:1017500094F929462046FFF7BFF906B0BDE8F08F9F
:1017600070B504460026BC48058840884543BA4801
:10177000808846F60401884216D1B748807901284E
:1017800012D10020B44988712A2048812B208881F9
:1017900000210846FFF7A0F90120AF4988712B20EE
:1017A00048812A20888103E000210846FFF794F948
:1017B000FFF775F9002602E0A8480480761CAE42C7
:1017C000FAD370BD00B5A1B00020209001217A208D
:1017D00008F076FA0121084608F0AAFA4FF4004012
:1017E0001E9001208DF87C0000208DF87E000220E4
:1017F0008DF87D0001208DF87F001EA9984807F024
:10180000DDFC4CF233701E9002208DF87C0000202D
:101810008DF87E0003208DF87D0001208DF87F007B
:101820001EA9904807F0CAFC4FF680701E90022057
:101830008DF87C0000208DF87E0003208DF87D005F
:1018400001208DF87F001EA9874807F0B7FC4FF4F0
:1018500080501E9002208DF87C0000208DF87E00C4
:1018600003208DF87D0001208DF87F001EA97F48A0
:1018700007F0A4FC4FF480501E9002208DF87C00ED
:1018800000208DF87E0003208DF87D0001208DF86A
:101890007F001EA9764807F091FC0C2200217148B8
:1018A00007F017FD0C2201216E4807F012FD0C22F3
:1018B00004216C4807F00DFD0C220521694807F052
:1018C00008FD0C220821674807F003FD0C220921BE
:1018D000644807F0FEFC0C220A21624807F0F9FC7C
:1018E0000C220E215F4807F0F4FC0C220F215D480A
:1018F00007F0EFFC0C2207215B4807F0EAFC0C2202
:101900000821594807F0E5FC0C220921564807F048
:10191000E0FC0C220A21544807F0DBFC0C220B21CE
:10192000514807F0D6FC0C2211464F4807F0D1FC75
:101930000C220D214C4807F0CCFC0C220E214A4809
:1019400007F0C7FC0C220F21474807F0C2FC0C220D
:101950001146464807F0BDFC0C221146444807F0EA
:10196000B8FC0F200890002009903C200A9000202D
:101970000B900C900D900E90092001900020029089
:101980000820039000200490059006900790062000
:101990000F900020109011901020129000201390B2
:1019A00015901490169017904FF4805018900020C6
:1019B00019904FF480401A9000201B9008A81C90AA
:1019C00001A81D900FA807F0D8FC0121062007F000
:1019D0005FFD322004F022FA01210020FFF74DF8CC
:1019E000322004F01BFA0020FFF74EF81A498880D5
:1019F00008468088FF280ADB084680884FF6FF717A
:101A0000884204D014488088B0F5134F7ED1D3208B
:101A1000FFF718F8FFF729F8FFF727F8FFF725F881
:101A20000D498880084680884FF6FF7101EA002042
:101A300009498880FFF719F807498988084306494A
:101A400088800846808849F2413188427CD0BF2096
:101A5000FEF7F8FF0EE00000021600208000006C88
:101A600000040240000C024000100240001402403A
:101A700000180240FEF7F9FFFEF7F7FFFEF7F5FF4B
:101A8000FEF7F3FFF8498880084680884FF6FF711B
:101A900001EA0020F4498880FEF7E7FFF2498988CF
:101AA0000843F14988800846808846F60401884248
:101AB0004AD0D420FEF7C6FFFEF7D7FFFEF7D5FFCA
:101AC000FEF7D3FFE8498880084680884FF6FF710B
:101AD00001EA0020E4498880FEF7C7FFE2498988CF
:101AE0000843E14988800846808845F210318842E1
:101AF0002AD04FF45A40FEF7A5FFFEF7B6FF4FF489
:101B00005B40FEF79FFFFEF7B0FF00E01CE0D64908
:101B10008880084680884FF6FF7101EA0020D2498C
:101B200088804FF45C40FEF78DFFFEF79EFFCE49A4
:101B300089880843CC49888008468088B0F5004FE2
:101B400002D145F210508880C748808849F241315F
:101B500088427CD1CF20FEF775FF0020FEF77BFF87
:101B6000C120FEF778FF3020FEF775FFED20FEF76D
:101B700069FF6420FEF76FFF0320FEF76CFF122061
:101B8000FEF769FF8120FEF766FFE820FEF75AFFA7
:101B90008520FEF760FF1020FEF75DFF7A20FEF73C
:101BA0005AFFCB20FEF74EFF3920FEF754FF2C20C2
:101BB000FEF751FF0020FEF74EFF3420FEF74BFFEB
:101BC0000220FEF748FFF720FEF73CFF2020FEF73B
:101BD00042FFEA20FEF736FF0020FEF73CFF002020
:101BE000FEF739FFC020FEF72DFF1B20FEF733FF65
:101BF000C120FEF727FF0120FEF72DFFC520FEF7CD
:101C000021FF3020FEF727FF3020FEF724FFC720FA
:101C1000FEF718FFB720FEF71EFF3620FEF712FF73
:101C20004820FEF718FF3A20FEF70CFF5520FEF77C
:101C300012FFB120FEF706FF0020FEF70CFF1A206E
:101C4000FEF709FFB620FEF7FDFE0A2000E097E050
:101C5000FEF701FFA220FEF7FEFEF220FEF7F2FEE5
:101C60000020FEF7F8FE2620FEF7ECFE0120FEF72E
:101C7000F2FEE020FEF7E6FE0F20FEF7ECFE2A2043
:101C8000FEF7E9FE2820FEF7E6FE0820FEF7E3FE59
:101C90000E20FEF7E0FE0820FEF7DDFE5420FEF7E2
:101CA000DAFEA920FEF7D7FE4320FEF7D4FE0A2075
:101CB000FEF7D1FE0F20FEF7CEFE0020FEF7CBFE92
:101CC0000020FEF7C8FE0020FEF7C5FE0020FEF74C
:101CD000C2FEE120FEF7B6FE0020FEF7BCFE152096
:101CE000FEF7B9FE1720FEF7B6FE0720FEF7B3FE9B
:101CF0001120FEF7B0FE0620FEF7ADFE2B20FEF70A
:101D0000AAFE5620FEF7A7FE3C20FEF7A4FE052003
:101D1000FEF7A1FE1020FEF79EFE0F20FEF79BFEB1
:101D20003F20FEF798FE3F20FEF795FE0F20FEF7BE
:101D300092FE2B20FEF786FE0020FEF78CFE002090
:101D4000FEF789FE0120FEF786FE3F20FEF783FEA8
:101D50002A20FEF777FE0020FEF77DFE0020FEF72A
:101D60007AFE0020FEF777FEEF20FEF774FE1120CA
:101D7000FEF768FE782004F051F82920FEF762FE95
:101D80000020FFF7FEFA0120384908604FF6FF7087
:101D9000FFF7E6FC21B000BD2DE9F04781460C4677
:101DA00016461F46DDF820A0254613E02946484682
:101DB000FEF792FEFEF773FE4FF0000806E0504675
:101DC000FEF749FE08F101001FFA80F8B045F6DB86
:101DD000681C85B2E019401EA842E7DABDE8F0872A
:101DE0002DE9F04782460F4615469846DDF82090CB
:101DF00000241EE0381981B25046FEF76DFEFEF752
:101E00004EFE002611E004FB05604000093019F881
:101E1000001004FB05604000083019F8000041EA9A
:101E2000002013490880701C86B2AE42EBDB601CB8
:101E300084B24445DEDBBDE8F0872DE9FF4F84B076
:101E400081468A460020039002900698A0EB09057F
:101E50000798A0EB0A06CDF80490CDF800A0002D5D
:101E600008DD01270CE0000002160020BC82404281
:101E70008000006C0DB9002702E04FF0FF376D4283
:101E8000002E02DD4FF0010806E016B94FF0000801
:101E900002E04FF0FF387642B54201DD2C4600E00B
:101EA00034464FF0000B21E0009A91B2019A90B2B3
:101EB000FFF76BF90398284403900298304402908E
:101EC0000398A04205DD0398001B03900198384455
:101ED00001900298A04205DD0298001B0290009834
:101EE000404400900BF101001FFA80FB601C834509
:101EF000DADD08B0BDE8F08FF0B504460D461646B1
:101F00001F462B46324629462046FFF796FF3B46A2
:101F1000224629462046FFF790FF3B463246394687
:101F20002046FFF78AFF3B46324629463046FFF7F8
:101F300084FFF0BD2DE9F04306460F46904600248D
:101F400045460320A0EB48093CE07A1B91B23219C8
:101F500090B2FFF71AF93A1B91B2721990B2FFF7DB
:101F600014F93A1991B2721990B2FFF70EF97A1971
:101F700091B2321990B2FFF708F97A1991B2321B77
:101F800090B2FFF702F93A1991B2721B90B2FFF7C3
:101F9000FCF87A1B91B2321B90B2FFF7F6F83A1BAD
:101FA00091B2721B90B2FFF7F0F8641CB9F1000F08
:101FB00003DAA000801D814404E0601B80000A3029
:101FC00081446D1EAC42C0DDBDE8F0832DE9F04FC9
:101FD00080460D4691469A46DDE9096BFC4800882B
:101FE000404503DBFA484088A84202DA0020BDE8F9
:101FF000F08F08EB0900401EF5490988884206DC8D
:1020000005EB0A00401EF2494988884201DD0020A4
:10201000EDE7002424E0281981B24046FEF75CFD7C
:10202000FEF73DFD002717E00B982044F17800FBF8
:102030000170584440000930315C0B982044F2781C
:1020400000FB0270584440000830305C41EA002038
:10205000E0490880781C87B24F45E5DB601C84B2FC
:102060005445D8DB0120C2E72DE9F84F80460D46E4
:1020700016461F46DDF82890D5480088404503DB0A
:10208000D3484088A84202DA0020BDE8F88F08EB68
:102090000600401ECE490988884205DCE819401E2A
:1020A000CB494988884201DD0020EEE7002436E074
:1020B000281981B24046FEF70FFDFEF7F0FC0E989E
:1020C000604390FBF7F10C98084499F803104843DB
:1020D00000904FF0000A1EE00D980AFB00F090FB04
:1020E000F6FB009800EB0B010B9808444000093008
:1020F00019F80010009800EB0B020B9810444000F8
:10210000083019F8000041EA0020B24908800AF1BD
:1021100001001FFA80FAB245DEDB601C84B2BC42CB
:10212000C6DB0120B1E72DE9FF4F88B015461E46FA
:10213000DDE9169A159C4FF0000BDCE000200790BB
:10214000D1E019980BFB00F090FBF6F01FFA80F835
:1021500018990798484390FBF5F087B218990798AB
:10216000484390FBF5F105FB1100281A80B2069058
:1021700019980BFB00F090FBF6F106FB1100301AEA
:1021800080B205900AEB0800E17800FB017048443A
:1021900040000930215C0AEB0800E27800FB027085
:1021A000484440000830205C41EA002104910AEBD9
:1021B0000800E17800FB01704844401C40000930F1
:1021C000215C0AEB0800E27800FB02704844401CE6
:1021D00040000830205C41EA002003900AEB080030
:1021E000401CE17800FB0170484440000930215C4C
:1021F0000AEB0800401CE27800FB027048444000F3
:102200000830205C41EA002002900AEB0800401CE4
:10221000E17800FB01704844401C40000930215C1B
:102220000AEB0800401CE27800FB02704844401CA6
:1022300040000830205C41EA00200190DDE90510F3
:102240004843DDE903218A1A0299521A019911447F
:102250004143059805FB00F2039802FB0012069823
:1022600006FB00F1029801FB002205FB06F106982F
:1022700006FB1011059805FB1011019801FB0020C9
:1022800080B2009005FB06F000EBD0714A10009977
:102290000A4405FB06F192FBF1F189B20091099A1B
:1022A0005A4491B2DDE907321A4490B2FEF7E5FCD8
:1022B0001A99C1F1FF0148431A9A009901FB0200E3
:1022C000FF2190FBF1F080B20090099A5A4491B23C
:1022D000DDE907321A4490B2009AFEF764FF0798CE
:1022E000401C80B207900798A842FFF62AAF0BF176
:1022F00001001FFA80FBB345FFF620AF01200CB0B0
:10230000BDE8F08F2DE9FC4F81460D4616461F466D
:10231000DDF82C802E480088484503DB2C48408897
:10232000A84202DA0020BDE8FC8F09EB0600401E3F
:1023300027490988884205DCE819401E2449498854
:10234000884201DD0020EEE700243DE0281981B23B
:102350004846FEF7C1FBFEF7A2FB002001902EE0ED
:102360000F98604390FBF7FB0E990198484390FB50
:10237000F6FA0D98584498F8031000FB01A10C9848
:1023800008444000093018F800100D98584498F897
:10239000032000FB02A20C9810444000083018F8FB
:1023A000000041EA0020009010990098884202D075
:1023B0000849009808800198401C80B2019001985B
:1023C000B042CDDB601C84B2BC42BFDB0120AAE777
:1023D000021600208000006C2DE9F84F80460E4662
:1023E00017461C46B3462046E31704EB5373DB1035
:1023F00021464FEAE47C04EB5C7C4FEAEC0CA4EB56
:10240000CC0CBCF1000F02D04FF0010C01E04FF0FA
:10241000000C6344224604EBD27C4FEA6C0C03FBB5
:102420000CF3DBB20093A7F12000C7B2002556E001
:102430000C2C07D107EB4700FE4901EB800010F898
:10244000059013E0102C05D1FB4800EB071010F8A5
:1024500005900BE0182C07D107EBC700F74901EBFB
:10246000800010F8059001E0BDE8F88F4FF0000AF9
:102470002FE009F0800030B1F14802883146404633
:10248000FEF791FE07E00A9828B9EE480288314627
:102490004046FEF788FE4FEA49604FEA1069701C1B
:1024A00086B2E9484088B04200DCDDE7A6EB0B00CD
:1024B000A0420AD15E4608F101001FFA80F8E24806
:1024C0000088404500DCCFE706E00AF1010000F09B
:1024D000FF0ABAF1080FCCDB00BF681CC5B2009838
:1024E0008542A5DB00BFBFE710B50246012000E032
:1024F00050430B00A1F10104E1B2F9D110BD2DE967
:10250000FF4F81B0074691461E460E9D4FF0000AD0
:10251000002439E0301B401EC1B20A20FFF7E4FF5F
:10252000B9FBF0F00A21B0FBF1F201FB1208BAF19D
:10253000000F16D1701EA04213DDB8F1000F0ED1AE
:102540000020AB4605EBDB71491001FB04710090E4
:1025500088B22B4620220299FFF73EFF12E04FF08F
:10256000010A0020AB4605EBDB71491001FB047149
:10257000009088B208F13001CAB22B460299FFF7E9
:102580002BFF00BF601CC4B2B442C3DB05B0BDE882
:10259000F08F2DE9FF4F82B0064692461F46DDE9D7
:1025A0000F480020019000254DE0781B401EC1B26D
:1025B0000A20FFF799FFBAFBF0F00A21B0FBF1F215
:1025C00001FB1209019850BB781EA84227DDB9F122
:1025D000000F22D108F0800078B108F00100A34676
:1025E00004EBDB71491001FB0561009088B22346C2
:1025F00030220399FFF7F0FE0EE008F00100A34639
:1026000004EBDB71491001FB0561009088B22346A1
:1026100020220399FFF7E0FE13E00120019008F06B
:102620000100A34604EBDB71491001FB056100903A
:1026300088B209F13001CAB223460399FFF7CCFEF4
:1026400000BF681CC5B2BD42AFDB06B0BDE8F08F6D
:102650002DE9F84704460D4690469946DDE909679D
:1026600004F0FF0A08EB04001FFA80F809EB0500EC
:102670001FFA80F916E0444502DB5446A81985B2DA
:102680004D4500DB14E0012000903A78334629469E
:102690002046FFF7A1FE304606EBD07104EB610146
:1026A0008CB27F1C38787E2802DC38782028E2DA69
:1026B00000BFBDE8F8872DE9F04F8BB081460C468E
:1026C0009246282261A101A809F0CFFD0026BAF1A7
:1026D0000A0F0AD1B9F1000F07DAC9F100072D225C
:1026E0003046711C8EB2225400E04F4600BFB7FB4B
:1026F000FAF00AFB107001A90A5C3046711C8EB218
:102700002254B7FBFAF7002FF1D10020A055207812
:102710002D2802D14FF0010801E04FF00008454696
:102720000DE014F805B0701E4044401B205C60555D
:10273000701E4044401B04F800B0681C85B2701E37
:1027400000EBD071B5EB610FEBDD20460BB0BDE8BF
:10275000F08F10B504460A2246492046FFF7ABFF2A
:10276000444810BD10B52DED048BB0EE408A18EE34
:10277000100A0DF047FB41EC190B53EC192B3EA14D
:102780003F4809F021FC3E4809F044FD401EC4B218
:1027900012E03B48005D302803D10020384908553D
:1027A00008E03748005D2E2803D100203449085541
:1027B00004E003E0601EC4B2002CEADC00BF304835
:1027C000BDEC048B10BD10B52DED028B04462046E8
:1027D0000BF062FBB0EE408AF0EE608A51EC180B11
:1027E0000CF0D4FC00EE100ABDEC028B10BD10B54D
:1027F0002DED0A8BB0EE408A18EE100A0DF002FBA8
:1028000041EC1C0BB0EE4C0AF0EE6C0A0BF06CFBCA
:10281000B0EE40AAF0EE60AA18EE100A0DF0F2FA3F
:1028200041EC1B0B53EC1A2B0DF002FA41EC190B87
:1028300028E00000FAFF00086E0401085E0A0108A3
:10284000D0000020D20000200216002030313233A8
:102850003435363738394142434445464748494A7A
:102860004B4C4D4E4F505152535455565758595A40
:102870000000000010160020252E33660000000026
:10288000241600209FED490B53EC102B0DF0C2F8DD
:1028900007D2BCEEC80A10EE100A80B2BDEC0A8B5B
:1028A00010BDB6EE000A38EE000ABCEEC00A10EE0B
:1028B000100A80B2F2E72DE9F04F2DED028B83B0C4
:1028C00005468946B0EE408AB0EE480AFFF74AFF57
:1028D0000646304609F09EFCC0B20290A846CDF8EC
:1028E000049000203349088000245AE008F10F00CA
:1028F0001FFA80F8DDF80490454600274DE0305D72
:1029000030280CDB305D392809DC305D3038C0EB15
:102910000010294901EB800010F807B00DE0305D90
:102920002E2803D1254810F807B006E0305D2D2889
:1029300003D12248783010F807B04FF0000A26E0A3
:102940000BF0010018B149462846FEF71EFC4FEA7D
:102950006B0B681C85B21A484088A84204DC03B09F
:10296000BDEC028BBDE8F08FA5EB08000F280AD163
:10297000454609F101001FFA80F911480088A84274
:1029800000DCECE706E00AF1010000F0FF0ABAF112
:10299000080FD5DB00BF781CC7B23C2FAFDB601C33
:1029A000C4B202988442A1DB00BFD8E70000000057
:1029B0000000E03FD0000020BA170108121A0108F9
:1029C00002160020002100BF14E000F080021AB1BE
:1029D0000122FA4B1A6002E00022F84B1A6042060C
:1029E000100E0022F64B1A600122F64BC3F880222B
:1029F0004A1CD1B20829E8DB704770B506460025AD
:102A000000240020EE490860EF49C1F8AC02EF490C
:102A100008603046FFF7D6FF062003F0B7F9002024
:102A2000E849C1F88002012003F0B0F90120E4492F
:102A300008600020E349C1F8800200BF12E04FF6B1
:102A4000FF7000EA44040020DD4908600120DD49F0
:102A5000C1F88002DA487838006808B1601C84B296
:102A6000681CC5B2102DEADB24110120D74908608B
:102A7000204670BD2DE9FE4380460027002406E075
:102A80004046FFF7BAFF2DF81400601C84B2052CF5
:102A9000F6DB002416E0601C85B20FE03DF8140060
:102AA0003DF81510884207DD3DF814603DF815002B
:102AB0002DF814002DF81560681C85B2052DEDDB8E
:102AC000601C84B2042CE6DB0027012405E03DF8FD
:102AD0001400384487B2601C84B2042CF7DB032056
:102AE00097FBF0F086B23046BDE8FE832DE9F04159
:102AF00004460D46B6480078FFF7BCFF0646B548C9
:102B00000078FFF7B7FF074626802F800120BDE839
:102B1000F0817FB504460D4602A903A8FFF7E6FF42
:102B2000064616B9002004B070BD694601A8FFF73B
:102B3000DDFF06460EB90020F5E7BDF80400BDF83C
:102B40000C10884206DCBDF80C10BDF804003230D1
:102B500081420CDBBDF80C00BDF80410884236DC65
:102B6000BDF80410BDF80C00323081422FDABDF8F8
:102B70000000BDF80810884206DCBDF80810BDF85A
:102B80000000323081420CDBBDF80800BDF80010B7
:102B900088421CDCBDF80010BDF8080032308142CC
:102BA00015DABDF80C10BDF80420881800EBD071C0
:102BB000C1F34F012180BDF80810BDF8002088182E
:102BC00000EBD071C1F34F0129800120ABE7002059
:102BD000A9E770B504460D4616467F48068004F105
:102BE0000D018AB2193988B22B462946FFF725F91B
:102BF00005F10D0083B2193881B222462046FFF755
:102C00001CF96A1C91B2621C90B2FEF7BEFA6A1CF3
:102C100091B2621E90B2FEF7B8FA6A1E91B2621CBF
:102C200090B2FEF7B2FA6A1E91B2621E90B2FEF73F
:102C3000ACFA062229462046FFF77CF970BD70B534
:102C400004460D4616466448068029462046FEF78F
:102C50009CFA611C88B22946FEF797FA681C81B27B
:102C60002046FEF792FA6A1C91B2621C90B2FEF7FF
:102C70008CFA70BD10B52DED088B044650487C3899
:102C80000068002873D12CB15449A1F10A00FFF764
:102C900040FF59E05149A1F10A00FFF73AFFE8B3BC
:102CA0004E491639B1F938000CF04FFD41EC190BC3
:102CB0004A49163988890CF05FFD41EC1B0B4748E7
:102CC000163890ED0A1BB0EE410AF0EE610A53ECA3
:102CD000102B51EC1B0B0CF09FFD41EC1A0B53EC2D
:102CE000192B0CF085FA41EC180B0CF001FD3B4957
:102CF00016398881B1F93A000CF027FD41EC190B27
:102D000036491639C88A0CF037FD41EC1B0B3348A5
:102D1000163890ED0C1BB0EE410A00E014E0F0EE26
:102D2000610A53EC102B51EC1B0B0CF075FD41ECC0
:102D30001A0B53EC192B0CF05BFA41EC180B0CF04E
:102D4000D7FC26491639C8822448163890F8200046
:102D500000F0800040BBC0202049163981F82000D7
:102D6000084681898182C18AC1831DE0FFE71B4833
:102D7000163890F8200000F0800050B1174816383F
:102D800090F8200020F080001449163981F82000C6
:102D90000AE00021114816388182C1834FF6FF7086
:102DA0000E4916398881C8820C48163890F82000E0
:102DB00000F08000BDEC088B10BD0000AC824242E8
:102DC000808240420080404200804242B402414240
:102DD0001801002019010020D0000020EE00002082
:102DE00010B52DED028BFE4890ED0A1BB0EE410AA6
:102DF000F0EE610A9FEDFB1B53EC112B51EC100B15
:102E00000CF00AFD41EC180B0CF042FC04460422C5
:102E10002146282001F042F9F14890ED0C1BB0EE5C
:102E2000410AF0EE610A9FEDEF1B53EC112B51ECC0
:102E3000100B0CF0F1FC41EC180B0CF029FC0446D3
:102E4000042221462C2001F029F9E548B0F9381078
:102E50000222302001F022F9E148B0F93A100222B2
:102E6000322001F01BF9DE4890F83C10342001F0CC
:102E7000EDF80A242146352001F0E8F8BDEC028B7C
:102E800010BD70B5352001F0B5F804460A2C50D1BC
:102E90000421282001F017F9044600EE104AB8EE8C
:102EA000C00ADFEDD20A80EE201A11EE105A284631
:102EB0000CF0A8FFCA4AC2E90A0104212C2001F043
:102EC00002F9044600EE104AB8EEC00ADFEDC70A68
:102ED00080EE201A11EE105A28460CF093FFC04ADB
:102EE000C2E90C010221302001F0EDF800B2BC492A
:102EF00008870221322001F0E6F800B2B84948877D
:102F0000342001F077F8B64981F83C00084690F883
:102F10003C0030B19020B6490870D020B549087007
:102F200005E0D020B24908709020B2490870012015
:102F300070BD0020FCE72DE9FC5F04460D461746F6
:102F40001E46DDE90EABDDE90C894FF47840AA4955
:102F50000880AAA01021CDE90010A9484388028862
:102F6000A0212820FFF774FBA6A01021CDE90010B6
:102F7000A34843880288A0217820FFF769FBA2A01C
:102F80001021CDE900109E4843880288B4212820F2
:102F9000FFF75EFB9DA01021CDE900109848438803
:102FA0000288B4217820FFF753FB99A01021CDE9C6
:102FB0000010934843880288C8212820FFF748FB67
:102FC00094A01021CDE900108D4843880288C821C3
:102FD0007820FFF73DFB90A01021CDE90010884834
:102FE00043880288DC212820FFF732FB8BA01021C8
:102FF000CDE90010824843880288DC217820FFF761
:1030000027FB87A01021CDE900107D484388028866
:10301000F0212820FFF71CFB84A01021CDE900102F
:103020007748438802884FF482712820FFF710FB0D
:10303000102004232246A02100904020FFF75FFAD1
:10304000102004232A46A02100909020FFF757FA71
:10305000102004233A46B42100904020FFF74FFA95
:10306000102004233246B42100909020FFF747FA45
:10307000102004234246C82100904020FFF73FFA69
:10308000102004234A46C82100909020FFF737FA09
:10309000102004235246DC2100904020FFF72FFA35
:1030A000102004235A46DC2100909020FFF727FAD5
:1030B000102003230090F0216820109AFFF71FFAD8
:1030C0001020032300904FF482716820119AFFF7BB
:1030D00016FABDE8FC9F10B52DED0A8B84B040F2C6
:1030E000AF10ADF800004FF4C470ADF8020040F628
:1030F0004460ADF804004FF4CF71ADF8061040F213
:103100000720ADF8080040F6C951ADF80A1040F6A6
:103110000A60ADF80C0040F6EC51ADF80E10BDF8A9
:103120000400BDF80010401A00EE100AF8EEC00AC4
:1031300033480088283800EE100AB8EEC00A80EE46
:10314000201A11EE104A20460CF05CFE244AC2E917
:103150000A01BDF80410BDF8002088180CF0F5FA3B
:1031600041EC1C0B1E4890ED0A1BB0EE410AF0EE3C
:10317000610A53EC102B51EC1C0B0CF04DFB41EC95
:103180001A0B1F4908880CF0F7FA41EC1B0B53ECA3
:103190001A2B0CF04DFD41EC190B9FED270B53EC56
:1031A000102B0CF0E1F841EC180B0CF071FA00B2A6
:1031B0000B490887BDF80A00BDF80210401A00EE5E
:1031C000100AF8EEC00A0E484088283800EE100AAF
:1031D000B8EEC00A80EE201A11EE104A20462FE009
:1031E000D80000200000000084D7974120BCBE4CCE
:1031F0001801002019010020D000002078313A0089
:103200000216002079313A0078323A0079323A00D9
:1032100078333A0079333A0078343A0079343A0016
:10322000786661632069733A000000007966616323
:103230002069733A00000000000000000000004018
:103240000CF0E0FDFD4AC2E90C01BDF80A10BDF822
:10325000022088180CF079FA41EC1C0BF74890ED2D
:103260000C1BB0EE410AF0EE610A53EC102B51EC4E
:103270001C0B0CF0D1FA41EC1A0BF14948880CF008
:103280007BFA41EC1B0B53EC1A2B0CF0D1FC41ECFC
:10329000190B1FED170B53EC102B0CF065F841ECDC
:1032A000180B0CF0F5F900B2E449488704B0BDEC06
:1032B0000A8B10BD00B597B0002012900C901290B0
:1032C0001F20E04908804FF6FF70DF490880FEF7B5
:1032D00047FA4FF47840DB4908804FF6FF70FEF75D
:1032E0003FFA0021D7480180D848016810206423A4
:1032F000A022CDE9000128210846FFF7A9F94FF4E3
:10330000784214210846FFF764FC0020CB4981F87D
:1033100020009FEDCF0B084680ED0A0B36E2C74830
:1033200040680B9001200B998847C44890F8200012
:1033300000F0C00040286FD100200C90BF4890F8EA
:10334000200020F04000BD4981F820000846818916
:1033500013AA129822F82010B848C18A129802EBDA
:10336000800041801298401CC0B21290129801282F
:1033700006D0022815D0032829D0042810D141E016
:103380004FF6FF7214210846FFF723FCAC48008873
:10339000143880B24FF4784214210B90FFF719FCD7
:1033A000F0E3A7480088143880B24FF6FF7214216A
:1033B0000B90FFF70EFCA2484088143880B24FF4FF
:1033C000784201460B901420FFF703FCDAE39C4897
:1033D0004088143880B24FF6FF7201460B901420DB
:1033E000FFF7F7FB96484088143880B20B9094485A
:1033F0000088143880B24FF478420A900B99FFF796
:10340000E8FBBFE3BDF84C00BDF85010401A0B902C
:10341000002802DB0B9802E0FEE30B9840420F907D
:10342000BDF84E1013A8C088081A0B90002801DBC5
:103430000B9801E00B9840420E900F9840430F907C
:103440000E9840430E90DDE90E10084407900CF0F2
:1034500093F9CDE908019DED080B0BF055FC8DEDBE
:103460000A0B9DED0A0B51EC100B0CF041F980B2E8
:103470001190BDF85410BDF85800081A0B900028A0
:1034800001DB0B9801E00B9840420F9013A8418993
:10349000C089081A0B90002801DB0B9801E00B98FB
:1034A00040420E900F9840430F900E9840430E906C
:1034B000DDE90E10084407900CF05EF9CDE9080133
:1034C0009DED080B0BF020FC8DED0A0B9DED0A0B1A
:1034D00051EC100B0CF00CF980B210909DED110A1C
:1034E000F8EE400A9DED100AB8EE400A80EE801A10
:1034F0008DED0D1A9DED0D0ADFED570AB4EEE00AD1
:10350000F1EE10FA0CD39DED0D0ADFED540AB4EE86
:10351000E00AF1EE10FA03DC119808B11098E8BB4C
:103520000020129046484088143880B20B904448DE
:103530000088143880B24FF6FF720A900B99FFF79B
:1035400048FB4FF4784214210846FFF742FB9DEDFB
:103550000D0ADFED430A20EE200ABCEEC00A10EE91
:10356000100A80B29DED0D0ADFED3D0A20EE200A23
:10357000BCEEC00A10EE101A89B213AAD289BDF8A7
:103580005830CDE90232CDE9041013A84089BDF8C6
:103590005410CDE9001013A8C08800E00EE00B9095
:1035A000BDF850000A90BDF84E000990BDF84C00DF
:1035B000089009A90EC9FFF7BEFC74E3BDF84C00E2
:1035C000BDF85410401A0B90002801DB0B9801E065
:1035D0000B9840420F90BDF84E1013A84089081A6E
:1035E0000B90002801DB0B9801E00B9840420E90F5
:1035F0000F9840430F900E9840430E90DDE90E1057
:10360000084407900CF0B8F8CDE908019DED080BCF
:103610000BF07AFB8DED0A0B9DED0A0B51EC100BB4
:103620000CF066F880B21190BDF85000BDF858104B
:10363000401A0B90002815DB0B9815E0D8000020ED
:1036400002160020D0000020D20000201C01002023
:1036500000000000000000003333733F6666863FC1
:103660000000C8420B9840420F9013A8C188C0893F
:10367000081A0B90002801DB0B9801E00B984042E0
:103680000E900F9840430F900E9840430E90DDE946
:103690000E10084407900CF06FF8CDE908019DED7D
:1036A000080B0BF031FB8DED0A0B9DED0A0B51EC75
:1036B000100B0CF01DF880B210909DED110AF8EE81
:1036C000400A9DED100AB8EE400A80EE801A8DED9A
:1036D0000D1A9DED0D0A5FED200AB4EEE00AF1EE41
:1036E00010FA08D39DED0D0A5FED240AB4EEE00A4E
:1036F000F1EE10FA4BDD00201290FE48408814389D
:1037000080B20B90FB480088143880B24FF6FF72ED
:103710000A900B99FFF75DFA4FF47842142108469E
:10372000FFF757FA9DED0D0A5FED330A20EE200AF0
:10373000BCEEC00A10EE100A82B29DED0D0A5FEDDC
:10374000380A20EE200ABCEEC00A10EE100A80B241
:1037500013A9C989BDF85830CDE90231CDE9040279
:1037600013A84089BDF85410CDE9001013A8C088F3
:103770000B90BDF850000A90BDF84E000990BDF8BE
:103780004C00089009A90EC9FFF7D5FB8BE2BDF8E4
:103790005010BDF85400081A0B90002801DB0B985C
:1037A00001E00B9840420F9013A8C1884089081A85
:1037B0000B90002801DB0B9801E00B9840420E9023
:1037C0000F9840430F900E9840430E90DDE90E1085
:1037D000084407900BF0D0FFCDE908019DED080BE0
:1037E0000BF092FA8DED0A0B9DED0A0B51EC100BCC
:1037F0000BF07EFF80B21190BDF84C00BDF8581060
:10380000401A0B90002801DB0B9801E00B98404216
:103810000F90BDF84E1013A8C089081A0B9000280D
:1038200001DB0B9801E00B9840420E900F9840434B
:103830000F900E9840430E90DDE90E10084407905B
:103840000BF09AFFCDE908019DED080B0BF05CFA37
:103850008DED0A0B9DED0A0B51EC100B0BF048FFA0
:1038600080B210909DED110AF8EE400A9DED100A0D
:10387000B8EE400A80EE801A8DED0D1A9DED0D0A0E
:103880005FED8B0AB4EEE00AF1EE10FA08D39DED7D
:103890000D0A5FED8E0AB4EEE00AF1EE10FA4BDD90
:1038A0000020129093484088143880B20B909148C1
:1038B0000088143880B24FF6FF720A900B99FFF718
:1038C00088F94FF4784214210846FFF782F99DEDFC
:1038D0000D0A5FED9D0A20EE200ABCEEC00A10EE34
:1038E000100A80B29DED0D0A5FEDA30A20EE200ABA
:1038F000BCEEC00A10EE101A89B213AAD289BDF824
:103900005830CDE90232CDE9041013A84089BDF842
:103910005410CDE9001013A8C0880B90BDF85000DA
:103920000A90BDF84E000990BDF84C00089009A916
:103930000EC9FFF700FBB6E1BDF85000BDF84C1012
:10394000401A00EE100AF8EEC00A6A4800882838CB
:1039500000EE100AB8EEC01A81EE200A8DED0B0AB7
:103960000B980CF04FFA644AC2E90A01BDF8500006
:10397000BDF84C10084401900BF0E7FECDE90201C0
:103980005D4890ED0A0B8DED000B9DED000B53ECA7
:10399000102B9DED020B51EC100B0BF03DFFCDE910
:1039A00006015448008803900BF0E6FECDE90401BF
:1039B0009DED060B53EC102B9DED040B51EC100B01
:1039C0000CF036F99FED4D0B53EC102BCDE90801AF
:1039D0009DED080B51EC100B0BF0C6FCCDE90A0174
:1039E0009DED0A0B51EC100B0BF052FE00B2424958
:1039F000088713A84089BDF84E10401A00EE100A3F
:103A0000F8EEC00A3B484088283800EE100AB8EEAD
:103A1000C01A81EE200A8DED0B0A0B980CF0F2F91A
:103A2000354AC2E90C0113A84089BDF84E1008447C
:103A300001900BF08AFECDE902012F4890ED0C0BAE
:103A40008DED000B9DED000B53EC102B9DED020B4B
:103A500051EC100B0BF0E0FECDE906012548408843
:103A600003900BF089FECDE904019DED060B53ECAC
:103A7000102B9DED040B51EC100B0CF0D9F89FEDC1
:103A80001F0B53EC102BCDE908019DED080B51ECF9
:103A9000100B0BF069FCCDE90A019DED0A0B51EC0E
:103AA000100B0BF0F5FD00B213494887084690ED66
:103AB0000A0B8DED080B9DED080B51EC100B0BF074
:103AC000E7FD0A90002801DB0A9801E00A984042CD
:103AD00002281BDC084890ED0C0B8DED080B9DEDCA
:103AE000080B51EC100B0BF0D3FD0B90002809DBF9
:103AF0000B9809E002160020D8000020000000000A
:103B0000000000400B984042022843DD0020129044
:103B10008B484088143880B20B908948008814384C
:103B200080B24FF6FF720A900B99FFF752F84FF4EC
:103B3000784214210846FFF74CF882A01021CDE905
:103B400000107F4840880B907D4800880A9002460C
:103B50001A2128200B9BFEF77BFD7F4890F83C0044
:103B600008B9012000E000207B4981F83C000846AC
:103B700090F83C0038B1902078490870D0217848FE
:103B8000017006E05BE0D020744908709021744811
:103B9000017088E01F20734908804FF6FF70FDF721
:103BA000DFFD71A01021CDE90010654840880B9021
:103BB000634800880A9002466E2123200B9BFEF783
:103BC00047FD9DED0D0ADFED6E0A20EE200ABCEEEA
:103BD000C00A10EE100A81B29DED0D0ADFED680AF1
:103BE00020EE200ABCEEC00A10EE100A82B213A822
:103BF000C089BDF85830CDE90230CDE9042113A8C1
:103C00004089BDF85410CDE9001013A8C0880B906E
:103C1000BDF850000A9000E012E0BDF84E00099097
:103C2000BDF84C00089009A90EC9FFF784F94FF4BC
:103C30007A7002F0F3F8FFF7D3F817B000BD00BFB9
:103C40000A2002F0EBF84F480068401C4D4908601C
:103C50000846006832281AD300214A4801604A48C1
:103C6000006808B9012000E0002047490860474883
:103C7000D0F8A80208B9012000E000204249091D3F
:103C8000086043A008F094F948A008F091F90C9856
:103C9000401C80B20C900C98B0F57A7F02DDFFF7E3
:103CA000F0F802E000BFFFF73ABB00BF00BFC4E777
:103CB0001CB50121262006F04CF8012000908DF85B
:103CC000040000208DF8060002208DF805006946EA
:103CD0003C4805F073FA01213A4805F0EBFA4FF43D
:103CE000005000906946384805F068FA4FF40051DA
:103CF000354805F0DFFA4FF400600090694633481C
:103D000005F05CFA4FF40061304805F0D3FA062064
:103D1000009000208DF8040001208DF8070069460E
:103D2000284805F04BFA0C491631A1F10A00FEF7BC
:103D3000DDFE00F05BF9FFF7CEF901201CBD0000AD
:103D4000021600205450204E65656420726561643F
:103D50006A75737421000000D8000020180100204B
:103D600019010020D0000020546F75636820536350
:103D70007265656E2041646A757374204F4B210033
:103D80000000C84220010020A4824242008042423A
:103D90000D0A53544D3332BFAAB7A2B0E520B4AEDA
:103DA000BFDACAB5D1E90D0A000000006D63756481
:103DB00065762E74616F62616F2E636F6D200D0AE0
:103DC0000D0A0000000402400008024000140240F6
:103DD0001CB50121132005F073FF0121084605F0F1
:103DE000C9FF01220D217E4805F073FA0122082146
:103DF0007C4805F06EFA01220E21794805F069FA37
:103E000001220921774805F064FA01220F21744844
:103E100005F05FFA01220A21724805F05AFA0220E1
:103E20008DF8040000208DF8060002208DF80700B0
:103E30008DF80500000300906946694805F0BEF959
:103E40004FF4807000906946664805F0B7F94FF46A
:103E5000804000906946624805F0B0F94FF4007068
:103E6000009069465F4805F0A9F94FF400400090C2
:103E700069465B4805F0A2F94FF4806000906946FE
:103E8000584805F09BF91CBD10B58CB004460020C5
:103E9000ADF82400ADF82600601E0A900020ADF8B1
:103EA0002C0009208DF82E0009A94F4806F065FD69
:103EB0006020ADF810000120ADF812000420ADF82C
:103EC00014000220ADF81C000820ADF81E000020F0
:103ED000ADF82000ADF8220004A9434806F0E2FD49
:103EE0000821414806F06BFF04A93F4806F013FE85
:103EF00008213D4806F06CFF04A93B4806F058FE37
:103F00000821394806F071FF0121374806F0A0FD6D
:103F10004FF40060ADF800004010ADF802008010D2
:103F2000ADF804000A20ADF806000020ADF8080046
:103F3000ADF80A004FF48040ADF80C0069462A48FD
:103F400007F07CF90121284807F091F90121264862
:103F500006F09CFD0CB010BD10B5FFF739FF4FF413
:103F6000D260FFF791FF10BD10B501211E4806F089
:103F70008DFD01211C4807F07AF910BD10B5002114
:103F8000194806F083FD0021174807F070F94FF437
:103F90008071144805F08EF94FF40051104805F077
:103FA00089F94FF400710F4805F084F94FF480410E
:103FB0000B4805F07FF94FF480610A4805F07AF963
:103FC0004FF40041064805F075F910BD10B5012108
:103FD000054807F08AF90121034807F097F910BD59
:103FE00000040240000002400000014010B500F053
:103FF000BBF810BD70B50446002600F0D8F8254681
:10400000E11704EB11610912A02202EB4101C8B2D1
:1040100000F079F900F00CF9E11704EB11610912D5
:10402000A4EB0121C8B200F06EF900F001F900F034
:10403000BEF8A12000F067F900F0FAF8002000F0C7
:104040008FF9064600F0D5F8304670BD70B50446CD
:104050000E4600F0ACF82546E11704EB1161091299
:10406000A02202EB4101C8B200F04DF900F0E0F8E7
:10407000E11704EB11610912A4EB0121C8B200F0B1
:1040800042F900F0D5F8304600F03DF900F0D0F8E4
:1040900000F0AFF80A2001F0C1FE70BD2DE9F0413B
:1040A00005460E461746002409E0E20026FA02F211
:1040B000D1B22A1990B2FFF7C9FF601CC4B2BC424A
:1040C000F3DBBDE8F0812DE9F04107460C46002600
:1040D000002509E036023919491B491E88B2FFF74D
:1040E00089FF0644681CC5B2A542F3DB3046BDE833
:1040F000F08110B5FF20FFF77DFF0446552C01D15C
:10410000002010BD5521FF20FFF7A0FFFF20FFF783
:1041100071FF0446552C01D10020F2E70120F0E7A1
:1041200070B506460C46154608E03046721C96B23D
:10413000FFF760FF04F8010B681E85B2002DF4D173
:1041400070BD70B505460C46164606E02178284637
:10415000FFF77CFF681C85B2641C3000A6F10101EA
:104160008EB2F3D170BD00001CB50121022005F014
:10417000A7FD4FF44060009001208DF8040000205E
:104180008DF806008DF8070002208DF805006946BD
:104190008B4805F013F84FF44061894805F08AF820
:1041A0000120884908608849C1F8A4021CBD10B5E7
:1041B0008348006820F44020814908600846006870
:1041C00040F48020086001207E49091D08607E4976
:1041D000C1F8A002042001F0D9FD00207949091D91
:1041E0000860042001F0D2FD00207749C1F8A00248
:1041F00010BD10B57248006820F440207049086076
:104200000846006840F48020086000206D4908607E
:104210006D49C1F8A402042001F0B8FD01206949EC
:1042200008606949C1F8A402042001F0AFFD10BD87
:1042300010B500246248006820F4402060490860FE
:1042400008460068086001205E49091D086001F009
:104250009DFD01205C49C1F8A00201F097FD07E037
:10426000601CC4B2FA2C03DDFFF7C3FF012010BDB0
:1042700054487C3800680028F2D15249086000BFD9
:10428000F5E710B500204F4908604D48006820F45C
:1042900040204B4908600846006840F480200860D0
:1042A00000204949C1F8A402022001F06FFD01205D
:1042B00044490860022001F069FD00204249C1F82C
:1042C000A00210BD10B500203E4908603C480068BF
:1042D00020F440203A4908600846006840F48020F5
:1042E000086001203849C1F8A402022001F04EFD07
:1042F000012034490860022001F048FD00203249C5
:10430000C1F8A00210BD70B504462D48006820F425
:1043100040202B4908600846006840F4802008606F
:10432000002028490860002517E0E0092549091DFB
:1043300008606006040E022001F028FD01202249D9
:10434000C1F8A002022001F021FD00201D490860F3
:10435000022001F01BFD681CC5B2082DE5DB70BD15
:1043600070B5054600241648006820F44020144922
:104370000860084600680860002616E00020114921
:104380000860022001F002FD01200F49C1F8A002DF
:104390006006040E0B487C38006808B1601CC4B28B
:1043A000012001F0F3FC701CC6B2082EE6DB15B943
:1043B000FFF788FF01E0FFF764FF204670BD0000B3
:1043C00000040240A08240420080404200B59BB001
:1043D0000121084605F074FC0121880505F070FCF8
:1043E0000121080205F0C6FC00BF884807F01BFA4F
:1043F0000028FAD10120199003208DF868000020D0
:104400008DF86B0019A9824804F0D8FE022019909B
:1044100019A97F4804F0D2FE0420199019A97C48FC
:1044200004F0CCFE0820199019A9794804F0C6FEC2
:104430001020199019A9764804F0C0FE2020199088
:1044400019A9734804F0BAFE4020199019A97048C0
:1044500004F0B4FE0121880505F032FC6D4801909E
:104460006D48029000200390D22004900020059017
:104470004FF4806006904000079080000890401143
:10448000099040020A9000200B9001200C9000201F
:104490000D900E9069465D4807F03EF90121080233
:1044A00005F0BDFC00214FF4807005F0B8FC05F06C
:1044B00085FF00201590189017904FF480301690CB
:1044C00015A805F0B5FF00200F9001208DF84000E1
:1044D0008DF84100002011901290139007208DF864
:1044E00050000FA94B484C3805F073FF01231A46C2
:1044F000002148484C3805F0F2FF012302221946FA
:1045000044484C3805F0EBFF0123032202214148C7
:104510004C3805F0E4FF0123042203213D484C38C8
:1045200005F0DDFF0123052204213A484C3805F04F
:10453000D6FF01230622052136484C3805F0CFFF6F
:1045400001230722062133484C3805F0C8FF00211B
:1045500030484C3806F02EF801212E484C3806F031
:1045600069F801212B484C3806F059F801212948F7
:104570004C3805F074FF27484C3806F00CF8012140
:10458000224807F003F91BB000BD70B504460D4684
:10459000002301222946204605F0A1FF204605F010
:1045A000FAFF00BF0221204606F016F90028F9D0D4
:1045B000204606F02CF870BDF0B505460A460023EB
:1045C00000274FF6FF76002410E0C4EBC400DFF8AC
:1045D00048C00CEB400030F81510B14200DA0E462E
:1045E000B94200DD0F460B44601CC4B29442ECDBC0
:1045F000032A06DBF0191B1A901EB3FBF0F080B201
:10460000F0BDB3FBF2F080B2FAE7000010640240A4
:10461000000002404C2001403E1600201CB5012144
:10462000102005F04DFB0420009000208DF80400C0
:1046300003208DF8050002208DF8070069464848E0
:1046400004F0BCFD082000906946454804F0B6FD22
:104650001CBD0EB50121082005F07BFB01210804DB
:1046600005F088FB0121480405F084FB4FF6FF703C
:1046700001902920ADF800000020ADF80200ADF84F
:1046800008008DF80A006946364806F076F9694652
:10469000354806F072F96946344806F06EF9012192
:1046A000304806F0F3F901212F4806F0EFF9012117
:1046B0002E4806F0EBF90EBD10B50021294806F092
:1046C000A5F9294806F0A6F900EE100AB8EE400A4E
:1046D000274880ED000A0021234806F097F90420BE
:1046E00006F06FFF10BD10B51E4806F093F900EEFE
:1046F000100AB8EE400A1F4880ED000A1E4890EDEF
:10470000000ADFED1E0A80EE801A1D4880ED001AB7
:10471000DFED1C4A9FED1C4ADFED1C3A9FED1C3A71
:10472000F6EE002A9FED1B2ADFED1B1A9FED1B1AE8
:104730001B4911480E4A92ED000AF1EE400A104A58
:1047400092ED000AB1EE400A04F031FA082006F0BA
:1047500038FF10BD10B5FFF761FFFFF77AFF10BDFE
:1047600000100240000C00400040014000440140A5
:10477000AC00002024010020A000002020BC3E4D01
:10478000B000002000803B4500401C4600000000B7
:104790000AD7A33C002474490050C3C70060EAC68E
:1047A000B402002020EE212A00EE812A80ED002AAA
:1047B000B1EE402A22EE012A00EEA12A81ED002A64
:1047C00070471FB504460121022005F0C2FA601EA1
:1047D00002900020ADF80400ADF80600ADF80C0022
:1047E0008DF80E0001A9FE4806F0C7F80122114617
:1047F000FB4806F063FD0121F94806F047F91D204A
:104800008DF8000001208DF8010000208DF80200D5
:1048100001208DF80300684604F0DFFB1FBD1FB5C3
:1048200004460121042005F094FA601E0290002045
:10483000ADF80400ADF80600ADF80C008DF80E00E0
:1048400001A9E84806F099F801221146E54806F06A
:1048500035FD0121E34806F019F91E208DF800000E
:1048600001208DF8010000208DF8020001208DF854
:104870000300684604F0B1FB1FBD10B50121D84804
:1048800006F033FD01281DD1D74890ED000ABCEE9B
:10489000C00A10EE101AD54806F05DFAD44890ED23
:1048A000000ABCEEC00A10EE101AD04806F055FA05
:1048B000D04890ED000ABCEEC00A10EE101ACB48AA
:1048C00006F04DFA0121C64806F020FD10BD10B5D6
:1048D0002DED0A8B0121C34806F007FD01287CD18C
:1048E000C5480078002879D00A210220FFF764FE2D
:1048F000C24908800846008800EE100AB8EE400A57
:10490000DFEDBF0A20EE200ADFEDBE0A20EE200A0E
:10491000BD4880ED000ABD4890ED000ABA48D0EDD0
:10492000000A30EE200AB94880ED000A0A21002072
:10493000FFF742FEB64908800846008800EE100ADC
:10494000B8EE400ADFEDAE0A20EE200ADFEDAD0A38
:1049500020EE200AAF4880ED000AAF4890ED000A33
:10496000AC48D0ED000A30EE200AAB4880ED000ADA
:104970000A210120FFF720FEA84908800846008888
:1049800000EE100AB8EE400ADFED9D0A20EE200A84
:10499000DFED9C0A20EE200AA14880ED000AA14824
:1049A00090ED000A9E48D0ED000A30EE200A9D48A6
:1049B00080ED000A0A210320FFF7FEFD9A490880D6
:1049C0000846008800EE100AB8EE400ADFED8C0AB7
:1049D00020EE200ADFED8B0A01E0FDE3FDE320EE8F
:1049E000200A924880ED000A914890ED000A8F4815
:1049F000D0ED000A30EE200A8D4880ED000A0A2131
:104A00000520FFF7D9FD8B4908800846008800EE95
:104A1000100AB8EE400ADFED7A0A20EE200ADFED38
:104A2000790A20EE200A844880ED000A834890ED40
:104A3000000A8148D0ED000A30EE200A7F4880ED60
:104A4000000A0A210620FFF7B7FD7D4908800846C5
:104A5000008800EE100AB8EE400ADFED690A20EE89
:104A6000200ADFED680A20EE200A764880ED000A71
:104A7000754890ED000A7348D0ED000A30EE200A28
:104A8000714880ED000A0A210420FFF795FD6F4967
:104A900008800846008800EE100AB8EE400ADFEDF4
:104AA000580A20EE200ADFED570A20EE200ADFED3B
:104AB000680A20EE200A674880ED000A6648007800
:104AC00000287DD15548008800EE100AB8EE400A53
:104AD000DFED4B0A60EE200A604890ED000A9FED82
:104AE000491A10EE810A9FED5E1ADFED5E0A40EE74
:104AF000010AB1EE600A5C4880ED000A4A4800886D
:104B000000EE100AB8EE400ADFED3D0A60EE200A22
:104B1000564890ED000A9FED3B1A10EE810A9FED7A
:104B2000541ADFED540A50EE010AB1EE600A524801
:104B300080ED000A3F48008800EE100AB8EE400AF7
:104B4000DFED2F0A60EE200A4C4890ED000A9FED41
:104B50002D1A10EE810A9FED4A1ADFED4A0A40EE47
:104B6000010AB1EE600A484880ED000A3448008826
:104B700000EE100AB8EE400ADFED210A60EE200ACE
:104B8000424890ED000A9FED1F1A10EE810A9FED3A
:104B9000401ADFED400A50EE010AB1EE600A3E48CD
:104BA00080ED000A1548008800EE100AB8EE400AB1
:104BB000DFED130A60EE200A384890ED000A00E0AD
:104BC000C1E09FED101A10EE810A9FED351ADFED5E
:104BD000350A40EE010A3448C0ED000A0C4865E091
:104BE0000004004000080040900000200000014048
:104BF0009400002098000020840000202C01002058
:104C0000D5FF7F399643534094010020B401002022
:104C1000280100209C010020BC0100202A01002066
:104C2000E4010020DC0100202E010020F001002022
:104C3000E801002032010020CC010020C401002046
:104C400034010020D8010020D001002030010020D4
:104C50000000AC417C02002090020020E001002016
:104C600055C1B040F775603CFC010020EC0100200C
:104C7000234AB540ED0DBE3B00020020C8010020D4
:104C80009A99B14048507C3CF4010020D4010020A6
:104C9000E483B240FF21FD3CF8010020B801002070
:104CA000355EC541A301BC3D90010020008800EEA7
:104CB000100AB8EE400A5FED2E0A60EE200AFE48A8
:104CC00090ED000A1FED311A10EE810A1FED0C1A4B
:104CD0005FED0C0A40EE010AF848C0ED000AF84802
:104CE00090ED000AF548D0ED000A30EE200AB1EE52
:104CF000400AF44880ED000AF3480088401CF2495D
:104D00000880EE4890ED000AED48D0ED000AB0EEC4
:104D1000001A01EE200ADFEDED0A20EE200AEC4831
:104D200080ED000AE74890ED000AE448D0ED000A63
:104D3000B0EE001A01EE200ADFEDE40A20EE200AB0
:104D4000E44880ED000ADE4890ED000AE248E349BD
:104D5000097800EB810080ED000AE0480078401CF3
:104D6000DE490870084600780A2801D10020087042
:104D7000DB480078401CDA490870084600780A28A9
:104D800001D100200870D448D449097800EB810093
:104D900090ED000ADFEDD30AB4EEE00AF1EE10FA6E
:104DA0007DDDCD48CE49097800EB810090ED000A09
:104DB000DFEDCD0AB4EEE00AF1EE10FA6FD200207A
:104DC000C1490880C94890ED000AC948D0ED000AE1
:104DD00080EE201A11EE104A20460BF013F841EC39
:104DE000190BB0EE490AF0EE690A09F08DFFB0EE3A
:104DF000408AF0EE608A51EC180B0AF0C7F9BD4901
:104E00000860BD4890ED000AB948D0ED000A80EE78
:104E1000201A11EE104A20460AF0F4FF41EC190B5B
:104E2000B0EE490AF0EE690A09F06EFFB0EE408A72
:104E3000F0EE608A51EC180B0AF0A8F9AF4908604F
:104E4000AF4890ED000AAA48D0ED000A80EE201A83
:104E500011EE104A20460AF0D5FF41EC190BB0EED6
:104E6000490AF0EE690A09F04FFFB0EE408AF0EE11
:104E7000608A51EC180B0AF089F9A2490860A2482F
:104E800090ED000A9A48D0ED000A80EE201A11EE4B
:104E9000104A20460AF0B6FF41EC190B00E032E060
:104EA000B0EE490AF0EE690A09F02EFFB0EE408A32
:104EB000F0EE608A51EC180B0AF068F9934908602B
:104EC0009FED930A934880ED000A9FED910A924866
:104ED00080ED000A9FED8E0A844880ED000A9FED68
:104EE0008C0A854880ED000A9FED890A844880ED90
:104EF000000A9FED870A844880ED000A9FED840A2E
:104F00007B4880ED000A85480088401C8349088062
:104F1000834890ED000A60EE000A744890ED000AA4
:104F20009FED801A00EE810A80ED000A7E4890ED28
:104F3000000A60EE000A704890ED000A9FED791AB1
:104F400000EE810A80ED000A784890ED000A60EEDC
:104F5000000A6B4890ED000A9FED721A00EE810A7C
:104F600080ED000A724890ED000A60EE000A664883
:104F700090ED000A9FED6B1A00EE810A80ED000AA9
:104F80005B4890ED000ADFED670A30EE200A80ED05
:104F9000000A684890ED000AFDF729FC664931F8DF
:104FA0001000A0F5527000EE100AB8EEC00ADFED56
:104FB000630A20EE200A624880ED000A5D4890ED09
:104FC000000AFDF714FC5F4931F81000A0F552709B
:104FD00000EE100AB8EEC00ADFED580A20EE200AF3
:104FE000594880ED000A594959483A4AD2ED000A19
:104FF000374A92ED000A00F03FFC5348D0ED001A0A
:105000004F4890ED001A53495348504AD2ED000AD8
:105010004F4A92ED000AFFF7C5FBF3EE044A9FEDFD
:105020004F4ADFED3B3A4E4890ED003A4D48D0ED07
:10503000002A9FED4D2ADFED4D1A9FED4D1A4D4987
:105040004D48DFED330A434A92ED000AB1EE400AC3
:1050500003F0ADFD3F4800680AF0D4FE41EC190BA7
:10506000B0EE490AF0EE690A08F032FFB0EE408A6D
:10507000F0EE608A9FED410B53EC102B51EC180BB6
:105080000AF08EFB17D23F480088401C3D4908803B
:10509000084600884CF2503188427BDD01203A49B5
:1050A000087000203949086036490880384800787F
:1050B00000B970E074E076E0C001002098010020A3
:1050C00090010020A001002084010020ABAAAABE0C
:1050D000A4010020A8010020E41700208B0100207B
:1050E0008A01002017B7D13817B7D1B804020020C1
:1050F0006002002014020020080200201802002094
:105100000C0200201C0200201002002020020020BF
:1051100000000000480200204C0200208201002014
:10512000F401002017B75138F8010020FC010020DD
:105130000002002034020020420300208D0A9C3A25
:105140009C020020A20C0020A002002028020020C7
:1051500024020020300200202C0200200000A04287
:1051600098020020940200200000C842000048C2BB
:1051700000004842B0020020B00100200000000002
:10518000000010408601002091020020A8824242C7
:105190008C01002010E00120FE490870FE490870D3
:1051A000FEF7E2FE08E00020FC4908700120FC49FF
:1051B00008600020FB490880F648007800287DD070
:1051C000F648007800280DD0F748007858B901203B
:1051D000F6490860F44901E020E377E20870002016
:1051E000F3490880A6E0F2480088B0F5C87F66DB86
:1051F000F04890ED000AF048D0ED000A80EE201A49
:10520000B0EE418AED4890ED000AEB48D0ED000A7F
:1052100080EE201AF0EE418AE949EA48F0EE480AA9
:10522000B0EE680A00F028FBE748D0ED001AE74826
:1052300090ED001AE649E748E14AD2ED000AE14A5A
:1052400092ED000AFFF7AEFADD49DE48E24AD2ED00
:10525000000AE24A92ED000A00F00EFBDA48D0EDB7
:10526000001ADA4890ED001ADD49DE48D44AD2ED42
:10527000000AD44A92ED000AFFF794FAD94890ED5B
:10528000000AD94880ED000AD54890ED000AD748B9
:1052900080ED000A5FED624A9FEDD54A5FED643A0A
:1052A0001FED603ADFEDD32A1FED512A5FED511A51
:1052B0001FED511AD049D148C64A01E028E021E04B
:1052C000D2ED000AC74A92ED000A03F070FCFFEE2F
:1052D000004AB7EE004A5FED723A1FED6E3ADFED1D
:1052E000C52A1FED5F2A5FED5F1A1FED5F1AC449E3
:1052F000C448B74AD2ED000AB94A92ED000A03F059
:1053000056FC17E0AA480088401CA949088011E013
:10531000A548007820B10020A4490860A24908707F
:10532000B6EE000AB54880ED000A1FED870AB548C1
:1053300080ED000AB14890ED008AB248D0ED008AB5
:10534000B148D0ED000AB3EE011A70EE810AF5EE15
:10535000C00AF1EE10FA0AD2D0ED000AB3EE011A3B
:1053600070EE810A9FEDA91A70EE810A1FE0A6482F
:10537000D0ED000AB3EE011A70EE810A9FEDA31A78
:10538000F4EEC10AF1EE10FA0ADBD0ED000AB3EE3A
:10539000011A70EE810A9FED9D1A70EEC10A06E0B7
:1053A0009948D0ED000AB3EE011A70EE810AB0EE12
:1053B000600AFDF71CFA964931F81000A0F552700A
:1053C00000EE100AB8EEC09A8F48D0ED000AB3EE96
:1053D000011A70EE810AF5EEC00AF1EE10FA0AD257
:1053E000D0ED000AB3EE011A70EE810A9FED871A24
:1053F00070EE810A1FE08448D0ED000AB3EE011A76
:1054000070EE810A9FED811AF4EEC10AF1EE10FAF6
:105410000ADBD0ED000AB3EE011A70EE810A9FEDAF
:105420007B1A70EEC10A06E07748D0ED000AB3EEB1
:10543000011A70EE810AB0EE600AFDF7D8F97549DD
:1054400031F81000A0F5527000EE100AF8EEC09A84
:1054500028EE290A08EEC90A5A4880ED000A28EE0B
:10546000090A08EEA90A564880ED000A00BF55480F
:105470000468534890ED008A674804609FED670A0E
:1054800028EE000A10EE101A08460AF0BBFC41ECA8
:105490001A0B20460AF0B6FC41EC1C0B9FED600B8A
:1054A00053EC102B0AF0B8F941EC1B0B53EC1A2B00
:1054B00009F09EFE41EC190B09F068FE5A4908609C
:1054C00000BF5A4890ED000A5FEDEA0A60EE200A3C
:1054D0004D4890ED000A9FED4D1A00EE810A80EDD7
:1054E000000A90ED000AB5EEC00AF1EE10FA06D2FD
:1054F00090ED000ADFED450A30EE200A13E0424845
:1055000090ED000ADFED410AB4EEE00AF1EE10FA88
:1055100006DB90ED000ADFED3D0A30EE600A02E0A6
:10552000394890ED000A384880ED000A3A4890ED7D
:10553000000A3D48D0ED000A30EE200AB1EE400AE4
:105540003B4880ED000A344890ED000ADFED390A4F
:1055500030EE200A80ED000A334890ED000ADFEDBE
:10556000350A30EE200A80ED000A314890ED000A3D
:10557000DFED300A30EE200A80ED000A264890ED7B
:10558000000ADFED2D0AB4EEE00AF1EE10FA5ADD62
:1055900054E00000780000208C01002091020020DF
:1055A000A8824242860100209202002088024242E4
:1055B00088010020F8010020A4000020F401002050
:1055C0002802002024020020A00200209C020020CB
:1055D000840200208002002000020020FC01002044
:1055E0008C0200208802002040020020440200209B
:1055F0003333733FCDCC4C3DB40200203802002041
:10560000B80200203C020020340200200000964432
:1056100042030020A20C002090000020D7B35D3F81
:10562000000000000000E0BF94000020B001002056
:1056300098000020000052440000D2441FED020AEE
:1056400080ED000A0BE0934890ED000AB5EEC00A29
:10565000F1EE10FA03D29FED900A80ED000A8F4818
:1056600090ED000A5FED0C0AB4EEE00AF1EE10FADC
:1056700004DD1FED0F0A80ED000A0BE0874890ED76
:10568000000AB5EEC00AF1EE10FA03D29FED820ACD
:1056900080ED000A824890ED000A5FED190AB4EE31
:1056A000E00AF1EE10FA04DD1FED1D0A80ED000A9C
:1056B0002AE07B4890ED000AB5EEC00AF1EE10FA40
:1056C00022D29FED750A80ED000A1DE07548008822
:1056D000401C744908809FED700A734880ED000AF1
:1056E0009FED6D0A714880ED000A0846008842F27D
:1056F0001071884208DD01206D4908706D4803F083
:1057000051FA01206C4908706C480088401C6B49B4
:1057100008800846008840F69F7188427ED10020AC
:1057200066490880664890ED000AFDF71BF80446BC
:10573000214664480068083006F048FD624890ED54
:10574000000AFDF70FF8044621466048006808305B
:1057500006F03CFD5E4890ED000AFDF703F80446B4
:1057600021465C480068083006F030FD5A48D0ED0C
:10577000000A5A48008800EE100AB8EE400A80EE8F
:10578000801A574880ED001A5648D0ED000A534859
:10579000008800EE100AB8EE400A80EE801A5248E7
:1057A00080ED001A5148D0ED000A4C48008800EE08
:1057B000100AB8EE400A80EE801A4D4880ED001ABB
:1057C0004C48D0ED000A4548008800EE100AB8EEBB
:1057D000400A80EE801A484880ED001A4748D0ED14
:1057E000000A3E48008800EE100AB8EE400A80EE3B
:1057F000801A434880ED001A4248D0ED000A37482D
:10580000008800EE100AB8EE400A80EE801A3E488A
:1058100080ED001A9FED200A2F4800E025E080ED82
:10582000000A9FED1D0A2F4880ED000A9FED1A0A1D
:105830002E4880ED000A9FED180A2E4880ED000AE0
:105840009FED150A2D4880ED000A9FED130A2D48A3
:1058500080ED000A01202D490870002016490870CB
:105860001E49088001202A4908700121294805F0B5
:105870004DFDBDEC0A8B10BD80ED000A9FED261A90
:1058800020EE011ADFED251A01EEA01A81ED001AB3
:1058900070470000900000200000000094000020ED
:1058A00098000020360100204C010020500100200B
:1058B00084000020B002002090020020600100203F
:1058C00014020020580000201C0200205C00002070
:1058D0002C02002060000020B40100208201002082
:1058E000B8010020BC010020C0010020C40100203C
:1058F000C8010020D0010020D4010020DC010020DC
:10590000E0010020E8010020EC01002085000020DB
:1059100079000020000800403ACD133F3ACD933F74
:1059200000B585B00021BE4806F06EF90020ADF844
:1059300000004FF48270ADF802000020ADF80400C2
:10594000ADF80600ADF808004FF40070ADF80A009D
:105950003820ADF80C000020ADF80E000720ADF89F
:1059600010006946AE4806F055F80121AC4806F033
:105970004BF905B000BD1CB50121402004F0A0F991
:10598000C020009001208DF8040000208DF8060052
:1059900003208DF8050001208DF807006946A14815
:1059A00003F00CFC4FF48070009000208DF8040090
:1059B00001208DF8070069469A4803F0FFFB00F0CC
:1059C00058F9FFF7ADFF002097490860012097497B
:1059D000C1F89C021CBD2DE9F04107460D46164654
:1059E00000209149091D0860384600F029F98046D9
:1059F000002405E0FF2000F023F92855601CC4B204
:105A0000B442F7DB01208849091D08604046BDE823
:105A1000F0812DE9F04107460C46154600208249E9
:105A2000091D0860384600F00BF98046002605E0A5
:105A300014F8010B00F004F9701CC6B2AE42F7DB9B
:105A400001207949091D08604046BDE8F0811CB578
:105A500077A103C9CDE90001102000F067F9052204
:105A600069463020FFF7D5FF052269461020FFF771
:105A7000B2FF002406E01DF80400A52800D003E0D2
:105A8000601CC4B2052CF6DB00BF052C01D0012040
:105A90001CBD0020FCE770B505460C46002062499D
:105AA000091D0860284600F0CBF80646204600F0A5
:105AB000C7F801205D49C1F89C02304670BD70B541
:105AC000044600205849091D0860204600F0B8F837
:105AD000FF2000F0B5F8054601205449C1F89C02AA
