:020000040800F2
:1000000088190020A16200084D0800084F08000868
:1000100053080008570800085B08000800000000AB
:100020000000000000000000000000005F08000861
:100030006108000800000000630800086508000867
:10004000BB620008BB620008BB620008BB6200081C
:10005000BB620008BB620008BB620008BB6200080C
:100060005F490008E7480008BB620008BB6200085F
:10007000BB620008BB620008BB620008BB620008EC
:10008000BB620008BB620008BB620008BB620008DC
:10009000BB620008BB620008BB620008BB620008CC
:1000A000BB6200088F400008BB620008BB6200080A
:1000B000BB620008954A0008BB620008BB620008EA
:1000C000BB620008BB620008BB620008BB6200089C
:1000D000BB6200086D4D0008BB620008BB620008EF
:1000E000BB620008BB620008BB620008BB6200087C
:1000F000BB620008BB620008BB620008BB6200086C
:10010000BB620008BB620008BB620008BB6200085B
:10011000BB620008BB620008BB620008BB6200084B
:10012000BB620008BB620008BB620008BB6200083B
:10013000BB620008BB620008BB620008BB6200082B
:10014000BB620008BB620008BB620008BB6200081B
:10015000BB620008BB620008BB620008BB6200080B
:10016000BB620008BB620008BB620008BB620008FB
:10017000BB620008BB620008BB620008BB620008EB
:10018000BB620008BB62000800F002F800F072F8E1
:100190000AA090E8000C82448344AAF10107DA45E2
:1001A00001D100F067F8AFF2090EBAE80F0013F0C2
:1001B000010F18BFFB1A43F00103184748E900007C
:1001C00068E900000A444FF0000C10F8013B13F0FE
:1001D000070408BF10F8014B1D1108BF10F8015BA0
:1001E000641E05D010F8016B641E01F8016BF9D193
:1001F00013F0080F1EBF10F8014BAD1C0C1B09D1EA
:100200006D1E58BF01F801CBFAD505E014F8016B5B
:1002100001F8016B6D1EF9D59142D6D370470000ED
:100220000023002400250026103A28BF78C1FBD8FF
:10023000520728BF30C148BF0B60704766290CF0D9
:100240002480782908F0BA83002070471FB50CF08D
:1002500012F809F031F80400002000210BF03CF9FD
:10026000401C6060002000210BF020F9E0601FBD01
:1002700010B510BD09F04CF91146FFF7E7FF00F08B
:100280007EFA09F0C5FB03B4FFF7F2FF03BC04F0EC
:100290000DFD000010B52DED0C8B00243BE0601C23
:1002A0000BF01BFC41EC1D0B9FEDFE0B53EC102BD8
:1002B0000BF07AFC41EC1C0B9FEDFC0B53EC102B6C
:1002C0000BF01AFA41EC1B0BB0EE4B0AF0EE6B0A86
:1002D0000AF062FBB0EE40AAF0EE60AA9FEDF50BCB
:1002E00053EC102B51EC1A0B0BF05EFC41EC190B8C
:1002F0009FEDF00B53EC102B0BF042F941EC180B77
:10030000B0EE480AF0EE680A02F0F7FAEB4921F87D
:100310001400601CC4B2C82CC1DBBDEC0C8B10BD3A
:100320003EB54FF6FF7001F0A5FA0020E4490880C1
:100330000880E4A01E236E22142100900A2005F0FC
:10034000D5FEE1490860DFA01E236E223721009010
:100350000A2005F0CBFEDD490860C92050211E238C
:10036000C822CDE900105F21142005F047FED849CE
:100370000860D8A0102114236422CDE900107D214B
:10038000262002F0FDF99FEDD50B7D214E2002F0D5
:1003900019FB1E21CE48006805F0F1F9D1A02823F1
:1003A000DC22AF2100900A2005F0A0FECE490860B3
:1003B000CEA010210B463C22CDE9001002210520E1
:1003C00002F0DEF9CBA010210B460822CDE9001087
:1003D0001A217D2002F0D4F9C7A010210B46082273
:1003E000CDE900103D217D2002F0CAF90020C3A212
:1003F000CDE9002023235A220A2102908C2005F007
:1004000031FDC149086001200021C0A22323CDE9AC
:10041000002102905A2237218C2005F023FDBE498D
:100420000860002405E0002500E06D1C062DFCDBC3
:10043000641C032CF7DB002431E000252CE014B908
:10044000032D00D127E014B9042D00D123E004EBE3
:1004500084006430284480B2002204EB84012944E3
:10046000AE4B53F82110CDE900120290C4EB4412B8
:10047000DF3291B22E2305FB03F2093290B2192329
:10048000282205F0EFFC04EB8401A54A02EB810170
:1004900041F8250000BF6D1C052DD0DB641C032C2A
:1004A000CBDB01219848006805F09AF900209D49AE
:1004B00008704FF47840824908803EBDF8B5054683
:1004C0000E4614461F4604B9F8BD2819401E82B2D4
:1004D000334631462846009701F0EDFC00BFF3E7B4
:1004E0002DE9F05F0746884616469A4640F2C3203B
:1004F00070434FF47A71B0FBF1F000F1010906FB93
:1005000006F000EB560B344671040A0CB91B88B296
:1005100053464146FFF7D2FF012535E005FB05F0C4
:1005200004FB040058451AD94C4517D96B1E5B04CF
:100530001A0C08EB040399B27B1B5B1C98B2534660
:10054000FFF7BCFF6B1E5B041A0CA8EB040399B207
:100550007B1B5B1C98B25346FFF7B0FF641E63041D
:100560001A0C08EB050399B23B1B98B25346FFF7F0
:10057000A5FF63041A0CA8EB050399B23B1B98B2C4
:100580005346FFF79BFF6D1C4D45C7D9BDE8F09F53
:1005900002468A4202DD501A80B27047881A80B241
:1005A000FBE72DE9FF4F85B080468946129F00206A
:1005B00003900290B84507DB0798B84204DBB945C1
:1005C00002DB0898B84202DA09B0BDE8F08F07985C
:1005D000A0EB08040898A0EB0905CDF80480CDF83D
:1005E0000090002C02DD4FF0010A06E014B94FF034
:1005F000000A02E04FF0FF3A6442002D02DD4FF0A6
:10060000010B06E015B94FF0000B02E04FF0FF3B85
:100610006D42AC4201DD264600E02E4600200490EB
:1006200023E0009A91B2019A90B23A46139BFFF7E9
:1006300057FF03982044039002982844029003989F
:10064000B04205DD0398801B03900198504401904F
:100650000298B04205DD0298801B02900098584431
:1006600000900498401C80B20490711C0498884249
:10067000D7DD00BFA8E710B52B48416800208847A8
:10068000294890F8200000F0800048B12648808971
:1006900026490988884271DA2348C08A234947E0FD
:1006A0005FE000004AD8124DFB2119400000000015
:1006B000000069400000000000408A4088010020DE
:1006C0009C0000203000000050000020540000205A
:1006D0004C000020467265713A00000000000000E6
:1006E0000000494035300000600000204F757470F4
:1006F00075743A0056000000410000004F70656EAE
:10070000204C6F6F7000000040000020436C6F733E
:1007100065204C6F6F700000440000200000002036
:100720004C01002068000020A000002018030020D9
:100730004988884222DA3848007850B93748C38A55
:1007400082890121002005F047F901203249087013
:1007500014E03248C38A82890321002005F03CF965
:100760000CE02D48007848B12C48C38A82890221C8
:10077000002005F031F900202749087010BDA8209D
:1007800004F012FA4FF4A06005F0AAFD4FF41650E1
:1007900004F09AFA00F070F901202149086001F094
:1007A0009BF804F085F81D490868804703F0ECFFCA
:1007B000FFF770FD4FF478401A490880FFF7B0FD4D
:1007C00001201949088042F210701849088041F24E
:1007D000680004F031F903F03CFC9FED150A154860
:1007E00080ED000A17E0FFF746FF1348007890B14C
:1007F0000020114908701148006804F044FB1048BB
:10080000006804F040FB0F48006804F03CFB0E4811
:10081000006804F038FBE6E784000020A000002018
:10082000880240429C0000207C0000207E000020C6
:10083000000048427800002069000020500000209D
:1008400054000020580000205C000020704700BFCA
:10085000FEE700BFFEE700BFFEE700BFFEE7704710
:1008600070477047704700000CB500200190009061
:100870007648006840F480307449086000BF7348CF
:10088000006800F4003000900198401C019000982E
:1008900018B90198B0F5A04FF1D16C48006800F488
:1008A000003010B10120009001E00020009000987D
:1008B000012846D165484030006840F080506349C7
:1008C000403108606248006840F440406049086078
:1008D0005E48083000685D490831086008460068D5
:1008E00040F4004008600846006840F4A0500860EA
:1008F0005848091F0860081F006840F08070091FF1
:10090000086000BF5148006800F000700028F9D06E
:1009100040F20570504908604C480830006820F0EB
:1009200003004A49083108600846006840F00200A8
:10093000086000BF45480830006800F00C00082837
:10094000F8D10CBD10B54548006840F4700043492B
:1009500008603E48006840F001003C490860002003
:100960003A4908310860394800683D49084037492C
:1009700008603C48091D0860081F006820F48020BA
:10098000091F0860002031490C310860FFF76CFF37
:100990004FF0006031498039086010BD70B500200B
:1009A0000022022300240221284D08352D6805F07D
:1009B0000C0020B1042806D0082834D107E02A4DC5
:1009C0002A4E356033E02A4D284E35602FE01F4D0A
:1009D0002D1D2D68C5F380541C4D2D1D2D6805F06F
:1009E0003F0154B1224DB5FBF1F5184E361D366866
:1009F000C6F3881605FB06F209E01B4DB5FBF1F5C1
:100A0000124E361D3668C6F3881605FB06F20F4DEA
:100A10002D1D2D68C5F301456D1C6B00B2FBF3F570
:100A2000124E356003E0104D104E356000BF00BF20
:100A3000064D08352D68C5F303150E4E705D0B4D40
:100A40002D68C540094E356070BD00000038024079
:100A50000070004008544007003C024088ED00E070
:100A6000FFFFF6FE103000240024F4008800002070
:100A700000127A008C0000201CB50121202006F015
:100A8000A7FA4FF4C060009001208DF80400002008
:100A90008DF8060003208DF8050001208DF8070071
:100AA0006946254805F012FD4FF4C061224805F063
:100AB00089FD012000908DF8040000208DF80600CB
:100AC00003208DF8050002208DF8070069461B48B9
:100AD00005F0FCFC0121194805F076FD042000908A
:100AE00001208DF8040000208DF8060003208DF809
:100AF000050001208DF807006946104805F0E6FC66
:100B000004210E4805F05EFD1020009001208DF8B4
:100B1000040000208DF8060003208DF80500022057
:100B20008DF807006946054805F0D0FC10210448FF
:100B300005F048FD1CBD000000140240000002400A
:100B4000001002400346DB108910D210D80240EAA0
:100B50004110104380B2704701B5BDF8000000900D
:100B6000BDF80000F849088008BD01B5BDF80000D7
:100B70000090BDF80000F449891C088008BD08B544
:100B8000F148801C00880090BDF8000008BDEE4AC6
:100B900010804FF0D842A2F88010704710B504467C
:100BA0002046FFF7D9FF052004F018F8FFF7E7FF0C
:100BB00010BDE6480089E44908807047E249891C75
:100BC0000880704730B5014601F01F04C1F345139A
:100BD000CA0AE50205EB43151544A8B230BD00BFB3
:100BE0000100A0F10102D0B2FAD1704730B504463D
:100BF0000D46D648808849F24131884205D0D34815
:100C0000808845F21031884214D1D0494889FFF7D5
:100C1000A3FF2012FFF7A9FFE0B2FFF7A6FFCB4921
:100C20008889FFF799FF2812FFF79FFFE8B2FFF7C7
:100C30009CFFABE0C548808846F6040188421DD180
:100C4000C2488079012804D1C0480088401E001B9A
:100C500084B2BE494889FFF77FFF2012FFF785FF66
:100C6000E0B2FFF782FFB9498889FFF775FF2812C4
:100C7000FFF77BFFE8B2FFF778FF87E0B348808893
:100C800041F66311884247D1B0488079A8B9AF488E
:100C90000088401E001B84B2AC494889FFF75CFF06
:100CA0000020FFF762FF0020FFF75FFF2012FFF731
:100CB0005CFFE0B2FFF759FF16E0A4494889FFF74F
:100CC0004BFF2012FFF751FFE0B2FFF74EFF9F49A5
:100CD0000988491EC1F30F20FFF747FF9B49097898
:100CE000491EC8B2FFF741FF98498889FFF734FFD2
:100CF0002812FFF73AFFE8B2FFF737FF9349498818
:100D0000491EC1F30F20FFF730FF90498978491E33
:100D1000C8B2FFF72AFF39E08C48808845F21051AD
:100D2000884220D189494889FFF716FF2012FFF732
:100D30001CFF86494989491C88B2FFF70DFFE0B2C4
:100D4000FFF713FF81498889FFF706FF2812FFF795
:100D50000CFF7E498989491C88B2FFF7FDFEE8B285
:100D6000FFF703FF12E079488079012804D1774822
:100D70000088401E001B84B2744948892146FFF751
:100D800006FF724988892946FFF701FF30BD2DE92A
:100D9000F04105460E4600240027A0466B48008817
:100DA000A84203DD69484088B04202DC0020BDE86B
:100DB000F08131462846FFF719FF6448808849F2E0
:100DC0004131884211D06148808846F6040188424A
:100DD0000BD05E48808845F21031884205D05B48D0
:100DE000808841F66311884203D12E20FFF7B4FEBC
:100DF0000DE05648808845F21051884204D14FF4E6
:100E00003850FFF7A9FE02E02220FFF7A5FE4F4869
:100E1000808849F22031884202D10220FFF7DFFEAC
:100E2000FFF7ADFE04464948808841F663118842C9
:100E300001D12046BBE70220FFF7D1FEFFF79FFE5E
:100E400004464248808849F2413188420BD03F48ED
:100E5000808845F21031884205D03C48808845F2B0
:100E6000105188420AD10220FFF7B9FEFFF787FE32
:100E70008046E7B24FF6FF7000EA072733488088C4
:100E800049F22531884216D03048808844F23551E5
:100E9000884210D02D488088091F88420BD02B48EB
:100EA00080884BF20551884205D0284880884CF252
:100EB0000551884201D1204679E72448808849F2CB
:100EC000413188420BD02148808845F21031884258
:100ED00005D01E48808845F21051884207D1E012A3
:100EE000C002B91240EA411040EAE8205FE720461C
:100EF000FFF768FE5BE700B51448808849F241318E
:100F0000884211D01148808846F6040188420BD0EF
:100F10000E48808845F21031884205D00B48808801
:100F200041F66311884203D12920FFF715FE14E032
:100F30000648808845F21051884209D14FF4245068
:100F4000FFF70AFE09E000007E00006C1803002095
:100F500040F273110720FFF71AFE00BD00B5FD48EF
:100F6000808849F24131884211D0FA48808846F69B
:100F7000040188420BD0F748808845F2103188423E
:100F800005D0F448808841F66311884203D12820B7
:100F9000FFF7E2FD0EE0EF48808845F210518842ED
:100FA00004D14FF42050FFF7D7FD03E000210720C4
:100FB000FFF7EDFD00BDF0B5054600240027E5482C
:100FC000807901280BD1E348808846F604018842E5
:100FD00005D0E048808841F66311884208D1DD4899
:100FE0008079F0B9DB48808841F66311884218D1D6
:100FF000082D15D2DFE805F00406080A0C0E1012C1
:1010000006250DE007250BE0042509E0052507E08E
:10101000012505E0002503E0032501E0022500BFCE
:1010200000BFCC48808849F24131884217D0C94876
:10103000808846F60401884211D0C648808845F26F
:10104000103188420BD0C348808845F21051884245
:1010500005D0C048808841F6631188427ED1082DB2
:101060001CD2DFE805F00406090C0F12151800BFAA
:1010700014E044F0800411E044F040040EE044F039
:10108000C0040BE044F0200408E044F0600405E0F4
:1010900044F0A00402E044F0E00400BF00BFAD480B
:1010A000808845F21051884202D14FF4585700E031
:1010B0003627A848808845F2103188420DD0A548CF
:1010C000808845F21051884207D0A248808841F6B6
:1010D0006311884201D044F008049E48808846F697
:1010E0000401884201D144F0020421463846FFF74A
:1010F0004EFD9848808841F6631188421DD004F067
:10110000200068B19348008892494988884214DADF
:101110009048068840888F490880084646800CE041
:101120008C4800888B494988884206DD89480688B2
:10113000408888490880084646808648808845F26D
:101140001051884254D183494889FFF705FD00209A
:10115000FFF70BFD7F494989491C00E077E088B221
:10116000FFF7FAFC0020FFF700FD7A494989891C46
:1011700088B2FFF7F1FC77490988491EC1F30F20B7
:10118000FFF7F3FC73494989C91C88B2FFF7E4FCF7
:1011900070490978491EC8B2FFF7E7FC6D49888994
:1011A000FFF7DAFC0020FFF7E0FC6A498989491C57
:1011B00088B2FFF7D1FC0020FFF7D7FC6549898989
:1011C000891C88B2FFF7C8FC62494988491EC1F3EF
:1011D0000F20FFF7CAFC5F498989C91C88B2FFF755
:1011E000BBFC5C498978491EC8B2FFF7BEFC55E0DC
:1011F00058494889FFF7B0FC0020FFF7B6FC0020F3
:10120000FFF7B3FC53490988491EC1F30F20FFF7CC
:10121000ACFC50490978491EC8B2FFF7A6FC4D49FD
:101220008889FFF799FC0020FFF79FFC0020FFF75B
:101230009CFC48494988491EC1F30F20FFF795FCE3
:1012400044498978491EC8B2FFF78FFC26E0082D73
:101250001CD2DFE805F004070A0D0F12151844F040
:10126000300413E044F0100410E044F020040DE0DA
:1012700000BF0BE044F0380408E044F0280405E027
:1012800044F0180402E044F0080400BF00BF032744
:1012900044F4805421463846FFF779FCF0BD30B560
:1012A00004460D4629462046FFF7A0FCFFF781FCC7
:1012B000294800882949088030BD70B504460D468C
:1012C00016462448808849F24131884205D0214899
:1012D000808845F21031884214D11E494889FFF7B1
:1012E0003BFC2012FFF741FCE0B2FFF73EFC19493E
:1012F0008889FFF731FC2812FFF737FCE8B2FFF7C7
:1013000034FC93E01348808845F21051884227D17D
:1013100010494889FFF720FC2012FFF726FC0D49F1
:101320004989491C88B2FFF717FCE0B2FFF71DFCA2
:1013300008498889FFF710FC2812FFF716FC0549B9
:101340008989491C88B2FFF707FCE8B2FFF70DFC5A
:101350006CE00000180300209C0000208000006C5E
:10136000FE48808841F66311884228D1FB48807985
:1013700020B9FA480088401E001B84B2F74948890A
:10138000FFF7EAFB2012FFF7F0FBE0B2FFF7EDFBFF
:101390002012FFF7EAFBE0B2FFF7E7FBEF4988898D
:1013A000FFF7DAFB2812FFF7E0FBE8B2FFF7DDFBFF
:1013B0002812FFF7DAFBE8B2FFF7D7FB36E0E74881
:1013C000808846F6040188421DD1E44880790128CE
:1013D00004D1E2480088401E001B84B2DF494889DE
:1013E000FFF7BAFB2012FFF7C0FBE0B2FFF7BDFB2F
:1013F000DA498889FFF7B0FB2812FFF7B6FBE8B29D
:10140000FFF7B3FB12E0D5488079012804D1D34817
:101410000088401E001B84B2D04948892146FFF74E
:10142000B6FBCE4988892946FFF7B1FBCB48008936
:10143000CB4908804FF0D840A0F8806070BD70B5EF
:101440002DED048B0446BE20FFF786FB0520FFF739
:101450008CFB20460AF058FB41EC190B9FEDC10BA9
:1014600053EC102B0AF0A0FB41EC180B0AF008FB20
:1014700085B22846FFF779FB0120FFF776FBFF20B6
:10148000FFF773FB0020FFF770FB0020FFF76DFBF9
:10149000BDEC048B70BD10B50446002C66D1AF497D
:1014A0008871F02008804FF4A0704880084680883A
:1014B00049F2413188420BD0A848808846F60401A1
:1014C000884205D0A548808845F2103188421AD15B
:1014D0002C20A24908812A2048812B208881084697
:1014E000808846F60401884205D09C48808845F2F1
:1014F0001031884206D14FF4A070984908804FF40B
:10150000F0704880A1E09548808845F210518842EB
:1015100010D14FF43050914908814FF42850488140
:101520004FF42C5088814FF4F07008804FF44870CD
:1015300048808AE08948808841F6631188420DD14D
:101540002C20864908812B2048812A2088814FF44D
:10155000F07008804FF44870488076E022207F4980
:10156000088120204881212088816EE001207B496C
:1015700088714FF4A0700880F02048800846808869
:1015800049F24131884205D07448808845F21031D3
:10159000884207D12C20714908812A2048812B20BC
:1015A00088813FE06D48808846F60401884207D173
:1015B0002C206A4908812B2048812A20888131E02B
:1015C0006648808845F21051884210D14FF430505F
:1015D000624908814FF4285048814FF42C5088818B
:1015E0004FF4487008804FF4F07048801AE05B4870
:1015F000808841F6631188420DD12C20574908811B
:101600002A2048812B2088814FF4487008804FF4AD
:10161000F070488006E0222050490881212048814E
:10162000202088814D48808846F60401884205D0F4
:101630004A48808845F21031884206D14FF4F07054
:10164000464908804FF4A07048800020FFF7B3FCA3
:1016500010BD2DE9F04F86B004460D4690469946E0
:1016600004EB0800401E86B205EB0900401E87B25D
:101670003A48808849F24131884215D037488088FD
:1016800045F2103188420FD03448808846F6040174
:10169000884209D031488079012826D12F48808896
:1016A00041F66311884220D12C494889FFF754FA4A
:1016B0002012FFF75AFAE0B2FFF757FA3012FFF79D
:1016C00054FAF0B2FFF751FA24498889FFF744FA37
:1016D0002812FFF74AFAE8B2FFF747FA3812FFF785
:1016E00044FAF8B2FFF741FAC1E01C48808841F69D
:1016F000631188423DD119480088A0EB0800001B07
:1017000084B205EB0900401E1FFA80F9134948898D
:10171000FFF722FA2012FFF728FAE0B2FFF725FAC6
:1017200004EB0801491EC1F30F20FFF71EFA04EB7A
:101730000801491EC8B2FFF718FA08498889FFF75F
:101740000BFA2812FFF711FAE8B2FFF70EFA4FEA88
:101750002920FFF70AFA09F0FF0007E0180300202C
:101760007E00006C6666666666660440FFF7FDF9FB
:101770007DE0FE48808845F21051884244D1FB4903
:101780004889FFF7E9F92012FFF7EFF9F74949898E
:10179000491C88B2FFF7E0F9E0B2FFF7E6F9F34938
:1017A0004989891C88B2FFF7D7F93012FFF7DDF9B4
:1017B000EE494989C91C88B2FFF7CEF9F0B2FFF7AC
:1017C000D4F9EA498889FFF7C7F92812FFF7CDF95C
:1017D000E6498989491C88B2FFF7BEF9E8B2FFF7EC
:1017E000C4F9E2498989891C88B2FFF7B5F9381232
:1017F000FFF7BBF9DD498989C91C88B2FFF7ACF94D
:10180000F8B2FFF7B2F932E0D848807901280ED15A
:10181000AA46BB46D5480088801B401E80B2019076
:10182000D2480088001B401E80B2009003E0A24610
:10183000B346019500975020059051200490522006
:1018400003905320029051460598FFF7A0F959469E
:101850000498FFF79CF901990398FFF798F900990C
:101860000298FFF794F929462046FFF7BFF906B022
:10187000BDE8F08F70B504460026BC480588408856
:101880004543BA48808846F60401884216D1B748D5
:101890008079012812D10020B44988712A2048811A
:1018A0002B20888100210846FFF7A0F90120AF49CD
:1018B00088712B2048812A20888103E00021084676
:1018C000FFF794F9FFF775F9002602E0A8480480B5
:1018D000761CAE42FAD370BD00B5A1B000202090B6
:1018E00001217A2005F074FB0121084605F0A8FBD0
:1018F0004FF400401E9001208DF87C0000208DF8F0
:101900007E0002208DF87D0001208DF87F001EA949
:10191000984804F0DBFD4CF233701E9002208DF8E5
:101920007C0000208DF87E0003208DF87D000120D2
:101930008DF87F001EA9904804F0C8FD4FF6807016
:101940001E9002208DF87C0000208DF87E00032080
:101950008DF87D0001208DF87F001EA9874804F0D6
:10196000B5FD4FF480501E9002208DF87C000020C1
:101970008DF87E0003208DF87D0001208DF87F001A
:101980001EA97F4804F0A2FD4FF480501E90022053
:101990008DF87C0000208DF87E0003208DF87D00FE
:1019A00001208DF87F001EA9764804F08FFD0C22DF
:1019B0000021714804F015FE0C2201216E4804F04C
:1019C00010FE0C2204216C4804F00BFE0C220521B1
:1019D000694804F006FE0C220821674804F001FE65
:1019E0000C220921644804F0FCFD0C220A21624803
:1019F00004F0F7FD0C220E215F4804F0F2FD0C22EA
:101A00000F215D4804F0EDFD0C2207215B4804F036
:101A1000E8FD0C220821594804F0E3FD0C220921BD
:101A2000564804F0DEFD0C220A21544804F0D9FD8A
:101A30000C220B21514804F0D4FD0C2211464F48D2
:101A400004F0CFFD0C220D214C4804F0CAFD0C22FD
:101A50000E214A4804F0C5FD0C220F21474804F02E
:101A6000C0FD0C221146464804F0BBFD0C22114675
:101A7000444804F0B6FD0F200890002009903C2057
:101A80000A9000200B900C900D900E900920019070
:101A900000200290082003900020049005900690FA
:101AA000079006200F9000201090119010201290A7
:101AB0000020139015901490169017904FF48050BA
:101AC0001890002019904FF480401A9000201B902D
:101AD00008A81C9001A81D900FA804F0D6FD0121B4
:101AE000062004F05DFE322003F0C0F80121002042
:101AF000FFF74DF8322003F0B9F80020FFF74EF859
:101B00001A49888008468088FF280ADB08468088B2
:101B10004FF6FF71884204D014488088B0F5134F07
:101B20007ED1D320FFF718F8FFF729F8FFF727F841
:101B3000FFF725F80D498880084680884FF6FF7129
:101B400001EA002009498880FFF719F807498988C8
:101B50000843064988800846808849F24131884216
:101B60007CD0BF20FEF7F8FF0EE000001803002035
:101B70008000006C00040240000C02400010024093
:101B80000014024000180240FEF7F9FFFEF7F7FFCD
:101B9000FEF7F5FFFEF7F3FFFB49888008468088D3
:101BA0004FF6FF7101EA0020F7498880FEF7E7FF52
:101BB000F54989880843F44988800846808846F6B4
:101BC000040188424AD0D420FEF7C6FFFEF7D7FFB3
:101BD000FEF7D5FFFEF7D3FFEB49888008468088E3
:101BE0004FF6FF7101EA0020E7498880FEF7C7FF42
:101BF000E54989880843E44988800846808845F299
:101C0000103188422AD04FF45A40FEF7A5FFFEF764
:101C1000B6FF4FF45B40FEF79FFFFEF7B0FF00E01A
:101C20001CE0D9498880084680884FF6FF7101EA98
:101C30000020D54988804FF45C40FEF78DFFFEF709
:101C40009EFFD14989880843CF498880084680880B
:101C5000B0F5004F02D145F210508880CA48818803
:101C6000CAA006F08BFEC848808849F241318842FC
:101C70007ED1CF20FEF770FF0020FEF776FFC12057
:101C8000FEF773FF3020FEF770FFED20FEF764FFD4
:101C90006420FEF76AFF0320FEF767FF1220FEF7BD
:101CA00064FF8120FEF761FFE820FEF755FF8520E5
:101CB000FEF75BFF1020FEF758FF7A20FEF755FF76
:101CC000CB20FEF749FF3920FEF74FFF2C20FEF70F
:101CD0004CFF0020FEF749FF3420FEF746FF0220AC
:101CE000FEF743FFF720FEF737FF2020FEF73DFF0A
:101CF000EA20FEF731FF0020FEF737FF0020FEF755
:101D000034FFC020FEF728FF1B20FEF72EFFC12066
:101D1000FEF722FF0120FEF728FFC520FEF71CFF7B
:101D20003020FEF722FF3020FEF71FFFC720FEF70E
:101D300013FFB720FEF719FF3620FEF70DFF4820EE
:101D4000FEF713FF3A20FEF707FF5520FEF70DFFC1
:101D5000B120FEF701FF0020FEF707FF1A20FEF773
:101D600004FFB620FEF7F8FE0A20FEF7FEFE00E0B4
:101D700095E0A220FEF7F9FEF220FEF7EDFE00202E
:101D8000FEF7F3FE2620FEF7E7FE0120FEF7EDFE4C
:101D9000E020FEF7E1FE0F20FEF7E7FE2A20FEF727
:101DA000E4FE2820FEF7E1FE0820FEF7DEFE0E200E
:101DB000FEF7DBFE0820FEF7D8FE5420FEF7D5FE26
:101DC000A920FEF7D2FE4320FEF7CFFE0A20FEF741
:101DD000CCFE0F20FEF7C9FE0020FEF7C6FE002055
:101DE000FEF7C3FE0020FEF7C0FE0020FEF7BDFE9A
:101DF000E120FEF7B1FE0020FEF7B7FE1520FEF74A
:101E0000B4FE1720FEF7B1FE0720FEF7AEFE11204C
:101E1000FEF7ABFE0620FEF7A8FE2B20FEF7A5FE80
:101E20005620FEF7A2FE3C20FEF79FFE0520FEF79F
:101E30009CFE1020FEF799FE0F20FEF796FE3F2035
:101E4000FEF793FE3F20FEF790FE0F20FEF78DFE7B
:101E50002B20FEF781FE0020FEF787FE0020FEF714
:101E600084FE0120FEF781FE3F20FEF77EFE2A2041
:101E7000FEF772FE0020FEF778FE0020FEF775FEEA
:101E80000020FEF772FEEF20FEF76FFE1120FEF736
:101E900063FE782002F0EAFE2920FEF75DFE0020B6
:101EA000FFF7F9FA01203D4908604FF6FF70FFF790
:101EB000E1FC21B000BD2DE9F04F81460C461646ED
:101EC0001F46DDF824A04FF0000B254613E02946FD
:101ED0004846FEF78BFEFEF76CFE4FF0000806E06A
:101EE0005046FEF742FE08F101001FFA80F8B045A7
:101EF000F6DB681C85B2E019401EA842E7DABDE8AF
:101F0000F08F2DE9F04782460F4615469846DDF8DA
:101F1000209000241EE0381981B25046FEF766FE7C
:101F2000FEF747FE002611E004FB05604000093083
:101F300019F8001004FB05604000083019F8000093
:101F400041EA002016490880701C86B2AE42EBDBE5
:101F5000601C84B24445DEDBBDE8F0872DE9FF4F0D
:101F600084B081468A460020039002900698A0EB38
:101F700009050798A0EB0A06CDF80490CDF800A05B
:101F8000002D0FDD012713E018030020204C4344EF
:101F90002049443A25780D0A00000000BC824042E6
:101FA0008000006C0DB9002702E04FF0FF376D4252
:101FB000002E02DD4FF0010806E016B94FF00008D0
:101FC00002E04FF0FF387642B54201DD2C4600E0DA
:101FD00034464FF0000B21E0009A91B2019A90B282
:101FE000FFF75DF90398284403900298304402906B
:101FF0000398A04205DD0398001B03900198384424
:1020000001900298A04205DD0298001B0290009802
:10201000404400900BF101001FFA80FB601C8345D7
:10202000DADD08B0BDE8F08FF0B504460D4616467F
:102030001F462B46324629462046FFF78FFF3B4678
:10204000224629462046FFF789FF3B46324639465D
:102050002046FFF783FF3B46324629463046FFF7CE
:102060007DFFF0BD2DE9F04306460F469046002463
:1020700045460320A0EB48093CE07A1B91B2321997
:1020800090B2FFF70CF93A1B91B2721990B2FFF7B8
:1020900006F93A1991B2721990B2FFF700F97A195C
:1020A00091B2321990B2FFF7FAF87A1991B2321B55
:1020B00090B2FFF7F4F83A1991B2721B90B2FFF7A1
:1020C000EEF87A1B91B2321B90B2FFF7E8F83A1B98
:1020D00091B2721B90B2FFF7E2F8641CB9F1000FE5
:1020E00003DAA000801D814404E0601B80000A30F8
:1020F00081446D1EAC42C0DDBDE8F0832DE9F04F98
:1021000080460D4691469A46DDE9096BFC480088F9
:10211000404503DBFA484088A84202DA0020BDE8C7
:10212000F08F08EB0900401EF5490988884206DC5B
:1021300005EB0A00401EF2494988884201DD002073
:10214000EDE7002424E0281981B24046FEF74EFD59
:10215000FEF72FFD002717E00B982044F17800FBD5
:102160000170584440000930315C0B982044F278EB
:1021700000FB0270584440000830305C41EA002007
:10218000E0490880781C87B24F45E5DB601C84B2CB
:102190005445D8DB0120C2E72DE9F84F80460D46B3
:1021A00016461F46DDF82890D5480088404503DBD9
:1021B000D3484088A84202DA0020BDE8F88F08EB37
:1021C0000600401ECE490988884205DCE819401EF9
:1021D000CB494988884201DD0020EEE7002436E043
:1021E000281981B24046FEF701FDFEF7E2FC0E9889
:1021F000604390FBF7F10C98084499F803104843AA
:1022000000904FF0000A1EE00D980AFB00F090FBD2
:10221000F6FB009800EB0B010B98084440000930D6
:1022200019F80010009800EB0B020B9810444000C6
:10223000083019F8000041EA0020B24908800AF18C
:1022400001001FFA80FAB245DEDB601C84B2BC429A
:10225000C6DB0120B1E72DE9FF4F88B015461E46C9
:10226000DDE9169A159C4FF0000BDCE0002007908A
:10227000D1E019980BFB00F090FBF6F01FFA80F804
:1022800018990798484390FBF5F087B2189907987A
:10229000484390FBF5F105FB1100281A80B2069027
:1022A00019980BFB00F090FBF6F106FB1100301AB9
:1022B00080B205900AEB0800E17800FB0170484409
:1022C00040000930215C0AEB0800E27800FB027054
:1022D000484440000830205C41EA002104910AEBA8
:1022E0000800E17800FB01704844401C40000930C0
:1022F000215C0AEB0800E27800FB02704844401CB5
:1023000040000830205C41EA002003900AEB0800FE
:10231000401CE17800FB0170484440000930215C1A
:102320000AEB0800401CE27800FB027048444000C1
:102330000830205C41EA002002900AEB0800401CB3
:10234000E17800FB01704844401C40000930215CEA
:102350000AEB0800401CE27800FB02704844401C75
:1023600040000830205C41EA00200190DDE90510C2
:102370004843DDE903218A1A0299521A019911444E
:102380004143059805FB00F2039802FB00120698F2
:1023900006FB00F1029801FB002205FB06F10698FE
:1023A00006FB1011059805FB1011019801FB002098
:1023B00080B2009005FB06F000EBD0714A10009946
:1023C0000A4405FB06F192FBF1F189B20091099AEA
:1023D0005A4491B2DDE907321A4490B2FEF7D7FCB5
:1023E0001A99C1F1FF0148431A9A009901FB0200B2
:1023F000FF2190FBF1F080B20090099A5A4491B20B
:10240000DDE907321A4490B2009AFEF756FF0798AA
:10241000401C80B207900798A842FFF62AAF0BF144
:1024200001001FFA80FBB345FFF620AF01200CB07E
:10243000BDE8F08F2DE9FC4F81460D4616461F463C
:10244000DDF82C802E480088484503DB2C48408866
:10245000A84202DA0020BDE8FC8F09EB0600401E0E
:1024600027490988884205DCE819401E2449498823
:10247000884201DD0020EEE700243DE0281981B20A
:102480004846FEF7B3FBFEF794FB002001902EE0D8
:102490000F98604390FBF7FB0E990198484390FB1F
:1024A000F6FA0D98584498F8031000FB01A10C9817
:1024B00008444000093018F800100D98584498F866
:1024C000032000FB02A20C9810444000083018F8CA
:1024D000000041EA0020009010990098884202D044
:1024E0000849009808800198401C80B2019001982A
:1024F000B042CDDB601C84B2BC42BFDB0120AAE746
:10250000180300208000006C2DE9F84F80460E462D
:1025100017461C46B3462046E31704EB5373DB1003
:1025200021464FEAE47C04EB5C7C4FEAEC0CA4EB24
:10253000CC0CBCF1000F02D04FF0010C01E04FF0C9
:10254000000C6344224604EBD27C4FEA6C0C03FB84
:102550000CF3DBB20093A7F12000C7B2002556E0D0
:102560000C2C07D107EB4700F84901EB800010F86D
:10257000059013E0102C05D1F54800EB071010F87A
:1025800005900BE0182C07D107EBC700F14901EBD0
:10259000800010F8059001E0BDE8F88F4FF0000AC8
:1025A0002FE009F0800030B1EB4802883146404608
:1025B000FEF783FE07E00A9828B9E848028831460A
:1025C0004046FEF77AFE4FEA49604FEA1069701CF8
:1025D00086B2E3484088B04200DCDDE7A6EB0B00A2
:1025E000A0420AD15E4608F101001FFA80F8DC48DB
:1025F0000088404500DCCFE706E00AF1010000F06A
:10260000FF0ABAF1080FCCDB00BF681CC5B2009806
:102610008542A5DB00BFBFE710B50246012000E000
:1026200050430B00A1F10104E1B2F9D110BD2DE935
:10263000FF4F81B0074691461E460E9D4FF0000A9F
:10264000002439E0301B401EC1B20A20FFF7E4FF2E
:10265000B9FBF0F00A21B0FBF1F201FB1208BAF16C
:10266000000F16D1701EA04213DDB8F1000F0ED17D
:102670000020AB4605EBDB71491001FB04710090B3
:1026800088B22B4620220299FFF73EFF12E04FF05E
:10269000010A0020AB4605EBDB71491001FB047118
:1026A000009088B208F13001CAB22B460299FFF7B8
:1026B0002BFF00BF601CC4B2B442C3DB05B0BDE851
:1026C000F08F2DE9FF4F82B0064692461F46DDE9A6
:1026D0000F480020019000254DE0781B401EC1B23C
:1026E0000A20FFF799FFBAFBF0F00A21B0FBF1F2E4
:1026F00001FB1209019850BB781EA84227DDB9F1F1
:10270000000F22D108F0800078B108F00100A34644
:1027100004EBDB71491001FB0561009088B2234690
:1027200030220399FFF7F0FE0EE008F00100A34607
:1027300004EBDB71491001FB0561009088B2234670
:1027400020220399FFF7E0FE13E00120019008F03A
:102750000100A34604EBDB71491001FB0561009009
:1027600088B209F13001CAB223460399FFF7CCFEC3
:1027700000BF681CC5B2BD42AFDB06B0BDE8F08F3C
:102780002DE9F84704460D4690469946DDE909676C
:1027900004F0FF0A08EB04001FFA80F809EB0500BB
:1027A0001FFA80F916E0444502DB5446A81985B2A9
:1027B0004D4500DB14E0012000903A78334629466D
:1027C0002046FFF7A1FE304606EBD07104EB610115
:1027D0008CB27F1C38787E2802DC38782028E2DA38
:1027E00000BFBDE8F8872DE9F04F8BB081460C465D
:1027F000924628225BA101A806F0ECF90026BAF166
:102800000A0F0AD1B9F1000F07DAC9F100072D222A
:102810003046711C8EB2225400E04F4600BFB7FB19
:10282000FAF00AFB107001A90A5C3046711C8EB2E6
:102830002254B7FBFAF7002FF1D10020A0552078E1
:102840002D2802D14FF0010801E04FF00008454665
:102850000DE014F805B0701E4044401B205C60552C
:10286000701E4044401B04F800B0681C85B2701E06
:1028700000EBD071B5EB610FEBDD20460BB0BDE88E
:10288000F08F10B504460A2240492046FFF7ABFFFF
:102890003E4810BD10B52DED028BB0EE408AF0EE33
:1028A000608A53EC182B3AA13B4806F073F83A487B
:1028B00006F065F9401EC4B212E03748005D3028CA
:1028C00003D100203449085508E03348005D2E2824
:1028D00003D100203049085504E003E0601EC4B273
:1028E000002CEADC00BF2C48BDEC028B10BD10B5FB
:1028F0000446204607F040FF10BD10B52DED068BB5
:10290000B0EE408AF0EE608AB0EE480AF0EE680A57
:1029100007F04EFFB0EE40AAF0EE60AA53EC182B81
:1029200051EC1A0B09F074FA41EC190B9FED1B0BDB
:1029300053EC102B09F036FA34D251EC180B09F095
:102940009FF880B2BDEC068B10BD00008AC3000862
:10295000FEC70008EECD00089C0000209E0000206D
:10296000180300203031323334353637383941429C
:10297000434445464748494A4B4C4D4E4F505152AF
:10298000535455565758595A00000000260300204A
:10299000252E3366000000003A03002000000000EE
:1029A0000000E03F1FED030B53EC102B51EC180B14
:1029B00008F0E6FD41EC190B09F062F880B2BDECBD
:1029C000068B10BD2DE9F04F2DED028B83B005462F
:1029D0008946B0EE408AF0EE608AB0EE480AF0EE2A
:1029E000680AFFF757FF0646304606F0C8F8C0B23F
:1029F0000290A846CDF804900020324908800024B7
:102A00005AE008F10F001FFA80F8DDF804904546FF
:102A100000274DE0305D30280CDB305D392809DCC3
:102A2000305D3038C0EB0010274901EB800010F812
:102A300007B00DE0305D2E2803D1244810F807B010
:102A400006E0305D2D2803D12048783010F807B01B
:102A50004FF0000A26E00BF0010018B14946284665
:102A6000FEF71DFC4FEA6B0B681C85B218484088C6
:102A7000A84204DC03B0BDEC028BBDE8F08FA5EBEF
:102A800008000F280AD1454609F101001FFA80F914
:102A90000F480088A84200DCECE706E00AF10100DC
:102AA00000F0FF0ABAF1080FD5DB00BF781CC7B2EF
:102AB0003C2FAFDB601CC4B202988442A1DB00BF94
:102AC000D8E700009C0000204ADB0008A2DD0008D7
:102AD00018030020002100BF14E000F080021AB1AA
:102AE0000122FA4B1A6002E00022F84B1A604206FB
:102AF000100E0022F64B1A600122F64BC3F880221A
:102B00004A1CD1B20829E8DB704770B5064600259B
:102B100000240020EE490860EF49C1F8AC02EF49FB
:102B200008603046FFF7D6FF062002F057F8002075
:102B3000E849C1F88002012002F050F80120E44980
:102B400008600020E349C1F8800200BF12E04FF6A0
:102B5000FF7000EA44040020DD4908600120DD49DF
:102B6000C1F88002DA487838006808B1601C84B285
:102B7000681CC5B2102DEADB24110120D74908607A
:102B8000204670BD2DE9FE4380460027002406E064
:102B90004046FFF7BAFF2DF81400601C84B2052CE4
:102BA000F6DB002416E0601C85B20FE03DF814004F
:102BB0003DF81510884207DD3DF814603DF815001A
:102BC0002DF814002DF81560681C85B2052DEDDB7D
:102BD000601C84B2042CE6DB0027012405E03DF8EC
:102BE0001400384487B2601C84B2042CF7DB032045
:102BF00097FBF0F086B23046BDE8FE832DE9F04148
:102C000004460D46B6480078FFF7BCFF0646B548B7
:102C10000078FFF7B7FF074626802F800120BDE828
:102C2000F0817FB504460D4602A903A8FFF7E6FF31
:102C3000064616B9002004B070BD694601A8FFF72A
:102C4000DDFF06460EB90020F5E7BDF80400BDF82B
:102C50000C10884206DCBDF80C10BDF804003230C0
:102C600081420CDBBDF80C00BDF80410884236DC54
:102C7000BDF80410BDF80C00323081422FDABDF8E7
:102C80000000BDF80810884206DCBDF80810BDF849
:102C90000000323081420CDBBDF80800BDF80010A6
:102CA00088421CDCBDF80010BDF8080032308142BB
:102CB00015DABDF80C10BDF80420881800EBD071AF
:102CC000C1F34F012180BDF80810BDF8002088181D
:102CD00000EBD071C1F34F0129800120ABE7002048
:102CE000A9E770B504460D4616467F48068004F1F4
:102CF0000D018AB2193988B22B462946FFF72EF901
:102D000005F10D0083B2193881B222462046FFF743
:102D100025F96A1C91B2621C90B2FEF7C0FA6A1CD7
:102D200091B2621E90B2FEF7BAFA6A1E91B2621CAC
:102D300090B2FEF7B4FA6A1E91B2621E90B2FEF72C
:102D4000AEFA062229462046FFF78CF970BD70B511
:102D500004460D4616466448068029462046FEF77E
:102D60009EFA611C88B22946FEF799FA681C81B266
:102D70002046FEF794FA6A1C91B2621C90B2FEF7EC
:102D80008EFA70BD10B52DED088B044650487C3886
:102D90000068002873D12CB15449A1F10A00FFF753
:102DA00040FF59E05149A1F10A00FFF73AFFE8B3AB
:102DB0004E491639B1F9380008F08FFE41EC190B75
:102DC0004A491639888908F09FFE41EC1B0B474899
:102DD000163890ED0A1BB0EE410AF0EE610A53EC92
:102DE000102B51EC1B0B08F0DFFE41EC1A0B53ECDF
:102DF000192B08F0C5FB41EC180B08F041FE3B49CC
:102E000016398881B1F93A0008F067FE41EC190BD8
:102E100036491639C88A08F077FE41EC1B0B334857
:102E2000163890ED0C1BB0EE410A00E014E0F0EE15
:102E3000610A53EC102B51EC1B0B08F0B5FE41EC72
:102E40001A0B53EC192B08F09BFB41EC180B08F004
:102E500017FE26491639C8822448163890F82000F3
:102E600000F0800040BBC0202049163981F82000C6
:102E7000084681898182C18AC1831DE0FFE71B4822
:102E8000163890F8200000F0800050B1174816382E
:102E900090F8200020F080001449163981F82000B5
:102EA0000AE00021114816388182C1834FF6FF7075
:102EB0000E4916398881C8820C48163890F82000CF
:102EC00000F08000BDEC088B10BD0000AC824242D7
:102ED000808240420080404200804242B40241422F
:102EE000E0000020E10000209C000020B60000204F
:102EF00010B52DED028BFE4890ED0A1BB0EE410A95
:102F0000F0EE610A9FEDFB1B53EC112B51EC100B03
:102F100008F04AFE41EC180B08F082FD044604223A
:102F20002146282001F098FAF14890ED0C1BB0EEF4
:102F3000410AF0EE610A9FEDEF1B53EC112B51ECAF
:102F4000100B08F031FE41EC180B08F069FD044647
:102F5000042221462C2001F07FFAE548B0F9381010
:102F60000222302001F078FAE148B0F93A1002224A
:102F7000322001F071FADE4890F83C10342001F064
:102F800043FA0A242146352001F03EFABDEC028BBB
:102F900010BD70B5352001F00BFA04460A2C50D153
:102FA0000421282001F06DFA044600EE104AB8EE24
:102FB000C00ADFEDD20A80EE201A11EE105A284620
:102FC00009F0E8F8CA4AC2E90A0104212C2001F0FC
:102FD00058FA044600EE104AB8EEC00ADFEDC70A00
:102FE00080EE201A11EE105A284609F0D3F8C04A94
:102FF000C2E90C010221302001F043FA00B2BC49C1
:1030000008870221322001F03CFA00B2B849488713
:10301000342001F0CDF9B64981F83C00084690F81B
:103020003C0030B19020B6490870D020B5490870F6
:1030300005E0D020B24908709020B2490870012004
:1030400070BD0020FCE72DE9FC5F04460D461746E5
:103050001E46DDE90EABDDE90C894FF47840AA4944
:103060000880AAA01021CDE90010A9484388028851
:10307000A0212820FFF784FBA6A01021CDE9001095
:10308000A34843880288A0217820FFF779FBA2A0FB
:103090001021CDE900109E4843880288B4212820E1
:1030A000FFF76EFB9DA01021CDE9001098484388E2
:1030B0000288B4217820FFF763FB99A01021CDE9A5
:1030C0000010934843880288C8212820FFF758FB46
:1030D00094A01021CDE900108D4843880288C821B2
:1030E0007820FFF74DFB90A01021CDE90010884813
:1030F00043880288DC212820FFF742FB8BA01021A7
:10310000CDE90010824843880288DC217820FFF74F
:1031100037FB87A01021CDE900107D484388028845
:10312000F0212820FFF72CFB84A01021CDE900100E
:103130007748438802884FF482712820FFF720FBEC
:10314000102004232246A02100904020FFF76FFAB0
:10315000102004232A46A02100909020FFF767FA50
:10316000102004233A46B42100904020FFF75FFA74
:10317000102004233246B42100909020FFF757FA24
:10318000102004234246C82100904020FFF74FFA48
:10319000102004234A46C82100909020FFF747FAE8
:1031A000102004235246DC2100904020FFF73FFA14
:1031B000102004235A46DC2100909020FFF737FAB4
:1031C000102003230090F0216820109AFFF72FFAB7
:1031D0001020032300904FF482716820119AFFF7AA
:1031E00026FABDE8FC9F00B52DED0A8B85B040F2B4
:1031F000AF10ADF804004FF4C470ADF8060040F60F
:103200004460ADF808004FF4CF71ADF80A1040F2F9
:103210000720ADF80C0040F6C951ADF80E1040F68D
:103220000A60ADF8100040F6EC51ADF81210BDF890
:103230000810BDF80420881A08F04FFC41EC180B68
:1032400033490988A1F1280008F047FC41EC190B2B
:1032500053EC182B08F050FA254AC2E90A01BDF8D0
:103260000810BDF80420881808F037FC41EC1C0B4E
:103270001F4890ED0A1BB0EE410AF0EE610A53ECD4
:10328000102B51EC1C0B08F08FFC41EC1A0B204961
:10329000088808F039FC41EC1B0B53EC1A2B08F0A2
:1032A0008FFE41EC190B9FED280B53EC102B08F00F
:1032B00023FA41EC180B08F0B3FB00B20C49088765
:1032C000BDF80E10BDF80620881A08F006FC41EC87
:1032D000180B0F494988A1F1280008F0FEFB41ECCA
:1032E000190B53EC182B08F007FA014A30E00000E4
:1032F000A00000200000000084D7974120BCBE4CF5
:10330000E0000020E10000209C00002078313A001D
:103310001803002079313A0078323A0079323A00C5
:1033200078333A0079333A0078343A0079343A0005
:10333000786661632069733A000000007966616312
:103340002069733A00000000000000000000004007
:10335000C2E90C01BDF80E10BDF80620881808F06F
:10336000BCFB41EC1C0BF84890ED0C1BB0EE410A85
:10337000F0EE610A53EC102B51EC1C0B08F014FC1E
:1033800041EC1A0BF149488808F0BEFB41EC1B0BDD
:1033900053EC1A2B08F014FE41EC190B1FED160B21
:1033A00053EC102B08F0A8F941EC180B08F038FB8F
:1033B00000B2E549488705B0BDEC0A8B00BD00B5F9
:1033C00097B0002012900C9012901F20E0490880C6
:1033D0004FF6FF70DF490880FEF74CFA4FF4784053
:1033E000DB4908804FF6FF70FEF744FA0021D84809
:1033F0000180D948016810206423A022CDE9000192
:1034000028210846FFF7BCF94FF4784214210846FA
:10341000FFF767FC0020CC4981F820009FEDCF0B1F
:10342000084680ED0A0B37E2C74840680B90012040
:103430000B998847C44890F8200000F0C00040284D
:103440006FD100200C90C04890F8200020F0400080
:10345000BD4981F820000846818913AA129822F8F4
:103460002010B948C18A129802EB8000418012985E
:10347000401CC0B212901298012806D0022815D024
:10348000032829D0042810D141E04FF6FF721421FF
:103490000846FFF726FCAD480088143880B24FF488
:1034A000784214210B90FFF71CFCF1E3A748008839
:1034B000143880B24FF6FF7214210B90FFF711FC05
:1034C000A2484088143880B24FF4784201460B90ED
:1034D0001420FFF706FCDBE39C484088143880B2D8
:1034E0004FF6FF7201460B901420FFF7FAFB974846
:1034F0004088143880B20B9094480088143880B209
:103500004FF478420A900B99FFF7EBFBC0E3BDF84C
:103510004C00BDF85010401A0B90002802DB0B98AD
:1035200002E0FCE30B9840420F90BDF84E1013A848
:10353000C088081A0B90002801DB0B9801E00B985B
:1035400040420E900F9840430F900E9840430E90CB
:10355000DDE90E100844079008F0D6FACDE908011D
:103560009DED080B07F07CFA8DED0A0B9DED0A0B23
:1035700051EC100B08F084FA80B21190BDF8541091
:10358000BDF85800081A0B90002801DB0B9801E0E9
:103590000B9840420F9013A84189C089081A0B90DC
:1035A000002801DB0B9801E00B9840420E900F9829
:1035B00040430F900E9840430E90DDE90E100844F2
:1035C000079008F0A1FACDE908019DED080B07F07E
:1035D00047FA8DED0A0B9DED0A0B51EC100B08F02C
:1035E0004FFA80B210909DED110AF8EE400A9DED61
:1035F000100AB8EE400A80EE801A8DED0D1A9DED8E
:103600000D0ADFED580AB4EEE00AF1EE10FA0CD321
:103610009DED0D0ADFED540AB4EEE00AF1EE10FA6A
:1036200003DC119808B11098F0BB002012904748B5
:103630004088143880B20B9044480088143880B217
:103640004FF6FF720A900B99FFF74BFB4FF478424D
:1036500014210846FFF745FB9DED0D0ADFED430AF7
:1036600020EE200ABCEEC00A10EE100A80B29DEDDA
:103670000D0ADFED3E0A20EE200ABCEEC00A10EE75
:10368000101A89B213AAD289BDF85830CDE9023296
:10369000CDE9041013A84089BDF85410CDE90010FD
:1036A00013A8C0880B9000E00DE0BDF850000A9010
:1036B000BDF84E000990BDF84C00089009A90EC94C
:1036C000FFF7C1FC75E3BDF84C00BDF85410401A7B
:1036D0000B90002801DB0B9801E00B9840420F9003
:1036E000BDF84E1013A84089081A0B90002801DB82
:1036F0000B9801E00B9840420E900F9840430F90BA
:103700000E9840430E90DDE90E100844079008F033
:10371000FBF9CDE908019DED080B07F0A1F98DED4E
:103720000A0B9DED0A0B51EC100B08F0A9F980B2C1
:103730001190BDF85000BDF85810401A0B900028A9
:1037400016DB0B9816E00000A000002018030020F4
:103750009C0000209E000020E400002000000000EB
:10376000000000003333733F6666863F0000C842A6
:103770000B9840420F9013A8C188C089081A0B907B
:10378000002801DB0B9801E00B9840420E900F9847
:1037900040430F900E9840430E90DDE90E10084410
:1037A000079008F0B1F9CDE908019DED080B07F08D
:1037B00057F98DED0A0B9DED0A0B51EC100B08F03B
:1037C0005FF980B210909DED110AF8EE400A9DED70
:1037D000100AB8EE400A80EE801A8DED0D1A9DEDAC
:1037E0000D0A5FED200AB4EEE00AF1EE10FA08D3FC
:1037F0009DED0D0A5FED240AB4EEE00AF1EE10FA39
:103800004BDD00201290FE484088143880B20B90A7
:10381000FB480088143880B24FF6FF720A900B996B
:10382000FFF75FFA4FF4784214210846FFF759FA80
:103830009DED0D0A5FED330A20EE200ABCEEC00AB2
:1038400010EE100A82B29DED0D0A5FED380A20EEEF
:10385000200ABCEEC00A10EE100A80B213A9C98972
:10386000BDF85830CDE90231CDE9040213A84089F2
:10387000BDF85410CDE9001013A8C0880B90BDF816
:1038800050000A90BDF84E000990BDF84C00089019
:1038900009A90EC9FFF7D7FB8BE2BDF85010BDF8A0
:1038A0005400081A0B90002801DB0B9801E00B98DC
:1038B00040420F9013A8C1884089081A0B90002835
:1038C00001DB0B9801E00B9840420E900F984043AB
:1038D0000F900E9840430E90DDE90E1008440790BB
:1038E00008F012F9CDE908019DED080B07F0B8F8D2
:1038F0008DED0A0B9DED0A0B51EC100B08F0C0F892
:1039000080B21190BDF84C00BDF85810401A0B90D1
:10391000002801DB0B9801E00B9840420F90BDF8A6
:103920004E1013A8C089081A0B90002801DB0B98D1
:1039300001E00B9840420E900F9840430F900E9874
:1039400040430E90DDE90E100844079008F0DCF8C3
:10395000CDE908019DED080B07F082F88DED0A0B0B
:103960009DED0A0B51EC100B08F08AF880B2109014
:103970009DED110AF8EE400A9DED100AB8EE400ADE
:1039800080EE801A8DED0D1A9DED0D0A5FED8B0A0C
:10399000B4EEE00AF1EE10FA08D39DED0D0A5FEDEA
:1039A0008E0AB4EEE00AF1EE10FA4BDD0020129020
:1039B00093484088143880B20B909148008814389E
:1039C00080B24FF6FF720A900B99FFF78AF94FF415
:1039D000784214210846FFF784F99DED0D0A5FED4A
:1039E0009D0A20EE200ABCEEC00A10EE100A80B23A
:1039F0009DED0D0A5FEDA30A20EE200ABCEEC00A81
:103A000010EE101A89B213AAD289BDF85830CDE948
:103A10000232CDE9041013A84089BDF85410CDE955
:103A2000001013A8C0880B90BDF850000A90BDF894
:103A30004E000990BDF84C00089009A90EC9FFF787
:103A400002FBB6E1BDF85000BDF84C10401A00EE84
:103A5000100AF8EEC00A6A480088283800EE100AFA
:103A6000B8EEC01A81EE200A8DED0B0A0B9808F013
:103A700091FB644AC2E90A01BDF85000BDF84C1040
:103A80000844019008F029F8CDE902015D4890ED65
:103A90000A0B8DED000B9DED000B53EC102B9DEDF3
:103AA000020B51EC100B08F07FF8CDE906015448E9
:103AB0000088039008F028F8CDE904019DED060B7D
:103AC00053EC102B9DED040B51EC100B08F078FA21
:103AD0009FED4D0B53EC102BCDE908019DED080B2C
:103AE00051EC100B07F008FECDE90A019DED0A0B21
:103AF00051EC100B07F094FF00B24249088713A85D
:103B00004089BDF84E10401A00EE100AF8EEC00AC7
:103B10003B484088283800EE100AB8EEC01A81EE03
:103B2000200A8DED0B0A0B9808F034FB354AC2E9E8
:103B30000C0113A84089BDF84E100844019007F00D
:103B4000CCFFCDE902012F4890ED0C0B8DED000B61
:103B50009DED000B53EC102B9DED020B51EC100B67
:103B600008F022F8CDE9060125484088039007F0C7
:103B7000CBFFCDE904019DED060B53EC102B9DED21
:103B8000040B51EC100B08F01BFA9FED1F0B53ECCC
:103B9000102BCDE908019DED080B51EC100B07F03F
:103BA000ABFDCDE90A019DED0A0B51EC100B07F0BE
:103BB00037FF00B213494887084690ED0A0B8DED98
:103BC000080B9DED080B51EC100B07F029FF0A9034
:103BD000002801DB0A9801E00A98404202281BDC19
:103BE000084890ED0C0B8DED080B9DED080B51EC8A
:103BF000100B07F015FF0B90002809DB0B9809E06C
:103C000018030020A0000020000000000000004079
:103C10000B984042022843DD002012908B484088D8
:103C2000143880B20B9089480088143880B24FF65F
:103C3000FF720A900B99FFF754F84FF47842142161
:103C40000846FFF74EF882A01021CDE900107F480A
:103C500040880B907D4800880A9002461A2128204F
:103C60000B9BFEF78DFD7F4890F83C0008B90120C2
:103C700000E000207B4981F83C00084690F83C00B9
:103C800038B1902078490870D0217848017006E05A
:103C90005BE0D0207449087090217448017088E07E
:103CA0001F20734908804FF6FF70FDF7E3FD71A0F8
:103CB0001021CDE90010654840880B9063480088CA
:103CC0000A9002466E2123200B9BFEF759FD9DEDC5
:103CD0000D0ADFED6E0A20EE200ABCEEC00A10EEDF
:103CE000100A81B29DED0D0ADFED680A20EE200A70
:103CF000BCEEC00A10EE100A82B213A8C089BDF84B
:103D00005830CDE90230CDE9042113A84089BDF82F
:103D10005410CDE9001013A8C0880B9000E015E006
:103D2000BDF850000A90BDF84E000990BDF84C0057
:103D3000089009A90EC9FFF786F94FF47A7000F0D0
:103D400095FFFFF7D5F817B000BD00BF0A2000F0BF
:103D50008DFF4F480068401C4D49086008460068C8
:103D600032281AD300214A4801604A48006808B93D
:103D7000012000E00020474908604748D0F8A80229
:103D800008B9012000E000204249091D086043A055
:103D900004F0F4FD48A004F0F1FD0C98401C80B242
:103DA0000C900C98B0F57A7F02DDFFF7F2F802E094
:103DB00000BFFFF739BB00BF00BFC4E71CB501213E
:103DC000262003F04EF9012000908DF80400002019
:103DD0008DF8060002208DF8050069463C4802F087
:103DE00075FB01213A4802F0EDFB4FF400500090C2
:103DF0006946384802F06AFB4FF40051354802F03A
:103E0000E1FB4FF4006000906946334802F05EFB2E
:103E10004FF40061304802F0D5FB062000900020EE
:103E20008DF8040001208DF807006946284802F04B
:103E30004DFB0C491631A1F10A00FEF7DFFE00F040
:103E4000B3FAFFF7D0F901201CBD000018030020D1
:103E50005450204E65656420726561646A757374A0
:103E600021000000A0000020E0000020E100002070
:103E70009C000020546F7563682053637265656E03
:103E80002041646A757374204F4B21000000C842C2
:103E9000E8000020A4824242008042420D0A5354AE
:103EA0004D3332BFAAB7A2B0E520B4AEBFDACAB56F
:103EB000D1E90D0A000000006D63756465762E740B
:103EC000616F62616F2E636F6D200D0A0D0A000035
:103ED0000004024000080240001402401CB5012109
:103EE000032003F075F80121084603F0CBF8012206
:103EF0000821FD4802F075FB01220D21FB4802F06C
:103F000070FB01220E21F94802F06BFB012209210E
:103F1000F54802F066FB4FF40050009002208DF847
:103F2000040000208DF8060002208DF807008DF8AF
:103F300005006946ED4802F0C9FA4FF48070009020
:103F40006946E94802F0C2FA4FF4007000906946F1
:103F5000E54802F0BBFA4FF4804000906946E34820
:103F600002F0B4FA1CBD10B58EB004460020ADF8C6
:103F70002800ADF82A00601E0B900020ADF830003C
:103F800004208DF832000AA9D94803F0C8FE602049
:103F9000ADF814000120ADF816000420ADF81800AB
:103FA0000020ADF82000ADF82200ADF82400ADF8F7
:103FB000260005A9CE4803F047FF0821CC4804F0AD
:103FC000D0F805A9CA4803F078FF0821C84804F0D2
:103FD000D1F80121C64803F00DFF4FF40060ADF8A1
:103FE00004004010ADF806008010ADF808001C2059
:103FF000ADF80A000020ADF80C00ADF80E004FF44B
:104000008040ADF8100001A9B94804F0E9FA012197
:10401000B74804F0FEFA19208DF8340001208DF81D
:10402000350000208DF8360001208DF837000DA8EE
:1040300002F05BF90121AE4804F026FB0122114693
:10404000AB4804F00DFB0121A94803F0F1FE0EB0CE
:1040500010BD10B5FFF742FF4FF4D260FFF783FFAA
:1040600010BD10B50121A24804F0D3FA10BD10B55F
:1040700000219F4804F0CDFA4FF480719A4802F075
:10408000A3FA4FF40051994802F09EFA10BD70B5A2
:104090002DED088B0121964804F0F9FA012871D121
:1040A0000121934804F004FB002092490860042198
:1040B000914802F06DFA914908700846007801288D
:1040C0007ED18F48007800287AD11E2201218D48A8
:1040D00000F0BDFB0546284607F016FD41EC1B0B22
:1040E0009FED890B53EC102B07F006FB41EC1A0BEC
:1040F0009FED870B53EC102B07F056FD41EC190B8D
:104100009FED850B53EC102B07F04EFD41EC180B87
:104110009FED830B53EC102B07F032FA824A03C257
:104120000120744908608148007801280FD17E4839
:1041300090ED000B51EC100B07F0F0F908EE100AAF
:104140007B48DFED7C0AB0EE480A02F033F87A488B
:104150000078401C7849087008460078400000EE5E
:10416000100AB8EEC00A7548D0ED000AB4EEE00AB5
:10417000F1EE10FA2FDD002008707148006810B9C8
:10418000012001E000E100206D4908609FED6D0B0A
:1041900006F066FCB0EE409AF0EE609A53EC192BF4
:1041A000614890ED000B51EC100B07F0A5FA41ECC3
:1041B000180BB0EE480AF0EE680AFEF76BFB00E061
:1041C00009E00446214661480068083004F0B3FC69
:1041D00001205F490870494800784949087000206B
:1041E0005C4908600821444802F0D2F95A49087035
:1041F00008460078012876D158480078002872D106
:104200001E2203213F4800F022FB0546284607F006
:104210007BFC41EC1B0B9FED3C0B53EC102B07F090
:104220006BFA41EC1A0B9FED3A0B53EC102B07F095
:10423000BBFC41EC190B9FED4A0B53EC102B07F024
:10424000BFFE41EC180B9FED360B53EC102B07F023
:1042500053FA454A03C201203E4908609FED2C0BEA
:1042600053EC102B404890ED000B51EC100B07F075
:1042700099FD03D200201F49083108603B480078AF
:10428000401C3A49087008460078400000EE100AC9
:10429000B8EEC00A2948D0ED000AB4EEE00AF1EE0B
:1042A00010FA6CDD002008709FED260B06F0D8FB9D
:1042B000B0EE409AF0EE609A53EC192B2A4890ED3C
:1042C000000B51EC100B07F017FA41EC180BB0EE95
:1042D000480AF0EE680AFEF7DDFA04462146244853
:1042E0000068083046E04AE0000002400004024056
:1042F00000000140800240420010024008010020FE
:104300000901002000200140000000000000B04032
:1043100000000000000004400000000000003E40DB
:10432000000000000000E03F1001002068000020B5
:104330006C0000209A994B420C010020780000206C
:10434000A482424200000000000000405000002013
:1043500069000020900242420A0100200B01002067
:104360009A9999999999A93F180100200D01002067
:104370005400002004F0DFFB0120074908700748C3
:1043800000780749087003E00121064804F090F91D
:10439000BDEC088B70BD0000690000200A01002000
:1043A0000B0100200000014010B500F0BBF810BD6B
:1043B00070B50446002600F0D8F82546E11704EB56
:1043C00011610912A02202EB4101C8B200F079F993
:1043D00000F00CF9E11704EB11610912A4EB0121C3
:1043E000C8B200F06EF900F001F900F0BEF8A120AB
:1043F00000F067F900F0FAF8002000F08FF90646A7
:1044000000F0D5F8304670BD70B504460E4600F099
:10441000ACF82546E11704EB11610912A02202EB6A
:104420004101C8B200F04DF900F0E0F8E11704EBEB
:1044300011610912A4EB0121C8B200F042F900F0A9
:10444000D5F8304600F03DF900F0D0F800F0AFF8B4
:104450000A2000F00BFC70BD2DE9F04105460E4628
:104460001746002409E0E20026FA02F2D1B22A1926
:1044700090B2FFF7C9FF601CC4B2BC42F3DBBDE8D9
:10448000F0812DE9F04107460C460026002509E0A1
:1044900036023919491B491E88B2FFF789FF0644C5
:1044A000681CC5B2A542F3DB3046BDE8F08110B50B
:1044B000FF20FFF77DFF0446552C01D1002010BDE1
:1044C0005521FF20FFF7A0FFFF20FFF771FF0446F3
:1044D000552C01D10020F2E70120F0E770B5064627
:1044E0000C46154608E03046721C96B2FFF760FF96
:1044F00004F8010B681E85B2002DF4D170BD70B5B3
:1045000005460C46164606E021782846FFF77CFF54
:10451000681C85B2641C3000A6F101018EB2F3D193
:1045200070BD00001CB50121022002F051FD4FF4C6
:104530004060009001208DF8040000208DF80600F6
:104540008DF8070002208DF8050069468B4801F0C0
:10455000BDFF4FF44061894802F034F801208849DA
:1045600008608849C1F8A4021CBD10B583480068E2
:1045700020F44020814908600846006840F480200B
:10458000086001207E49091D08607E49C1F8A0022B
:10459000042000F023FB00207949091D0860042055
:1045A00000F01CFB00207749C1F8A00210BD10B537
:1045B0007248006820F4402070490860084600688E
:1045C00040F48020086000206D4908606D49C1F802
:1045D000A402042000F002FB012069490860694937
:1045E000C1F8A402042000F0F9FA10BD10B50024AF
:1045F0006248006820F4402060490860084600686E
:10460000086001205E49091D086000F0E7FA0120FA
:104610005C49C1F8A00200F0E1FA07E0601CC4B2F6
:10462000FA2C03DDFFF7C3FF012010BD54487C388E
:1046300000680028F2D15249086000BFF5E710B5C4
:1046400000204F4908604D48006820F440204B4945
:1046500008600846006840F480200860002049494E
:10466000C1F8A402022000F0B9FA01204449086010
:10467000022000F0B3FA00204249C1F8A00210BDA8
:1046800010B500203E4908603C48006820F44020F6
:104690003A4908600846006840F48020086001201C
:1046A0003849C1F8A402022000F098FA01203449E8
:1046B0000860022000F092FA00203249C1F8A002FE
:1046C00010BD70B504462D48006820F440202B49E9
:1046D00008600846006840F48020086000202849EF
:1046E0000860002517E0E0092549091D08606006FB
:1046F000040E022000F072FA01202249C1F8A00243
:10470000022000F06BFA00201D490860022000F032
:1047100065FA681CC5B2082DE5DB70BD70B50546AD
:1047200000241648006820F4402014490860084618
:1047300000680860002616E0002011490860022089
:1047400000F04CFA01200F49C1F8A0026006040EE7
:104750000B487C38006808B1601CC4B2012000F02E
:104760003DFA701CC6B2082EE6DB15B9FFF788FFCC
:1047700001E0FFF764FF204670BD00000004024026
:10478000A08240420080404200B58DB00121084621
:1047900002F01EFC0121080202F074FC02200B90C2
:1047A00003208DF8300000208DF833000BA93D4820
:1047B00001F08CFE08200B900BA93A4801F086FE10
:1047C0000121080202F0B3FC00214FF4807002F0D6
:1047D000AEFC002007900A9009904FF480300890BA
:1047E00007A802F0F7FF002001908DF808008DF86F
:1047F00009000390059001208DF8180001A92A48AE
:1048000002F0B9FF01A9294802F0B5FF01212648AD
:1048100002F0F7FF0121254802F0F3FF0DB000BDC3
:1048200070B504460D46002301222946204603F0B8
:1048300028F8204603F081F800BF0221204603F04B
:104840009DF90028F9D0204603F0B3F870BD2DE99A
:10485000F05F82468B4615460026B1464FF6FF783C
:1048600000270DE059465046FFF7DAFF044644455D
:1048700000DAA0464C4500DDA1462644781CC7B2AC
:10488000AF42EFDB032D08DB08EB0900361AA81E48
:10489000B6FBF0F080B2BDE8F09FB6FBF5F080B259
:1048A000F9E7000000000240002001400021014023
:1048B0001CB50121102002F08BFB04200090002089
:1048C0008DF8040003208DF8050002208DF8070004
:1048D00069464E4801F0FAFD0820009069464B48B1
:1048E00001F0F4FD1CBD70B52DED088B1E220221D8
:1048F0004748FFF7ACFF0446204607F005F941ECB6
:104900001B0B9FED440B53EC102B06F0F5FE41EC16
:104910001A0B9FED420B53EC102B07F045F941ECBD
:10492000190B9FED400B53EC102B06F0E5FE41EC0C
:10493000180BB0EE480AF0EE680AFDF7ABFF05462B
:1049400029463A480068083004F0F5F80120384953
:104950000870082004F007F8BDEC088B70BD10B596
:104960003448006808B9012000E00020314908609F
:10497000042003F0F8FF10BD0EB5FFF799FF0121E9
:10498000880302F07FFB0221042002F086FC032151
:10499000042002F082FC0420009000208DF8040026
:1049A00008208DF8050001208DF80600684603F008
:1049B00069FF0820009000208DF8040008208DF881
:1049C000050000208DF80600684603F05BFF082014
:1049D0008DF8080000208DF8090002208DF80A00EB
:1049E00001208DF80B0002A801F07FFC09208DF852
:1049F000080000208DF8090002208DF80A0001202F
:104A00008DF80B0002A801F070FC0EBD00100240F2
:104A100000200140000000000000B0400000000045
:104A200000000440000000000000E03F54000020AF
:104A300069000020A48242421FB5044601210220E1
:104A400002F00FFB601E02900020ADF80400ADF8EC
:104A50000600ADF80C008DF80E0001A94B4803F0DC
:104A60005EF901221146494803F0FAFD0121474849
:104A700003F0DEF91D208DF8000001208DF8010003
:104A800003208DF8020001208DF80300684601F034
:104A90002CFC1FBD10B52DED0A8B01213B4803F006
:104AA000F6FD01286AD13A480078401C3849087060
:104AB00008460078C82801D10020087035480068F1
:104AC00007F068FB41EC1A0B3349314A127831F890
:104AD000120007F019F841EC1C0B9FED300B53EC62
:104AE000102B07F06DFA41EC1B0B53EC1A2B07F05F
:104AF0005BF841EC190B9FED290B53EC102B06F0E2
:104B00003FFD41EC180BB0EE480AF0EE680AFDF7E5
:104B1000F4FE04462146234803F0EFFA1D480068DE
:104B200007F038FB41EC1A0B1B49194A127831F88F
:104B3000120006F0E9FF41EC1C0B9FED180B53EC43
:104B4000102B07F03DFA41EC1B0B53EC1A2B07F02E
:104B50002BF841EC190B9FED110B53EC102B07F0C8
:104B600057F941EC180BB0EE480AF0EE680AFDF771
:104B7000C4FE044621460B4803F0C1FA0121034854
:104B800003F096FDBDEC0A8B10BD00000004004050
:104B90006A0000206C000020880100200000000056
:104BA00000408A400000014010B504466FF0040048
:104BB00001F0E8FBE11704EB5171C1F3C701394A79
:104BC00011701046007800EB4001C1EBC0104FF6A9
:104BD000FF7101EAC0003449088010BD0146314A26
:104BE00012784A434FF0E0235A6100229A611A4634
:104BF000126942F001021A6100BF4FF0E022106911
:104C000000F001021AB100F48032002AF5D04FF012
:104C1000E022126922F001024FF0E0231A61002223
:104C20009A6170470146204A12884A434FF0E023B8
:104C30005A6100229A611A46126942F001021A6111
:104C400000BF4FF0E022106900F001021AB100F439
:104C50008032002AF5D04FF0E022126922F00102E2
:104C60004FF0E0231A6100229A61704770B5044644
:104C70004FF4077094FBF0F0C6B24FF4077094FB4A
:104C8000F0F100FB114085B205E04FF40770FFF72B
:104C9000C9FF701EC6B2002EF7D115B12846FFF726
:104CA000C1FF70BD2001002022010020014600BF8D
:104CB000704700BF4C4A128802F04002002AF9D027
:104CC000C2B2494B9A80704710B588B004460121A2
:104CD000084602F07DF90121102002F0D3F90722E5
:104CE0000921424801F07DFC07220A213F4801F0DA
:104CF00078FC4FF4C060069002208DF81C008DF8FF
:104D00001D0000208DF81E0001208DF81F0006A94F
:104D1000364801F0DBFB02940020ADF80C00ADF842
:104D20000E00ADF81000ADF814000C20ADF8120024
:104D300002A92D4802F051FB01212B4802F0D5FBBE
:104D4000012240F22551284802F085FC25208DF8EB
:104D5000040003208DF805008DF8060001208DF871
:104D6000070001A801F0C1FA08B010BD10B540F26B
:104D700025511D4802F0AAFC10B31B4802F0E4FBC9
:104D8000C4B21B48008800F40040C8B91848008825
:104D900000F4804060B10A2C03D000201449088040
:104DA00020E01348008840F400401149088019E0D1
:104DB0000D2C06D10E48008840F480400C49088034
:104DC00010E00B480088C0F30D000A490C54084855
:104DD0000088401C0649088008460088C72801DD75
:104DE0000020088010BD00000010014000000240BB
:104DF000280100205303002010B52DED028BFE4842
:104E000000680830FDF773FDB0EE408AF0EE608A6E
:104E10009FEDFA0B53EC102B51EC180B06F0C2FF70
:104E200012D29FEDF60BB0EE408AF0EE608AB0EE43
:104E3000480AF0EE680AFDF72DFD04462146EE48CB
:104E40000068083003F077FE9FEDEE0B53EC102B5B
:104E500051EC180B06F06CFE12D29FEDEA0BB0EE8F
:104E6000408AF0EE608AB0EE480AF0EE680AFDF77C
:104E700011FD04462146E0480068083003F05BFE5F
:104E8000BDEC028B10BD01B592B000201190D0E1B5
:104E9000119800EB800101EBC000DC4901EB8001BF
:104EA000129881427ED1119800EB800101EBC00085
:104EB000D64901EB800090F83100002872D011989B
:104EC00000EB800101EBC000D04901EB8000808B3A
:104ED0001090119800EB800101EBC000CB4901EB71
:104EE0008000C08B0F90119800EB800101EBC00097
:104EF000C64901EB8000008D0E90119800EB8001F7
:104F000001EBC000C14901EB8000408D0D9011986C
:104F100000EB800101EBC000BC4901EB8000808CFC
:104F20000C90119800EB800101EBC000B74901EB38
:104F30008000C08C0B90119800EB800101EBC00049
:104F4000B24901EB8000008C0A90119800EB8001BF
:104F500001EBC000AD4901EB8000408C0990119835
:104F600000EB800101EBC000A84901EB8000007E4E
:104F700008901C210A220023089800EB80004000C2
:104F8000CDE9023204910190A1480090DDE90D3293
:104F9000DDE90F10FDF700F91C21089800EB8000F7
:104FA000400000E041E19A4ACDE900200291DDE9AC
:104FB0000B32DDE90F10FDF7A1F81C21089800EB7A
:104FC00080004000C01D924ACDE9002002910E9958
:104FD000109801440C98081A80B20790DDE90B3252
:104FE0000F99FDF78BF82721089800EB800040000F
:104FF000874ACDE9002002910D990F9801440B9842
:10500000081A80B207900146DDE90B321098FDF7CF
:1050100075F82721089800EB80004000C01D7C4AED
:10502000CDE9002002910D990F9801440B98081AC0
:1050300080B207900E99109801440C98081A80B21B
:105040000690DDE90B320799FDF758F8022104229A
:105050001C23089800EB80004000C01CCDE9023200
:10506000049101906A48009002220C990E9802FB6C
:10507000110080B207901098084480B20690099BF6
:10508000079A0F99FDF788F8082102221F23089834
:1050900000EB80004000CDE90232049101905C48B1
:1050A00000900B990D9802FB110080B207900F98A9
:1050B000084480B206900146079B0A9A1098FDF7B3
:1050C0006BF8082102221F23089800EB80004000A3
:1050D0000830CDE90232049101904D4800900B99BF
:1050E0000D9802FB110080B207900F98084480B21F
:1050F00006900E99109801440A98081A80B20590FB
:10510000DDE906130A9AFDF747F802210422282355
:10511000089800EB80004000C01CCDE902320491E9
:1051200001903B48009002220C990E9802FB11005E
:1051300080B207900D990F9801440998081A80B21F
:1051400006900C991098084480B20590099BDDE9FF
:105150000612FDF721F8119800EB800101EBC00069
:105160002A4901EB8000008B18B9002029490880EA
:1051700003E04FF4784027490880119800EB800144
:1051800001EBC000214901EB8000001D039003F0FA
:10519000F6FC00EB8000143080B20590119800EB13
:1051A000800101EBC000194901EB8000001D039054
:1051B00003F0E5FC00EB40010E98069000EBD07088
:1051C000421010981044401A80B20490119800EBDD
:1051D000800101EBC0000D4901EB8000001D0C2196
:1051E000CDE900100D98079000EBD07041100F989A
:1051F0000844801F80B20FE0600000200000000023
:105200000000594000000000000034401C04002051
:1052100056DE00089C0000201E2303900146DDE9B5
:105220000402FDF7ADFA13B000BD1198401C80B226
:10523000119011982828FFF62BAE0020119030E134
:105240001198C0EBC000FE4901EB80011298814229
:105250007ED11198C0EBC000F94901EB8000007EBF
:10526000002875D01198C0EBC00001EB8000408889
:1052700010901198C0EBC00001EB800080880F9067
:105280001198C0EBC00001EB8000C0880E9011980F
:10529000C0EBC00001EB800000890D904FF6FF705D
:1052A0000090DDE90D32DDE90F10FCF704FE9C22D1
:1052B00011461046FBF746FC06900D98001F07901C
:1052C00000EBD07041100F98084480B20590109800
:1052D000801C80B20490DDE90512FBF7EEFFB022DE
:1052E00011461046FBF72EFCD64908800D98001F8A
:1052F000079000EBD07041100F98084480B20590E1
:105300000D98001F069000EBD07041100F980844D4
:1053100080B203900E9910980844C01E80B2049089
:105320001098C01C80B2029003A90EC9FCF716FEAB
:10533000B02211461046FBF705FC06900D98001FA1
:10534000079000EBD07041100F980844401C00E01B
:10535000A3E080B205901098801C80B20490DDE933
:105360000512FBF7AAFFB02211461046FBF7EAFB35
:1053700006900D98001F079000EBD07041100F9819
:105380000844801C80B205901098801C80B2049064
:10539000DDE90512FBF791FFFC2211461046FBF7F1
:1053A000D1FBA84908800D98001F079000EBD07032
:1053B00041100F980844C01C80B205900D98001F42
:1053C000069000EBD07041100F980844C01C80B2CA
:1053D00003900E9910980844C01E80B20490109853
:1053E000C01C80B2029003A90EC9FCF7B7FDEA22E7
:1053F0001146E720FBF7A6FB06900D98001F0790CB
:1054000000EBD07041100F980844401C80B205900A
:105410000E9910980844C01E80B20490DDE9051270
:10542000FBF74BFFEA221146E720FBF78BFB0690C8
:105430000D98001F079000EBD07041100F980844A2
:10544000801C80B205900E9910980844C01E80B24E
:105450000490DDE90512FBF730FFEA221146E72050
:10546000FBF770FB069000900D98001F079000EB73
:10547000D07041100F980844401C80B204900E98E0
:10548000801F80B205901098C01C80B20223039048
:10549000DDE90412FCF70FFDC5E61198401C80B24F
:1054A000119011980A28FFF6CBAE00201190E9E088
:1054B0001198C0EB4010644901EB40011298814201
:1054C0007DD11198C0EB40115F4800EB410090F88E
:1054D0003A00002873D047F28E305A49088011985C
:1054E000C0EB4010584931F8100010901198C0EBF3
:1054F000401001EB400040880F901198C0EB401025
:1055000001EB400080880E901198C0EB401001EB39
:105510004000C0880D904FF6FF700090DDE90D321D
:10552000DDE90F10FCF7C7FC0E9910980844401EE7
:1055300080B2079002460F9B19461098FCF70EFDAB
:105540000D990F980844401E80B207900E9910984C
:105550000844401E80B206900D990F980844401EE2
:1055600080B205900146DDE906231098FCF7F6FCB1
:105570000D990F980844401E80B203460790DDE95C
:105580000F121046FCF7EAFC0D990F980844401ED4
:1055900080B207900E9910980844401E80B2069081
:1055A00010980844401E80B20590DDE906230F994B
:1055B000FCF7D4FC1198C0EB4010234900E03EE01A
:1055C00001EB400008300390FDF791F98DED040BDD
:1055D0000D981E38079000EBD07041100F980844CA
:1055E00080B203909DED040B01461098FDF7EAF997
:1055F0001198C0EB4010144901EB400090F83B00BB
:10560000E8B100200F4908801198C0EB40100E4906
:1056100001EB40000830059003F0B1FA0146109804
:10562000C01D0F2202FB010080B207901198C0EB51
:105630004010054901EB40000830059006E01DE0F0
:10564000840F00209C0000209C10002003F097FA9B
:1056500001461098C01D0F2202FB010080B2069087
:105660000F98233080B205900F98401D80B20490AF
:105670000146DDE90530079AFCF770FC1198401CE3
:1056800080B2119011980A28FFF612AF00BFCAE548
:105690002DE9F05F80460D4616461F46DDE90A9A61
:1056A000002468E004EB840000EBC400F74901EB40
:1056B000800040455DD104EB840000EBC40001EBA9
:1056C000800090F83100002853D00AF0010010BB90
:1056D00004EB840000EBC40001EB8000808BA84247
:1056E00008D104EB840000EBC40001EB8000C08B08
:1056F000B04201D04FF0010B04EB840000EBC4007A
:10570000E24901EB8000858304EB840000EBC400D8
:1057100001EB8000C6830AF0020020BB04EB84008A
:1057200000EBC400D94901EB8000008DB84208D1DC
:1057300004EB840000EBC40001EB8000408D484581
:1057400001D04FF0010B04EB840000EBC400CF4903
:1057500001EB8000078504EB840000EBC40001EB43
:105760008000A0F82A90BBF1000F02D04046FFF75E
:105770008AFB601C84B2282C94DBBDE8F09F7CB5CA
:1057800004460D4665812046FFF77DFBE088203802
:1057900061894843A189B0FBF1F0618808440A306F
:1057A00086B202200021CDE90010A188891C8AB2AE
:1057B000002331466069FFF76BFF6069FFF763FB09
:1057C000238862891021204600F006F97CBD10B5BF
:1057D00004460020E08520832046FFF754FB10BDDF
:1057E00070B504460D460120E08525832046FFF76D
:1057F0004AFB70BD0023C3810382437670477CB5AA
:1058000004460D461646607E002840D0E089291ADD
:1058100060880A30814203DA60880A30E1894518DD
:105820006088E18808441638E189691A884205DAF7
:105830006088E18808441638E1894518E089281A0B
:105840006169898B884202D02046FFF71CFB022049
:105850000021CDE90010A3889B1C9AB2E389EB1AC2
:1058600099B200236069FFF713FFE089281A618865
:10587000401A0A38A1894843E188203990FBF1F0A9
:105880006081238862891021204600F0A5F87CBD44
:1058900010B543888B421CDC8388934219DC438813
:1058A000C48823445B1E8B4213DB83880489234412
:1058B0005B1E93420DDB43691B8B012B09D14369AE
:1058C0009B8BCB1AC3814369DB8BD31A03820123E1
:1058D000437610BD2DE9F04104460D461646277E5D
:1058E000A08BA8421BDCE08BB04218DCA08B218D82
:1058F0000844401EA84212DBE08B618D0844401E24
:10590000B0420CDB94F8300030B1628B00234FF4CE
:105910008051204600F060F8002084F83000E08DCF
:1059200008B90020208317B12046FFF7ACFABDE884
:10593000F0812DE9F04104460D461646277EA08BE6
:10594000A84216DCE08BB04213DCA08B218D08440A
:10595000401EA8420DDBE08B618D0844401EB04222
:1059600007DB94F8300070B1E08D60B9012020832E
:1059700009E0208B012806D194F8300018B1E08DA1
:1059800008B902202083208BB84202D02046FFF7BE
:105990007AFABDE8F08170B504460D461646A08B34
:1059A000A84218DCE08BB04215DCA08B218D0844A6
:1059B000401EA8420FDBE08B618D0844401EB042C0
:1059C00009DBE08D08B901202083012084F8300034
:1059D0002046FFF758FA70BD2DE9F0432DED028BFC
:1059E00083B081460D4616461F4605F00300002889
:1059F00075D0002437E004EB840000EBC400234999
:105A000001EB800090F8310058B3012D04D0022D35
:105A10001AD0032D24D10BE004EB840101EBC40167
:105A20001A4A02EB81003A463146FFF7B4FF17E00D
:105A300004EB840101EBC401144A02EB81003A46F5
:105A40003146FFF776FF0BE004EB840101EBC40164
:105A50000E4A02EB81003A463146FFF73BFF00BF9A
:105A600000BF601C84B2282CC5DB002433E0C4EBEB
:105A7000C400074901EB8000007E50B3012D09D01E
:105A8000022D1BD0032D23D10EE000001C040020AA
:105A9000840F0020C4EBC401F84A02EB81003A46AF
:105AA0003146FFF7F5FE13E0C4EBC401F34A02EB05
:105AB00081003A463146FFF7A2FE09E0C4EBC4017B
:105AC000EE4A02EB81003A463146FFF793FE00BFF3
:105AD00000BF601C84B20A2CC9DBBBE1FFE7B5F54F
